{
  "contractName": "CustomDeFiLoan",
  "abi": [
    {
      "inputs": [],
      "stateMutability": "nonpayable",
      "type": "constructor"
    },
    {
      "anonymous": false,
      "inputs": [
        {
          "indexed": true,
          "internalType": "address",
          "name": "borrower",
          "type": "address"
        },
        {
          "indexed": false,
          "internalType": "uint256",
          "name": "amount",
          "type": "uint256"
        },
        {
          "indexed": false,
          "internalType": "uint256",
          "name": "interest",
          "type": "uint256"
        },
        {
          "indexed": false,
          "internalType": "uint256",
          "name": "dueDate",
          "type": "uint256"
        },
        {
          "indexed": false,
          "internalType": "bool",
          "name": "isRepaid",
          "type": "bool"
        }
      ],
      "name": "LoanCreated",
      "type": "event"
    },
    {
      "anonymous": false,
      "inputs": [
        {
          "indexed": true,
          "internalType": "address",
          "name": "borrower",
          "type": "address"
        },
        {
          "indexed": false,
          "internalType": "uint256",
          "name": "loanIndex",
          "type": "uint256"
        }
      ],
      "name": "LoanRepaid",
      "type": "event"
    },
    {
      "anonymous": false,
      "inputs": [
        {
          "indexed": false,
          "internalType": "address",
          "name": "owner",
          "type": "address"
        }
      ],
      "name": "OwnerAddress",
      "type": "event"
    },
    {
      "inputs": [
        {
          "internalType": "address",
          "name": "",
          "type": "address"
        },
        {
          "internalType": "uint256",
          "name": "",
          "type": "uint256"
        }
      ],
      "name": "activeLoans",
      "outputs": [
        {
          "internalType": "uint256",
          "name": "amount",
          "type": "uint256"
        },
        {
          "internalType": "uint256",
          "name": "interest",
          "type": "uint256"
        },
        {
          "internalType": "uint256",
          "name": "dueDate",
          "type": "uint256"
        },
        {
          "internalType": "address",
          "name": "borrower",
          "type": "address"
        },
        {
          "internalType": "bool",
          "name": "isRepaid",
          "type": "bool"
        }
      ],
      "stateMutability": "view",
      "type": "function",
      "constant": true
    },
    {
      "inputs": [
        {
          "internalType": "address",
          "name": "",
          "type": "address"
        }
      ],
      "name": "balances",
      "outputs": [
        {
          "internalType": "uint256",
          "name": "",
          "type": "uint256"
        }
      ],
      "stateMutability": "view",
      "type": "function",
      "constant": true
    },
    {
      "inputs": [
        {
          "internalType": "uint256",
          "name": "_amount",
          "type": "uint256"
        },
        {
          "internalType": "uint256",
          "name": "_dueDate",
          "type": "uint256"
        }
      ],
      "name": "createLoan",
      "outputs": [],
      "stateMutability": "nonpayable",
      "type": "function"
    },
    {
      "inputs": [
        {
          "internalType": "address",
          "name": "_borrower",
          "type": "address"
        }
      ],
      "name": "getActiveLoans",
      "outputs": [
        {
          "components": [
            {
              "internalType": "uint256",
              "name": "amount",
              "type": "uint256"
            },
            {
              "internalType": "uint256",
              "name": "interest",
              "type": "uint256"
            },
            {
              "internalType": "uint256",
              "name": "dueDate",
              "type": "uint256"
            },
            {
              "internalType": "address",
              "name": "borrower",
              "type": "address"
            },
            {
              "internalType": "bool",
              "name": "isRepaid",
              "type": "bool"
            }
          ],
          "internalType": "struct ILoan.Loan[]",
          "name": "",
          "type": "tuple[]"
        }
      ],
      "stateMutability": "view",
      "type": "function",
      "constant": true
    },
    {
      "inputs": [],
      "name": "getBalance",
      "outputs": [
        {
          "internalType": "uint256",
          "name": "value",
          "type": "uint256"
        }
      ],
      "stateMutability": "view",
      "type": "function",
      "constant": true
    },
    {
      "inputs": [
        {
          "internalType": "address",
          "name": "_borrower",
          "type": "address"
        }
      ],
      "name": "getPaidLoans",
      "outputs": [
        {
          "components": [
            {
              "internalType": "uint256",
              "name": "amount",
              "type": "uint256"
            },
            {
              "internalType": "uint256",
              "name": "interest",
              "type": "uint256"
            },
            {
              "internalType": "uint256",
              "name": "dueDate",
              "type": "uint256"
            },
            {
              "internalType": "address",
              "name": "borrower",
              "type": "address"
            },
            {
              "internalType": "bool",
              "name": "isRepaid",
              "type": "bool"
            }
          ],
          "internalType": "struct ILoan.Loan[]",
          "name": "",
          "type": "tuple[]"
        }
      ],
      "stateMutability": "view",
      "type": "function",
      "constant": true
    },
    {
      "inputs": [],
      "name": "owner",
      "outputs": [
        {
          "internalType": "address payable",
          "name": "",
          "type": "address"
        }
      ],
      "stateMutability": "view",
      "type": "function",
      "constant": true
    },
    {
      "inputs": [
        {
          "internalType": "address",
          "name": "",
          "type": "address"
        },
        {
          "internalType": "uint256",
          "name": "",
          "type": "uint256"
        }
      ],
      "name": "paidLoans",
      "outputs": [
        {
          "internalType": "uint256",
          "name": "amount",
          "type": "uint256"
        },
        {
          "internalType": "uint256",
          "name": "interest",
          "type": "uint256"
        },
        {
          "internalType": "uint256",
          "name": "dueDate",
          "type": "uint256"
        },
        {
          "internalType": "address",
          "name": "borrower",
          "type": "address"
        },
        {
          "internalType": "bool",
          "name": "isRepaid",
          "type": "bool"
        }
      ],
      "stateMutability": "view",
      "type": "function",
      "constant": true
    },
    {
      "inputs": [
        {
          "internalType": "address",
          "name": "_borrower",
          "type": "address"
        },
        {
          "internalType": "uint256",
          "name": "_index",
          "type": "uint256"
        }
      ],
      "name": "repayLoan",
      "outputs": [],
      "stateMutability": "payable",
      "type": "function",
      "payable": true
    },
    {
      "inputs": [
        {
          "internalType": "uint256",
          "name": "_loanIndex",
          "type": "uint256"
        },
        {
          "internalType": "uint256",
          "name": "_extraTime",
          "type": "uint256"
        }
      ],
      "name": "extendLoan",
      "outputs": [],
      "stateMutability": "nonpayable",
      "type": "function"
    }
  ],
  "bytecode": "0x60806040523480156200001157600080fd5b50336000806101000a81548173ffffffffffffffffffffffffffffffffffffffff021916908373ffffffffffffffffffffffffffffffffffffffff1602179055507fc3c459f585122b8115ae62dec419cce9035dcdc5d1e953a3a6f12bb36560741360008054906101000a900473ffffffffffffffffffffffffffffffffffffffff16604051620000a391906200013c565b60405180910390a162000159565b600073ffffffffffffffffffffffffffffffffffffffff82169050919050565b6000819050919050565b6000620000fc620000f6620000f084620000b1565b620000d1565b620000b1565b9050919050565b60006200011082620000db565b9050919050565b6000620001248262000103565b9050919050565b620001368162000117565b82525050565b60006020820190506200015360008301846200012b565b92915050565b61145b80620001696000396000f3fe6080604052600436106100915760003560e01c806388a61dc31161005957806388a61dc3146101b95780638da5cb5b146101e257806393a595f51461020d57806398cd90b51461022957806399635d5c1461025257610091565b806303d1a1a11461009657806312065fe0146100d357806321111063146100fe57806327e235e31461013f578063661ca0371461017c575b600080fd5b3480156100a257600080fd5b506100bd60048036038101906100b89190610da2565b610293565b6040516100ca9190610f29565b60405180910390f35b3480156100df57600080fd5b506100e86103c0565b6040516100f59190610f5a565b60405180910390f35b34801561010a57600080fd5b5061012560048036038101906101209190610fa1565b610407565b604051610136959493929190610fff565b60405180910390f35b34801561014b57600080fd5b5061016660048036038101906101619190610da2565b610487565b6040516101739190610f5a565b60405180910390f35b34801561018857600080fd5b506101a3600480360381019061019e9190610da2565b61049f565b6040516101b09190610f29565b60405180910390f35b3480156101c557600080fd5b506101e060048036038101906101db9190611052565b6105cc565b005b3480156101ee57600080fd5b506101f76106d3565b60405161020491906110b3565b60405180910390f35b61022760048036038101906102229190610fa1565b6106f7565b005b34801561023557600080fd5b50610250600480360381019061024b9190611052565b610ab0565b005b34801561025e57600080fd5b5061027960048036038101906102749190610fa1565b610cbf565b60405161028a959493929190610fff565b60405180910390f35b6060600160008373ffffffffffffffffffffffffffffffffffffffff1673ffffffffffffffffffffffffffffffffffffffff168152602001908152602001600020805480602002602001604051908101604052809291908181526020016000905b828210156103b557838290600052602060002090600402016040518060a00160405290816000820154815260200160018201548152602001600282015481526020016003820160009054906101000a900473ffffffffffffffffffffffffffffffffffffffff1673ffffffffffffffffffffffffffffffffffffffff1673ffffffffffffffffffffffffffffffffffffffff1681526020016003820160149054906101000a900460ff161515151581525050815260200190600101906102f4565b505050509050919050565b6000600360003373ffffffffffffffffffffffffffffffffffffffff1673ffffffffffffffffffffffffffffffffffffffff16815260200190815260200160002054905090565b6001602052816000526040600020818154811061042357600080fd5b9060005260206000209060040201600091509150508060000154908060010154908060020154908060030160009054906101000a900473ffffffffffffffffffffffffffffffffffffffff16908060030160149054906101000a900460ff16905085565b60036020528060005260406000206000915090505481565b6060600260008373ffffffffffffffffffffffffffffffffffffffff1673ffffffffffffffffffffffffffffffffffffffff168152602001908152602001600020805480602002602001604051908101604052809291908181526020016000905b828210156105c157838290600052602060002090600402016040518060a00160405290816000820154815260200160018201548152602001600282015481526020016003820160009054906101000a900473ffffffffffffffffffffffffffffffffffffffff1673ffffffffffffffffffffffffffffffffffffffff1673ffffffffffffffffffffffffffffffffffffffff1681526020016003820160149054906101000a900460ff16151515158152505081526020019060010190610500565b505050509050919050565b600160003373ffffffffffffffffffffffffffffffffffffffff1673ffffffffffffffffffffffffffffffffffffffff168152602001908152602001600020805490508210610650576040517f08c379a00000000000000000000000000000000000000000000000000000000081526004016106479061112b565b60405180910390fd5b6000600160003373ffffffffffffffffffffffffffffffffffffffff1673ffffffffffffffffffffffffffffffffffffffff16815260200190815260200160002083815481106106a3576106a261114b565b5b90600052602060002090600402019050818160020160008282546106c791906111a9565b92505081905550505050565b60008054906101000a900473ffffffffffffffffffffffffffffffffffffffff1681565b600160008373ffffffffffffffffffffffffffffffffffffffff1673ffffffffffffffffffffffffffffffffffffffff16815260200190815260200160002080549050811061077b576040517f08c379a00000000000000000000000000000000000000000000000000000000081526004016107729061112b565b60405180910390fd5b6000600160008473ffffffffffffffffffffffffffffffffffffffff1673ffffffffffffffffffffffffffffffffffffffff16815260200190815260200160002082815481106107ce576107cd61114b565b5b90600052602060002090600402019050600073__LoanLibrary___________________________63efdd7c07836000015484600101546040518363ffffffff1660e01b81526004016108219291906111ec565b602060405180830381865af415801561083e573d6000803e3d6000fd5b505050506040513d601f19601f82011682018060405250810190610862919061122a565b9050600081836000015461087691906111a9565b90508034146108ba576040517f08c379a00000000000000000000000000000000000000000000000000000000081526004016108b1906112a3565b60405180910390fd5b60018360030160146101000a81548160ff02191690831515021790555060008054906101000a900473ffffffffffffffffffffffffffffffffffffffff1673ffffffffffffffffffffffffffffffffffffffff166108fc839081150290604051600060405180830381858888f1935050505015801561093d573d6000803e3d6000fd5b50600260008673ffffffffffffffffffffffffffffffffffffffff1673ffffffffffffffffffffffffffffffffffffffff1681526020019081526020016000208390806001815401808255809150506001900390600052602060002090600402016000909190919091506000820154816000015560018201548160010155600282015481600201556003820160009054906101000a900473ffffffffffffffffffffffffffffffffffffffff168160030160006101000a81548173ffffffffffffffffffffffffffffffffffffffff021916908373ffffffffffffffffffffffffffffffffffffffff1602179055506003820160149054906101000a900460ff168160030160146101000a81548160ff02191690831515021790555050508473ffffffffffffffffffffffffffffffffffffffff167fc200a1f31dd659e356e0f112c82558e25f49f7b0f84438691cd96f5cb355882385604051610aa19190610f5a565b60405180910390a25050505050565b60008211610af3576040517f08c379a0000000000000000000000000000000000000000000000000000000008152600401610aea9061130f565b60405180910390fd5b428111610b35576040517f08c379a0000000000000000000000000000000000000000000000000000000008152600401610b2c9061137b565b60405180910390fd5b600160003373ffffffffffffffffffffffffffffffffffffffff1673ffffffffffffffffffffffffffffffffffffffff1681526020019081526020016000206040518060a00160405280848152602001600a81526020018381526020013373ffffffffffffffffffffffffffffffffffffffff16815260200160001515815250908060018154018082558091505060019003906000526020600020906004020160009091909190915060008201518160000155602082015181600101556040820151816002015560608201518160030160006101000a81548173ffffffffffffffffffffffffffffffffffffffff021916908373ffffffffffffffffffffffffffffffffffffffff16021790555060808201518160030160146101000a81548160ff02191690831515021790555050503373ffffffffffffffffffffffffffffffffffffffff167f4e7efa62621577e2d2f3ce157441935bee772531de9e2152ced5712245b450d683600a846000604051610cb394939291906113e0565b60405180910390a25050565b60026020528160005260406000208181548110610cdb57600080fd5b9060005260206000209060040201600091509150508060000154908060010154908060020154908060030160009054906101000a900473ffffffffffffffffffffffffffffffffffffffff16908060030160149054906101000a900460ff16905085565b600080fd5b600073ffffffffffffffffffffffffffffffffffffffff82169050919050565b6000610d6f82610d44565b9050919050565b610d7f81610d64565b8114610d8a57600080fd5b50565b600081359050610d9c81610d76565b92915050565b600060208284031215610db857610db7610d3f565b5b6000610dc684828501610d8d565b91505092915050565b600081519050919050565b600082825260208201905092915050565b6000819050602082019050919050565b6000819050919050565b610e0e81610dfb565b82525050565b610e1d81610d64565b82525050565b60008115159050919050565b610e3881610e23565b82525050565b60a082016000820151610e546000850182610e05565b506020820151610e676020850182610e05565b506040820151610e7a6040850182610e05565b506060820151610e8d6060850182610e14565b506080820151610ea06080850182610e2f565b50505050565b6000610eb28383610e3e565b60a08301905092915050565b6000602082019050919050565b6000610ed682610dcf565b610ee08185610dda565b9350610eeb83610deb565b8060005b83811015610f1c578151610f038882610ea6565b9750610f0e83610ebe565b925050600181019050610eef565b5085935050505092915050565b60006020820190508181036000830152610f438184610ecb565b905092915050565b610f5481610dfb565b82525050565b6000602082019050610f6f6000830184610f4b565b92915050565b610f7e81610dfb565b8114610f8957600080fd5b50565b600081359050610f9b81610f75565b92915050565b60008060408385031215610fb857610fb7610d3f565b5b6000610fc685828601610d8d565b9250506020610fd785828601610f8c565b9150509250929050565b610fea81610d64565b82525050565b610ff981610e23565b82525050565b600060a0820190506110146000830188610f4b565b6110216020830187610f4b565b61102e6040830186610f4b565b61103b6060830185610fe1565b6110486080830184610ff0565b9695505050505050565b6000806040838503121561106957611068610d3f565b5b600061107785828601610f8c565b925050602061108885828601610f8c565b9150509250929050565b600061109d82610d44565b9050919050565b6110ad81611092565b82525050565b60006020820190506110c860008301846110a4565b92915050565b600082825260208201905092915050565b7f4c6f616e20646f6573206e6f7420657869737400000000000000000000000000600082015250565b60006111156013836110ce565b9150611120826110df565b602082019050919050565b6000602082019050818103600083015261114481611108565b9050919050565b7f4e487b7100000000000000000000000000000000000000000000000000000000600052603260045260246000fd5b7f4e487b7100000000000000000000000000000000000000000000000000000000600052601160045260246000fd5b60006111b482610dfb565b91506111bf83610dfb565b92508282019050808211156111d7576111d661117a565b5b92915050565b6111e681610dfb565b82525050565b600060408201905061120160008301856111dd565b61120e60208301846111dd565b9392505050565b60008151905061122481610f75565b92915050565b6000602082840312156112405761123f610d3f565b5b600061124e84828501611215565b91505092915050565b7f4e6f7420656e6f7567682066756e647320746f207265706179206c6f616e0000600082015250565b600061128d601e836110ce565b915061129882611257565b602082019050919050565b600060208201905081810360008301526112bc81611280565b9050919050565b7f416d6f756e74206d7573742062652067726561746572207468616e2030000000600082015250565b60006112f9601d836110ce565b9150611304826112c3565b602082019050919050565b60006020820190508181036000830152611328816112ec565b9050919050565b7f4475652064617465206d75737420626520696e20746865206675747572650000600082015250565b6000611365601e836110ce565b91506113708261132f565b602082019050919050565b6000602082019050818103600083015261139481611358565b9050919050565b6000819050919050565b6000819050919050565b60006113ca6113c56113c08461139b565b6113a5565b610dfb565b9050919050565b6113da816113af565b82525050565b60006080820190506113f56000830187610f4b565b61140260208301866113d1565b61140f6040830185610f4b565b61141c6060830184610ff0565b9594505050505056fea2646970667358221220959ff11760fa02ab10ff4c54b04e04826e7af86390302ec0856b3b452bad6afd64736f6c63430008110033",
  "immutableReferences": {},
  "source": "// SPDX-License-Identifier: MIT\r\npragma solidity ^0.8.0;\r\nimport \"./LoanLibrary.sol\";\r\nimport \"./DeFiLoan.sol\";\r\n\r\n\r\ncontract CustomDeFiLoan is DeFiLoan {\r\n\r\n    constructor() DeFiLoan() {}\r\n\r\n    \r\n    function extendLoan(uint _loanIndex, uint _extraTime) public {\r\n        require(_loanIndex < activeLoans[msg.sender].length, \"Loan does not exist\");\r\n        Loan storage loan = activeLoans[msg.sender][_loanIndex];\r\n        loan.dueDate += _extraTime;\r\n    }\r\n}\r\n",
  "sourcePath": "C:\\Users\\sumur\\Desktop\\An3\\Sistem-de-Imprumuturi-DeFi\\contracts\\CustomDeFiLoan.sol",
  "compiler": {
    "name": "solc",
    "version": "0.8.17+commit.8df45f5f.Emscripten.clang"
  },
  "schemaVersion": "3.4.16",
  "updatedAt": "2025-02-19T15:49:48.834Z",
  "networkType": "ethereum",
  "devdoc": {
    "kind": "dev",
    "methods": {},
    "version": 1
  },
  "userdoc": {
    "kind": "user",
    "methods": {},
    "version": 1
  }
}