{
  "contractName": "CustomDeFiLoan",
  "abi": [
    {
      "inputs": [],
      "stateMutability": "nonpayable",
      "type": "constructor"
    },
    {
      "anonymous": false,
      "inputs": [
        {
          "indexed": true,
          "internalType": "address",
          "name": "borrower",
          "type": "address"
        },
        {
          "indexed": false,
          "internalType": "uint256",
          "name": "amount",
          "type": "uint256"
        },
        {
          "indexed": false,
          "internalType": "uint256",
          "name": "interest",
          "type": "uint256"
        },
        {
          "indexed": false,
          "internalType": "uint256",
          "name": "dueDate",
          "type": "uint256"
        },
        {
          "indexed": false,
          "internalType": "bool",
          "name": "isRepaid",
          "type": "bool"
        }
      ],
      "name": "LoanCreated",
      "type": "event"
    },
    {
      "anonymous": false,
      "inputs": [
        {
          "indexed": true,
          "internalType": "address",
          "name": "borrower",
          "type": "address"
        },
        {
          "indexed": false,
          "internalType": "uint256",
          "name": "loanIndex",
          "type": "uint256"
        }
      ],
      "name": "LoanRepaid",
      "type": "event"
    },
    {
      "anonymous": false,
      "inputs": [
        {
          "indexed": false,
          "internalType": "address",
          "name": "owner",
          "type": "address"
        }
      ],
      "name": "OwnerAddress",
      "type": "event"
    },
    {
      "inputs": [
        {
          "internalType": "address",
          "name": "",
          "type": "address"
        },
        {
          "internalType": "uint256",
          "name": "",
          "type": "uint256"
        }
      ],
      "name": "activeLoans",
      "outputs": [
        {
          "internalType": "uint256",
          "name": "amount",
          "type": "uint256"
        },
        {
          "internalType": "uint256",
          "name": "interest",
          "type": "uint256"
        },
        {
          "internalType": "uint256",
          "name": "dueDate",
          "type": "uint256"
        },
        {
          "internalType": "address",
          "name": "borrower",
          "type": "address"
        },
        {
          "internalType": "bool",
          "name": "isRepaid",
          "type": "bool"
        }
      ],
      "stateMutability": "view",
      "type": "function",
      "constant": true
    },
    {
      "inputs": [
        {
          "internalType": "uint256",
          "name": "_amount",
          "type": "uint256"
        },
        {
          "internalType": "uint256",
          "name": "_dueDate",
          "type": "uint256"
        }
      ],
      "name": "createLoan",
      "outputs": [],
      "stateMutability": "nonpayable",
      "type": "function"
    },
    {
      "inputs": [
        {
          "internalType": "address",
          "name": "_borrower",
          "type": "address"
        }
      ],
      "name": "getActiveLoans",
      "outputs": [
        {
          "components": [
            {
              "internalType": "uint256",
              "name": "amount",
              "type": "uint256"
            },
            {
              "internalType": "uint256",
              "name": "interest",
              "type": "uint256"
            },
            {
              "internalType": "uint256",
              "name": "dueDate",
              "type": "uint256"
            },
            {
              "internalType": "address",
              "name": "borrower",
              "type": "address"
            },
            {
              "internalType": "bool",
              "name": "isRepaid",
              "type": "bool"
            }
          ],
          "internalType": "struct ILoan.Loan[]",
          "name": "",
          "type": "tuple[]"
        }
      ],
      "stateMutability": "view",
      "type": "function",
      "constant": true
    },
    {
      "inputs": [],
      "name": "owner",
      "outputs": [
        {
          "internalType": "address payable",
          "name": "",
          "type": "address"
        }
      ],
      "stateMutability": "view",
      "type": "function",
      "constant": true
    },
    {
      "inputs": [
        {
          "internalType": "address",
          "name": "",
          "type": "address"
        },
        {
          "internalType": "uint256",
          "name": "",
          "type": "uint256"
        }
      ],
      "name": "paidLoans",
      "outputs": [
        {
          "internalType": "uint256",
          "name": "amount",
          "type": "uint256"
        },
        {
          "internalType": "uint256",
          "name": "interest",
          "type": "uint256"
        },
        {
          "internalType": "uint256",
          "name": "dueDate",
          "type": "uint256"
        },
        {
          "internalType": "address",
          "name": "borrower",
          "type": "address"
        },
        {
          "internalType": "bool",
          "name": "isRepaid",
          "type": "bool"
        }
      ],
      "stateMutability": "view",
      "type": "function",
      "constant": true
    },
    {
      "inputs": [
        {
          "internalType": "address",
          "name": "_borrower",
          "type": "address"
        },
        {
          "internalType": "uint256",
          "name": "_index",
          "type": "uint256"
        }
      ],
      "name": "repayLoan",
      "outputs": [],
      "stateMutability": "payable",
      "type": "function",
      "payable": true
    },
    {
      "inputs": [
        {
          "internalType": "uint256",
          "name": "_loanIndex",
          "type": "uint256"
        },
        {
          "internalType": "uint256",
          "name": "_extraTime",
          "type": "uint256"
        }
      ],
      "name": "extendLoan",
      "outputs": [],
      "stateMutability": "nonpayable",
      "type": "function"
    }
  ],
  "bytecode": "0x60806040523480156200001157600080fd5b50336000806101000a81548173ffffffffffffffffffffffffffffffffffffffff021916908373ffffffffffffffffffffffffffffffffffffffff1602179055507fc3c459f585122b8115ae62dec419cce9035dcdc5d1e953a3a6f12bb36560741360008054906101000a900473ffffffffffffffffffffffffffffffffffffffff16604051620000a39190620000c2565b60405180910390a16200013b565b620000bc81620000ff565b82525050565b6000602082019050620000d96000830184620000b1565b92915050565b600073ffffffffffffffffffffffffffffffffffffffff82169050919050565b60006200010c8262000113565b9050919050565b6000620001208262000127565b9050919050565b60006200013482620000df565b9050919050565b61114c806200014b6000396000f3fe6080604052600436106100705760003560e01c80638da5cb5b1161004e5780638da5cb5b1461011c57806393a595f51461014757806398cd90b51461016357806399635d5c1461018c57610070565b806303d1a1a11461007557806321111063146100b257806388a61dc3146100f3575b600080fd5b34801561008157600080fd5b5061009c60048036038101906100979190610ab1565b6101cd565b6040516100a99190610dfb565b60405180910390f35b3480156100be57600080fd5b506100d960048036038101906100d49190610ada565b6102fa565b6040516100ea959493929190610f26565b60405180910390f35b3480156100ff57600080fd5b5061011a60048036038101906101159190610b3f565b61037a565b005b34801561012857600080fd5b506101316104a7565b60405161013e9190610de0565b60405180910390f35b610161600480360381019061015c9190610ada565b6104cb565b005b34801561016f57600080fd5b5061018a60048036038101906101859190610b3f565b6107e3565b005b34801561019857600080fd5b506101b360048036038101906101ae9190610ada565b6109f2565b6040516101c4959493929190610f26565b60405180910390f35b6060600160008373ffffffffffffffffffffffffffffffffffffffff1673ffffffffffffffffffffffffffffffffffffffff168152602001908152602001600020805480602002602001604051908101604052809291908181526020016000905b828210156102ef57838290600052602060002090600402016040518060a00160405290816000820154815260200160018201548152602001600282015481526020016003820160009054906101000a900473ffffffffffffffffffffffffffffffffffffffff1673ffffffffffffffffffffffffffffffffffffffff1673ffffffffffffffffffffffffffffffffffffffff1681526020016003820160149054906101000a900460ff1615151515815250508152602001906001019061022e565b505050509050919050565b6001602052816000526040600020818154811061031657600080fd5b9060005260206000209060040201600091509150508060000154908060010154908060020154908060030160009054906101000a900473ffffffffffffffffffffffffffffffffffffffff16908060030160149054906101000a900460ff16905085565b600160003373ffffffffffffffffffffffffffffffffffffffff1673ffffffffffffffffffffffffffffffffffffffff1681526020019081526020016000208054905082106103fe576040517f08c379a00000000000000000000000000000000000000000000000000000000081526004016103f590610e7d565b60405180910390fd5b6000600160003373ffffffffffffffffffffffffffffffffffffffff1673ffffffffffffffffffffffffffffffffffffffff1681526020019081526020016000208381548110610477577f4e487b7100000000000000000000000000000000000000000000000000000000600052603260045260246000fd5b906000526020600020906004020190508181600201600082825461049b9190610fc3565b92505081905550505050565b60008054906101000a900473ffffffffffffffffffffffffffffffffffffffff1681565b600160008373ffffffffffffffffffffffffffffffffffffffff1673ffffffffffffffffffffffffffffffffffffffff16815260200190815260200160002080549050811061054f576040517f08c379a000000000000000000000000000000000000000000000000000000000815260040161054690610e7d565b60405180910390fd5b6000600160008473ffffffffffffffffffffffffffffffffffffffff1673ffffffffffffffffffffffffffffffffffffffff16815260200190815260200160002082815481106105c8577f4e487b7100000000000000000000000000000000000000000000000000000000600052603260045260246000fd5b90600052602060002090600402019050600073__LoanLibrary___________________________63efdd7c07836000015484600101546040518363ffffffff1660e01b815260040161061b929190610efd565b60206040518083038186803b15801561063357600080fd5b505af4158015610647573d6000803e3d6000fd5b505050506040513d601f19601f8201168201806040525081019061066b9190610b16565b9050803410156106b0576040517f08c379a00000000000000000000000000000000000000000000000000000000081526004016106a790610e5d565b60405180910390fd5b60018260030160146101000a81548160ff02191690831515021790555060008054906101000a900473ffffffffffffffffffffffffffffffffffffffff1673ffffffffffffffffffffffffffffffffffffffff166108fc829081150290604051600060405180830381858888f19350505050158015610733573d6000803e3d6000fd5b508034111561078f573373ffffffffffffffffffffffffffffffffffffffff166108fc82346107629190611019565b9081150290604051600060405180830381858888f1935050505015801561078d573d6000803e3d6000fd5b505b8373ffffffffffffffffffffffffffffffffffffffff167fc200a1f31dd659e356e0f112c82558e25f49f7b0f84438691cd96f5cb3558823846040516107d59190610e9d565b60405180910390a250505050565b60008211610826576040517f08c379a000000000000000000000000000000000000000000000000000000000815260040161081d90610e3d565b60405180910390fd5b428111610868576040517f08c379a000000000000000000000000000000000000000000000000000000000815260040161085f90610e1d565b60405180910390fd5b600160003373ffffffffffffffffffffffffffffffffffffffff1673ffffffffffffffffffffffffffffffffffffffff1681526020019081526020016000206040518060a00160405280848152602001600a81526020018381526020013373ffffffffffffffffffffffffffffffffffffffff16815260200160001515815250908060018154018082558091505060019003906000526020600020906004020160009091909190915060008201518160000155602082015181600101556040820151816002015560608201518160030160006101000a81548173ffffffffffffffffffffffffffffffffffffffff021916908373ffffffffffffffffffffffffffffffffffffffff16021790555060808201518160030160146101000a81548160ff02191690831515021790555050503373ffffffffffffffffffffffffffffffffffffffff167f4e7efa62621577e2d2f3ce157441935bee772531de9e2152ced5712245b450d683600a8460006040516109e69493929190610eb8565b60405180910390a25050565b60026020528160005260406000208181548110610a0e57600080fd5b9060005260206000209060040201600091509150508060000154908060010154908060020154908060030160009054906101000a900473ffffffffffffffffffffffffffffffffffffffff16908060030160149054906101000a900460ff16905085565b600081359050610a81816110e8565b92915050565b600081359050610a96816110ff565b92915050565b600081519050610aab816110ff565b92915050565b600060208284031215610ac357600080fd5b6000610ad184828501610a72565b91505092915050565b60008060408385031215610aed57600080fd5b6000610afb85828601610a72565b9250506020610b0c85828601610a87565b9150509250929050565b600060208284031215610b2857600080fd5b6000610b3684828501610a9c565b91505092915050565b60008060408385031215610b5257600080fd5b6000610b6085828601610a87565b9250506020610b7185828601610a87565b9150509250929050565b6000610b878383610d4b565b60a08301905092915050565b610b9c8161105f565b82525050565b610bab8161104d565b82525050565b610bba8161104d565b82525050565b6000610bcb82610f89565b610bd58185610fa1565b9350610be083610f79565b8060005b83811015610c11578151610bf88882610b7b565b9750610c0383610f94565b925050600181019050610be4565b5085935050505092915050565b610c2781611071565b82525050565b610c3681611071565b82525050565b610c45816110a7565b82525050565b6000610c58601e83610fb2565b91507f4475652064617465206d75737420626520696e207468652066757475726500006000830152602082019050919050565b6000610c98601d83610fb2565b91507f416d6f756e74206d7573742062652067726561746572207468616e20300000006000830152602082019050919050565b6000610cd8601e83610fb2565b91507f4e6f7420656e6f7567682066756e647320746f207265706179206c6f616e00006000830152602082019050919050565b6000610d18601383610fb2565b91507f4c6f616e20646f6573206e6f74206578697374000000000000000000000000006000830152602082019050919050565b60a082016000820151610d616000850182610db3565b506020820151610d746020850182610db3565b506040820151610d876040850182610db3565b506060820151610d9a6060850182610ba2565b506080820151610dad6080850182610c1e565b50505050565b610dbc8161109d565b82525050565b610dcb8161109d565b82525050565b610dda8161109d565b82525050565b6000602082019050610df56000830184610b93565b92915050565b60006020820190508181036000830152610e158184610bc0565b905092915050565b60006020820190508181036000830152610e3681610c4b565b9050919050565b60006020820190508181036000830152610e5681610c8b565b9050919050565b60006020820190508181036000830152610e7681610ccb565b9050919050565b60006020820190508181036000830152610e9681610d0b565b9050919050565b6000602082019050610eb26000830184610dc2565b92915050565b6000608082019050610ecd6000830187610dc2565b610eda6020830186610c3c565b610ee76040830185610dc2565b610ef46060830184610c2d565b95945050505050565b6000604082019050610f126000830185610dd1565b610f1f6020830184610dd1565b9392505050565b600060a082019050610f3b6000830188610dc2565b610f486020830187610dc2565b610f556040830186610dc2565b610f626060830185610bb1565b610f6f6080830184610c2d565b9695505050505050565b6000819050602082019050919050565b600081519050919050565b6000602082019050919050565b600082825260208201905092915050565b600082825260208201905092915050565b6000610fce8261109d565b9150610fd98361109d565b9250827fffffffffffffffffffffffffffffffffffffffffffffffffffffffffffffffff0382111561100e5761100d6110b9565b5b828201905092915050565b60006110248261109d565b915061102f8361109d565b925082821015611042576110416110b9565b5b828203905092915050565b60006110588261107d565b9050919050565b600061106a8261107d565b9050919050565b60008115159050919050565b600073ffffffffffffffffffffffffffffffffffffffff82169050919050565b6000819050919050565b60006110b28261109d565b9050919050565b7f4e487b7100000000000000000000000000000000000000000000000000000000600052601160045260246000fd5b6110f18161104d565b81146110fc57600080fd5b50565b6111088161109d565b811461111357600080fd5b5056fea264697066735822122029491c9ea40d64896efb073e9c29e2831ded1c1449f64969b335f390820c31a864736f6c63430008000033",
  "immutableReferences": {},
  "source": "// SPDX-License-Identifier: MIT\r\npragma solidity ^0.8.0;\r\nimport \"./LoanLibrary.sol\";\r\nimport \"./DeFiLoan.sol\";\r\n\r\n\r\ncontract CustomDeFiLoan is DeFiLoan {\r\n\r\n    constructor() DeFiLoan() {}\r\n\r\n    // Funcie suplimentar pentru prelungirea unui mprumut\r\n    function extendLoan(uint _loanIndex, uint _extraTime) public {\r\n        require(_loanIndex < activeLoans[msg.sender].length, \"Loan does not exist\");\r\n        Loan storage loan = activeLoans[msg.sender][_loanIndex];\r\n        loan.dueDate += _extraTime;\r\n    }\r\n}\r\n",
  "sourcePath": "C:\\Users\\teodo\\OneDrive - unibuc.ro\\Desktop\\Blockchain\\Sistem-de-Imprumuturi-DeFi\\contracts\\CustomDeFiLoan.sol",
  "compiler": {
    "name": "solc",
    "version": "0.8.0+commit.c7dfd78e.Emscripten.clang"
  },
  "schemaVersion": "3.4.16",
  "updatedAt": "2025-02-04T21:55:01.530Z",
  "networkType": "ethereum",
  "devdoc": {
    "kind": "dev",
    "methods": {},
    "version": 1
  },
  "userdoc": {
    "kind": "user",
    "methods": {},
    "version": 1
  }
}