{
  "contractName": "CustomDeFiLoan",
  "abi": [
    {
      "inputs": [],
      "stateMutability": "nonpayable",
      "type": "constructor"
    },
    {
      "anonymous": false,
      "inputs": [
        {
          "indexed": true,
          "internalType": "address",
          "name": "borrower",
          "type": "address"
        },
        {
          "indexed": false,
          "internalType": "uint256",
          "name": "amount",
          "type": "uint256"
        },
        {
          "indexed": false,
          "internalType": "uint256",
          "name": "interest",
          "type": "uint256"
        },
        {
          "indexed": false,
          "internalType": "uint256",
          "name": "dueDate",
          "type": "uint256"
        },
        {
          "indexed": false,
          "internalType": "bool",
          "name": "isRepaid",
          "type": "bool"
        }
      ],
      "name": "LoanCreated",
      "type": "event"
    },
    {
      "anonymous": false,
      "inputs": [
        {
          "indexed": true,
          "internalType": "address",
          "name": "borrower",
          "type": "address"
        },
        {
          "indexed": false,
          "internalType": "uint256",
          "name": "loanIndex",
          "type": "uint256"
        }
      ],
      "name": "LoanPayed",
      "type": "event"
    },
    {
      "anonymous": false,
      "inputs": [
        {
          "indexed": true,
          "internalType": "address",
          "name": "borrower",
          "type": "address"
        },
        {
          "indexed": false,
          "internalType": "uint256",
          "name": "loanIndex",
          "type": "uint256"
        }
      ],
      "name": "LoanRepaid",
      "type": "event"
    },
    {
      "anonymous": false,
      "inputs": [
        {
          "indexed": false,
          "internalType": "address",
          "name": "owner",
          "type": "address"
        }
      ],
      "name": "OwnerAddress",
      "type": "event"
    },
    {
      "inputs": [
        {
          "internalType": "address",
          "name": "",
          "type": "address"
        },
        {
          "internalType": "uint256",
          "name": "",
          "type": "uint256"
        }
      ],
      "name": "activeLoans",
      "outputs": [
        {
          "internalType": "uint256",
          "name": "amount",
          "type": "uint256"
        },
        {
          "internalType": "uint256",
          "name": "interest",
          "type": "uint256"
        },
        {
          "internalType": "uint256",
          "name": "dueDate",
          "type": "uint256"
        },
        {
          "internalType": "address",
          "name": "borrower",
          "type": "address"
        },
        {
          "internalType": "bool",
          "name": "isRepaid",
          "type": "bool"
        }
      ],
      "stateMutability": "view",
      "type": "function",
      "constant": true
    },
    {
      "inputs": [
        {
          "internalType": "uint256",
          "name": "_amount",
          "type": "uint256"
        },
        {
          "internalType": "uint256",
          "name": "_dueDate",
          "type": "uint256"
        }
      ],
      "name": "createLoan",
      "outputs": [],
      "stateMutability": "nonpayable",
      "type": "function"
    },
    {
      "inputs": [
        {
          "internalType": "address",
          "name": "_borrower",
          "type": "address"
        }
      ],
      "name": "getActiveLoans",
      "outputs": [
        {
          "components": [
            {
              "internalType": "uint256",
              "name": "amount",
              "type": "uint256"
            },
            {
              "internalType": "uint256",
              "name": "interest",
              "type": "uint256"
            },
            {
              "internalType": "uint256",
              "name": "dueDate",
              "type": "uint256"
            },
            {
              "internalType": "address",
              "name": "borrower",
              "type": "address"
            },
            {
              "internalType": "bool",
              "name": "isRepaid",
              "type": "bool"
            }
          ],
          "internalType": "struct ILoan.Loan[]",
          "name": "",
          "type": "tuple[]"
        }
      ],
      "stateMutability": "view",
      "type": "function",
      "constant": true
    },
    {
      "inputs": [
        {
          "internalType": "address",
          "name": "_borrower",
          "type": "address"
        }
      ],
      "name": "getPaidLoans",
      "outputs": [
        {
          "components": [
            {
              "internalType": "uint256",
              "name": "amount",
              "type": "uint256"
            },
            {
              "internalType": "uint256",
              "name": "interest",
              "type": "uint256"
            },
            {
              "internalType": "uint256",
              "name": "dueDate",
              "type": "uint256"
            },
            {
              "internalType": "address",
              "name": "borrower",
              "type": "address"
            },
            {
              "internalType": "bool",
              "name": "isRepaid",
              "type": "bool"
            }
          ],
          "internalType": "struct ILoan.Loan[]",
          "name": "",
          "type": "tuple[]"
        }
      ],
      "stateMutability": "view",
      "type": "function",
      "constant": true
    },
    {
      "inputs": [],
      "name": "owner",
      "outputs": [
        {
          "internalType": "address payable",
          "name": "",
          "type": "address"
        }
      ],
      "stateMutability": "view",
      "type": "function",
      "constant": true
    },
    {
      "inputs": [
        {
          "internalType": "address",
          "name": "",
          "type": "address"
        },
        {
          "internalType": "uint256",
          "name": "",
          "type": "uint256"
        }
      ],
      "name": "paidLoans",
      "outputs": [
        {
          "internalType": "uint256",
          "name": "amount",
          "type": "uint256"
        },
        {
          "internalType": "uint256",
          "name": "interest",
          "type": "uint256"
        },
        {
          "internalType": "uint256",
          "name": "dueDate",
          "type": "uint256"
        },
        {
          "internalType": "address",
          "name": "borrower",
          "type": "address"
        },
        {
          "internalType": "bool",
          "name": "isRepaid",
          "type": "bool"
        }
      ],
      "stateMutability": "view",
      "type": "function",
      "constant": true
    },
    {
      "inputs": [
        {
          "internalType": "address",
          "name": "_borrower",
          "type": "address"
        },
        {
          "internalType": "uint256",
          "name": "_index",
          "type": "uint256"
        }
      ],
      "name": "repayLoan",
      "outputs": [],
      "stateMutability": "payable",
      "type": "function",
      "payable": true
    },
    {
      "inputs": [
        {
          "internalType": "uint256",
          "name": "_loanIndex",
          "type": "uint256"
        },
        {
          "internalType": "uint256",
          "name": "_extraTime",
          "type": "uint256"
        }
      ],
      "name": "extendLoan",
      "outputs": [],
      "stateMutability": "nonpayable",
      "type": "function"
    }
  ],
  "bytecode": "0x60806040523480156200001157600080fd5b50336000806101000a81548173ffffffffffffffffffffffffffffffffffffffff021916908373ffffffffffffffffffffffffffffffffffffffff1602179055507fc3c459f585122b8115ae62dec419cce9035dcdc5d1e953a3a6f12bb36560741360008054906101000a900473ffffffffffffffffffffffffffffffffffffffff16604051620000a39190620000c2565b60405180910390a16200013b565b620000bc81620000ff565b82525050565b6000602082019050620000d96000830184620000b1565b92915050565b600073ffffffffffffffffffffffffffffffffffffffff82169050919050565b60006200010c8262000113565b9050919050565b6000620001208262000127565b9050919050565b60006200013482620000df565b9050919050565b6113f2806200014b6000396000f3fe60806040526004361061007b5760003560e01c80638da5cb5b1161004e5780638da5cb5b1461016457806393a595f51461018f57806398cd90b5146101ab57806399635d5c146101d45761007b565b806303d1a1a11461008057806321111063146100bd578063661ca037146100fe57806388a61dc31461013b575b600080fd5b34801561008c57600080fd5b506100a760048036038101906100a29190610d57565b610215565b6040516100b491906110a1565b60405180910390f35b3480156100c957600080fd5b506100e460048036038101906100df9190610d80565b610342565b6040516100f59594939291906111cc565b60405180910390f35b34801561010a57600080fd5b5061012560048036038101906101209190610d57565b6103c2565b60405161013291906110a1565b60405180910390f35b34801561014757600080fd5b50610162600480360381019061015d9190610de5565b6104ef565b005b34801561017057600080fd5b5061017961061c565b6040516101869190611086565b60405180910390f35b6101a960048036038101906101a49190610d80565b610640565b005b3480156101b757600080fd5b506101d260048036038101906101cd9190610de5565b610a89565b005b3480156101e057600080fd5b506101fb60048036038101906101f69190610d80565b610c98565b60405161020c9594939291906111cc565b60405180910390f35b6060600160008373ffffffffffffffffffffffffffffffffffffffff1673ffffffffffffffffffffffffffffffffffffffff168152602001908152602001600020805480602002602001604051908101604052809291908181526020016000905b8282101561033757838290600052602060002090600402016040518060a00160405290816000820154815260200160018201548152602001600282015481526020016003820160009054906101000a900473ffffffffffffffffffffffffffffffffffffffff1673ffffffffffffffffffffffffffffffffffffffff1673ffffffffffffffffffffffffffffffffffffffff1681526020016003820160149054906101000a900460ff16151515158152505081526020019060010190610276565b505050509050919050565b6001602052816000526040600020818154811061035e57600080fd5b9060005260206000209060040201600091509150508060000154908060010154908060020154908060030160009054906101000a900473ffffffffffffffffffffffffffffffffffffffff16908060030160149054906101000a900460ff16905085565b6060600260008373ffffffffffffffffffffffffffffffffffffffff1673ffffffffffffffffffffffffffffffffffffffff168152602001908152602001600020805480602002602001604051908101604052809291908181526020016000905b828210156104e457838290600052602060002090600402016040518060a00160405290816000820154815260200160018201548152602001600282015481526020016003820160009054906101000a900473ffffffffffffffffffffffffffffffffffffffff1673ffffffffffffffffffffffffffffffffffffffff1673ffffffffffffffffffffffffffffffffffffffff1681526020016003820160149054906101000a900460ff16151515158152505081526020019060010190610423565b505050509050919050565b600160003373ffffffffffffffffffffffffffffffffffffffff1673ffffffffffffffffffffffffffffffffffffffff168152602001908152602001600020805490508210610573576040517f08c379a000000000000000000000000000000000000000000000000000000000815260040161056a90611123565b60405180910390fd5b6000600160003373ffffffffffffffffffffffffffffffffffffffff1673ffffffffffffffffffffffffffffffffffffffff16815260200190815260200160002083815481106105ec577f4e487b7100000000000000000000000000000000000000000000000000000000600052603260045260246000fd5b90600052602060002090600402019050818160020160008282546106109190611269565b92505081905550505050565b60008054906101000a900473ffffffffffffffffffffffffffffffffffffffff1681565b600160008373ffffffffffffffffffffffffffffffffffffffff1673ffffffffffffffffffffffffffffffffffffffff1681526020019081526020016000208054905081106106c4576040517f08c379a00000000000000000000000000000000000000000000000000000000081526004016106bb90611123565b60405180910390fd5b6000600160008473ffffffffffffffffffffffffffffffffffffffff1673ffffffffffffffffffffffffffffffffffffffff168152602001908152602001600020828154811061073d577f4e487b7100000000000000000000000000000000000000000000000000000000600052603260045260246000fd5b90600052602060002090600402019050600073__LoanLibrary___________________________63efdd7c07836000015484600101546040518363ffffffff1660e01b81526004016107909291906111a3565b60206040518083038186803b1580156107a857600080fd5b505af41580156107bc573d6000803e3d6000fd5b505050506040513d601f19601f820116820180604052508101906107e09190610dbc565b905060008183600001546107f49190611269565b9050803414610838576040517f08c379a000000000000000000000000000000000000000000000000000000000815260040161082f90611103565b60405180910390fd5b60018360030160146101000a81548160ff02191690831515021790555060008054906101000a900473ffffffffffffffffffffffffffffffffffffffff1673ffffffffffffffffffffffffffffffffffffffff166108fc839081150290604051600060405180830381858888f193505050501580156108bb573d6000803e3d6000fd5b5081341115610917573373ffffffffffffffffffffffffffffffffffffffff166108fc83346108ea91906112bf565b9081150290604051600060405180830381858888f19350505050158015610915573d6000803e3d6000fd5b505b600260008673ffffffffffffffffffffffffffffffffffffffff1673ffffffffffffffffffffffffffffffffffffffff1681526020019081526020016000208390806001815401808255809150506001900390600052602060002090600402016000909190919091506000820154816000015560018201548160010155600282015481600201556003820160009054906101000a900473ffffffffffffffffffffffffffffffffffffffff168160030160006101000a81548173ffffffffffffffffffffffffffffffffffffffff021916908373ffffffffffffffffffffffffffffffffffffffff1602179055506003820160149054906101000a900460ff168160030160146101000a81548160ff02191690831515021790555050508473ffffffffffffffffffffffffffffffffffffffff167fc200a1f31dd659e356e0f112c82558e25f49f7b0f84438691cd96f5cb355882385604051610a7a9190611143565b60405180910390a25050505050565b60008211610acc576040517f08c379a0000000000000000000000000000000000000000000000000000000008152600401610ac3906110e3565b60405180910390fd5b428111610b0e576040517f08c379a0000000000000000000000000000000000000000000000000000000008152600401610b05906110c3565b60405180910390fd5b600160003373ffffffffffffffffffffffffffffffffffffffff1673ffffffffffffffffffffffffffffffffffffffff1681526020019081526020016000206040518060a00160405280848152602001600a81526020018381526020013373ffffffffffffffffffffffffffffffffffffffff16815260200160001515815250908060018154018082558091505060019003906000526020600020906004020160009091909190915060008201518160000155602082015181600101556040820151816002015560608201518160030160006101000a81548173ffffffffffffffffffffffffffffffffffffffff021916908373ffffffffffffffffffffffffffffffffffffffff16021790555060808201518160030160146101000a81548160ff02191690831515021790555050503373ffffffffffffffffffffffffffffffffffffffff167f4e7efa62621577e2d2f3ce157441935bee772531de9e2152ced5712245b450d683600a846000604051610c8c949392919061115e565b60405180910390a25050565b60026020528160005260406000208181548110610cb457600080fd5b9060005260206000209060040201600091509150508060000154908060010154908060020154908060030160009054906101000a900473ffffffffffffffffffffffffffffffffffffffff16908060030160149054906101000a900460ff16905085565b600081359050610d278161138e565b92915050565b600081359050610d3c816113a5565b92915050565b600081519050610d51816113a5565b92915050565b600060208284031215610d6957600080fd5b6000610d7784828501610d18565b91505092915050565b60008060408385031215610d9357600080fd5b6000610da185828601610d18565b9250506020610db285828601610d2d565b9150509250929050565b600060208284031215610dce57600080fd5b6000610ddc84828501610d42565b91505092915050565b60008060408385031215610df857600080fd5b6000610e0685828601610d2d565b9250506020610e1785828601610d2d565b9150509250929050565b6000610e2d8383610ff1565b60a08301905092915050565b610e4281611305565b82525050565b610e51816112f3565b82525050565b610e60816112f3565b82525050565b6000610e718261122f565b610e7b8185611247565b9350610e868361121f565b8060005b83811015610eb7578151610e9e8882610e21565b9750610ea98361123a565b925050600181019050610e8a565b5085935050505092915050565b610ecd81611317565b82525050565b610edc81611317565b82525050565b610eeb8161134d565b82525050565b6000610efe601e83611258565b91507f4475652064617465206d75737420626520696e207468652066757475726500006000830152602082019050919050565b6000610f3e601d83611258565b91507f416d6f756e74206d7573742062652067726561746572207468616e20300000006000830152602082019050919050565b6000610f7e601e83611258565b91507f4e6f7420656e6f7567682066756e647320746f207265706179206c6f616e00006000830152602082019050919050565b6000610fbe601383611258565b91507f4c6f616e20646f6573206e6f74206578697374000000000000000000000000006000830152602082019050919050565b60a0820160008201516110076000850182611059565b50602082015161101a6020850182611059565b50604082015161102d6040850182611059565b5060608201516110406060850182610e48565b5060808201516110536080850182610ec4565b50505050565b61106281611343565b82525050565b61107181611343565b82525050565b61108081611343565b82525050565b600060208201905061109b6000830184610e39565b92915050565b600060208201905081810360008301526110bb8184610e66565b905092915050565b600060208201905081810360008301526110dc81610ef1565b9050919050565b600060208201905081810360008301526110fc81610f31565b9050919050565b6000602082019050818103600083015261111c81610f71565b9050919050565b6000602082019050818103600083015261113c81610fb1565b9050919050565b60006020820190506111586000830184611068565b92915050565b60006080820190506111736000830187611068565b6111806020830186610ee2565b61118d6040830185611068565b61119a6060830184610ed3565b95945050505050565b60006040820190506111b86000830185611077565b6111c56020830184611077565b9392505050565b600060a0820190506111e16000830188611068565b6111ee6020830187611068565b6111fb6040830186611068565b6112086060830185610e57565b6112156080830184610ed3565b9695505050505050565b6000819050602082019050919050565b600081519050919050565b6000602082019050919050565b600082825260208201905092915050565b600082825260208201905092915050565b600061127482611343565b915061127f83611343565b9250827fffffffffffffffffffffffffffffffffffffffffffffffffffffffffffffffff038211156112b4576112b361135f565b5b828201905092915050565b60006112ca82611343565b91506112d583611343565b9250828210156112e8576112e761135f565b5b828203905092915050565b60006112fe82611323565b9050919050565b600061131082611323565b9050919050565b60008115159050919050565b600073ffffffffffffffffffffffffffffffffffffffff82169050919050565b6000819050919050565b600061135882611343565b9050919050565b7f4e487b7100000000000000000000000000000000000000000000000000000000600052601160045260246000fd5b611397816112f3565b81146113a257600080fd5b50565b6113ae81611343565b81146113b957600080fd5b5056fea26469706673582212200436d4f1b4a014d6a403d82b9eefa6eb811e742844513bad76bb613face6e7bf64736f6c63430008000033",
  "immutableReferences": {},
  "source": "// SPDX-License-Identifier: MIT\r\npragma solidity ^0.8.0;\r\nimport \"./LoanLibrary.sol\";\r\nimport \"./DeFiLoan.sol\";\r\n\r\n\r\ncontract CustomDeFiLoan is DeFiLoan {\r\n\r\n    constructor() DeFiLoan() {}\r\n\r\n    // Funcie suplimentar pentru prelungirea unui mprumut\r\n    function extendLoan(uint _loanIndex, uint _extraTime) public {\r\n        require(_loanIndex < activeLoans[msg.sender].length, \"Loan does not exist\");\r\n        Loan storage loan = activeLoans[msg.sender][_loanIndex];\r\n        loan.dueDate += _extraTime;\r\n    }\r\n}\r\n",
  "sourcePath": "C:\\Users\\sumur\\Desktop\\An3\\Sistem-de-Imprumuturi-DeFi\\contracts\\CustomDeFiLoan.sol",
  "compiler": {
    "name": "solc",
    "version": "0.8.0+commit.c7dfd78e.Emscripten.clang"
  },
  "schemaVersion": "3.4.16",
  "updatedAt": "2025-02-06T00:11:05.568Z",
  "networkType": "ethereum",
  "devdoc": {
    "kind": "dev",
    "methods": {},
    "version": 1
  },
  "userdoc": {
    "kind": "user",
    "methods": {},
    "version": 1
  }
}