{
  "contractName": "CustomDeFiLoan",
  "abi": [
    {
      "inputs": [],
      "stateMutability": "nonpayable",
      "type": "constructor"
    },
    {
      "anonymous": false,
      "inputs": [
        {
          "indexed": true,
          "internalType": "address",
          "name": "borrower",
          "type": "address"
        },
        {
          "indexed": false,
          "internalType": "uint256",
          "name": "amount",
          "type": "uint256"
        },
        {
          "indexed": false,
          "internalType": "uint256",
          "name": "interest",
          "type": "uint256"
        },
        {
          "indexed": false,
          "internalType": "uint256",
          "name": "dueDate",
          "type": "uint256"
        },
        {
          "indexed": false,
          "internalType": "bool",
          "name": "isRepaid",
          "type": "bool"
        }
      ],
      "name": "LoanCreated",
      "type": "event"
    },
    {
      "anonymous": false,
      "inputs": [
        {
          "indexed": true,
          "internalType": "address",
          "name": "borrower",
          "type": "address"
        },
        {
          "indexed": false,
          "internalType": "uint256",
          "name": "loanIndex",
          "type": "uint256"
        }
      ],
      "name": "LoanRepaid",
      "type": "event"
    },
    {
      "anonymous": false,
      "inputs": [
        {
          "indexed": false,
          "internalType": "address",
          "name": "owner",
          "type": "address"
        }
      ],
      "name": "OwnerAddress",
      "type": "event"
    },
    {
      "inputs": [
        {
          "internalType": "address",
          "name": "",
          "type": "address"
        },
        {
          "internalType": "uint256",
          "name": "",
          "type": "uint256"
        }
      ],
      "name": "activeLoans",
      "outputs": [
        {
          "internalType": "uint256",
          "name": "amount",
          "type": "uint256"
        },
        {
          "internalType": "uint256",
          "name": "interest",
          "type": "uint256"
        },
        {
          "internalType": "uint256",
          "name": "dueDate",
          "type": "uint256"
        },
        {
          "internalType": "address",
          "name": "borrower",
          "type": "address"
        },
        {
          "internalType": "bool",
          "name": "isRepaid",
          "type": "bool"
        }
      ],
      "stateMutability": "view",
      "type": "function"
    },
    {
      "inputs": [
        {
          "internalType": "address",
          "name": "",
          "type": "address"
        }
      ],
      "name": "balances",
      "outputs": [
        {
          "internalType": "uint256",
          "name": "",
          "type": "uint256"
        }
      ],
      "stateMutability": "view",
      "type": "function"
    },
    {
      "inputs": [
        {
          "internalType": "uint256",
          "name": "_amount",
          "type": "uint256"
        },
        {
          "internalType": "uint256",
          "name": "_dueDate",
          "type": "uint256"
        }
      ],
      "name": "createLoan",
      "outputs": [],
      "stateMutability": "nonpayable",
      "type": "function"
    },
    {
      "inputs": [
        {
          "internalType": "address",
          "name": "_borrower",
          "type": "address"
        }
      ],
      "name": "getActiveLoans",
      "outputs": [
        {
          "components": [
            {
              "internalType": "uint256",
              "name": "amount",
              "type": "uint256"
            },
            {
              "internalType": "uint256",
              "name": "interest",
              "type": "uint256"
            },
            {
              "internalType": "uint256",
              "name": "dueDate",
              "type": "uint256"
            },
            {
              "internalType": "address",
              "name": "borrower",
              "type": "address"
            },
            {
              "internalType": "bool",
              "name": "isRepaid",
              "type": "bool"
            }
          ],
          "internalType": "struct ILoan.Loan[]",
          "name": "",
          "type": "tuple[]"
        }
      ],
      "stateMutability": "view",
      "type": "function"
    },
    {
      "inputs": [],
      "name": "getBalance",
      "outputs": [
        {
          "internalType": "uint256",
          "name": "value",
          "type": "uint256"
        }
      ],
      "stateMutability": "view",
      "type": "function"
    },
    {
      "inputs": [
        {
          "internalType": "address",
          "name": "_borrower",
          "type": "address"
        }
      ],
      "name": "getPaidLoans",
      "outputs": [
        {
          "components": [
            {
              "internalType": "uint256",
              "name": "amount",
              "type": "uint256"
            },
            {
              "internalType": "uint256",
              "name": "interest",
              "type": "uint256"
            },
            {
              "internalType": "uint256",
              "name": "dueDate",
              "type": "uint256"
            },
            {
              "internalType": "address",
              "name": "borrower",
              "type": "address"
            },
            {
              "internalType": "bool",
              "name": "isRepaid",
              "type": "bool"
            }
          ],
          "internalType": "struct ILoan.Loan[]",
          "name": "",
          "type": "tuple[]"
        }
      ],
      "stateMutability": "view",
      "type": "function"
    },
    {
      "inputs": [],
      "name": "owner",
      "outputs": [
        {
          "internalType": "address payable",
          "name": "",
          "type": "address"
        }
      ],
      "stateMutability": "view",
      "type": "function"
    },
    {
      "inputs": [
        {
          "internalType": "address",
          "name": "",
          "type": "address"
        },
        {
          "internalType": "uint256",
          "name": "",
          "type": "uint256"
        }
      ],
      "name": "paidLoans",
      "outputs": [
        {
          "internalType": "uint256",
          "name": "amount",
          "type": "uint256"
        },
        {
          "internalType": "uint256",
          "name": "interest",
          "type": "uint256"
        },
        {
          "internalType": "uint256",
          "name": "dueDate",
          "type": "uint256"
        },
        {
          "internalType": "address",
          "name": "borrower",
          "type": "address"
        },
        {
          "internalType": "bool",
          "name": "isRepaid",
          "type": "bool"
        }
      ],
      "stateMutability": "view",
      "type": "function"
    },
    {
      "inputs": [
        {
          "internalType": "address",
          "name": "_borrower",
          "type": "address"
        },
        {
          "internalType": "uint256",
          "name": "_index",
          "type": "uint256"
        }
      ],
      "name": "repayLoan",
      "outputs": [],
      "stateMutability": "payable",
      "type": "function"
    },
    {
      "inputs": [
        {
          "internalType": "uint256",
          "name": "_loanIndex",
          "type": "uint256"
        },
        {
          "internalType": "uint256",
          "name": "_extraTime",
          "type": "uint256"
        }
      ],
      "name": "extendLoan",
      "outputs": [],
      "stateMutability": "nonpayable",
      "type": "function"
    }
  ],
  "bytecode": "0x608060405234801562000010575f80fd5b50335f806101000a81548173ffffffffffffffffffffffffffffffffffffffff021916908373ffffffffffffffffffffffffffffffffffffffff1602179055507fc3c459f585122b8115ae62dec419cce9035dcdc5d1e953a3a6f12bb3656074135f8054906101000a900473ffffffffffffffffffffffffffffffffffffffff16604051620000a0919062000134565b60405180910390a16200014f565b5f73ffffffffffffffffffffffffffffffffffffffff82169050919050565b5f819050919050565b5f620000f6620000f0620000ea84620000ae565b620000cd565b620000ae565b9050919050565b5f6200010982620000d6565b9050919050565b5f6200011c82620000fd565b9050919050565b6200012e8162000110565b82525050565b5f602082019050620001495f83018462000123565b92915050565b6117a8806200015d5f395ff3fe608060405260043610610090575f3560e01c806388a61dc31161005857806388a61dc3146101b25780638da5cb5b146101da57806393a595f51461020457806398cd90b51461022057806399635d5c1461024857610090565b806303d1a1a11461009457806312065fe0146100d057806321111063146100fa57806327e235e31461013a578063661ca03714610176575b5f80fd5b34801561009f575f80fd5b506100ba60048036038101906100b59190611002565b610288565b6040516100c7919061117c565b60405180910390f35b3480156100db575f80fd5b506100e46103ae565b6040516100f191906111ab565b60405180910390f35b348015610105575f80fd5b50610120600480360381019061011b91906111ee565b6103f2565b60405161013195949392919061124a565b60405180910390f35b348015610145575f80fd5b50610160600480360381019061015b9190611002565b61046a565b60405161016d91906111ab565b60405180910390f35b348015610181575f80fd5b5061019c60048036038101906101979190611002565b61047f565b6040516101a9919061117c565b60405180910390f35b3480156101bd575f80fd5b506101d860048036038101906101d3919061129b565b6105a5565b005b3480156101e5575f80fd5b506101ee6106a4565b6040516101fb91906112f9565b60405180910390f35b61021e600480360381019061021991906111ee565b6106c7565b005b34801561022b575f80fd5b506102466004803603810190610241919061129b565b610c02565b005b348015610253575f80fd5b5061026e600480360381019061026991906111ee565b610f2c565b60405161027f95949392919061124a565b60405180910390f35b606060015f8373ffffffffffffffffffffffffffffffffffffffff1673ffffffffffffffffffffffffffffffffffffffff1681526020019081526020015f20805480602002602001604051908101604052809291908181526020015f905b828210156103a3578382905f5260205f2090600402016040518060a00160405290815f82015481526020016001820154815260200160028201548152602001600382015f9054906101000a900473ffffffffffffffffffffffffffffffffffffffff1673ffffffffffffffffffffffffffffffffffffffff1673ffffffffffffffffffffffffffffffffffffffff1681526020016003820160149054906101000a900460ff161515151581525050815260200190600101906102e6565b505050509050919050565b5f60035f3373ffffffffffffffffffffffffffffffffffffffff1673ffffffffffffffffffffffffffffffffffffffff1681526020019081526020015f2054905090565b6001602052815f5260405f20818154811061040b575f80fd5b905f5260205f2090600402015f9150915050805f015490806001015490806002015490806003015f9054906101000a900473ffffffffffffffffffffffffffffffffffffffff16908060030160149054906101000a900460ff16905085565b6003602052805f5260405f205f915090505481565b606060025f8373ffffffffffffffffffffffffffffffffffffffff1673ffffffffffffffffffffffffffffffffffffffff1681526020019081526020015f20805480602002602001604051908101604052809291908181526020015f905b8282101561059a578382905f5260205f2090600402016040518060a00160405290815f82015481526020016001820154815260200160028201548152602001600382015f9054906101000a900473ffffffffffffffffffffffffffffffffffffffff1673ffffffffffffffffffffffffffffffffffffffff1673ffffffffffffffffffffffffffffffffffffffff1681526020016003820160149054906101000a900460ff161515151581525050815260200190600101906104dd565b505050509050919050565b60015f3373ffffffffffffffffffffffffffffffffffffffff1673ffffffffffffffffffffffffffffffffffffffff1681526020019081526020015f20805490508210610627576040517f08c379a000000000000000000000000000000000000000000000000000000000815260040161061e9061136c565b60405180910390fd5b5f60015f3373ffffffffffffffffffffffffffffffffffffffff1673ffffffffffffffffffffffffffffffffffffffff1681526020019081526020015f2083815481106106775761067661138a565b5b905f5260205f209060040201905081816002015f82825461069891906113e4565b92505081905550505050565b5f8054906101000a900473ffffffffffffffffffffffffffffffffffffffff1681565b60015f8373ffffffffffffffffffffffffffffffffffffffff1673ffffffffffffffffffffffffffffffffffffffff1681526020019081526020015f20805490508110610749576040517f08c379a00000000000000000000000000000000000000000000000000000000081526004016107409061136c565b60405180910390fd5b5f60015f8473ffffffffffffffffffffffffffffffffffffffff1673ffffffffffffffffffffffffffffffffffffffff1681526020019081526020015f2082815481106107995761079861138a565b5b905f5260205f20906004020190505f73__LoanLibrary___________________________63efdd7c07835f015484600101546040518363ffffffff1660e01b81526004016107e8929190611426565b602060405180830381865af4158015610803573d5f803e3d5ffd5b505050506040513d601f19601f820116820180604052508101906108279190611461565b90505f81835f015461083991906113e4565b905080341461087d576040517f08c379a0000000000000000000000000000000000000000000000000000000008152600401610874906114d6565b60405180910390fd5b8060035f3373ffffffffffffffffffffffffffffffffffffffff1673ffffffffffffffffffffffffffffffffffffffff1681526020019081526020015f205410156108fd576040517f08c379a00000000000000000000000000000000000000000000000000000000081526004016108f490611564565b60405180910390fd5b8060035f3373ffffffffffffffffffffffffffffffffffffffff1673ffffffffffffffffffffffffffffffffffffffff1681526020019081526020015f205f8282546109499190611582565b925050819055508160035f805f9054906101000a900473ffffffffffffffffffffffffffffffffffffffff1673ffffffffffffffffffffffffffffffffffffffff1673ffffffffffffffffffffffffffffffffffffffff1681526020019081526020015f205f8282546109bc91906113e4565b92505081905550825f015460035f8773ffffffffffffffffffffffffffffffffffffffff1673ffffffffffffffffffffffffffffffffffffffff1681526020019081526020015f205f828254610a1291906113e4565b9250508190555060018360030160146101000a81548160ff0219169083151502179055505f8054906101000a900473ffffffffffffffffffffffffffffffffffffffff1673ffffffffffffffffffffffffffffffffffffffff166108fc8390811502906040515f60405180830381858888f19350505050158015610a98573d5f803e3d5ffd5b5060025f8673ffffffffffffffffffffffffffffffffffffffff1673ffffffffffffffffffffffffffffffffffffffff1681526020019081526020015f2083908060018154018082558091505060019003905f5260205f2090600402015f909190919091505f820154815f01556001820154816001015560028201548160020155600382015f9054906101000a900473ffffffffffffffffffffffffffffffffffffffff16816003015f6101000a81548173ffffffffffffffffffffffffffffffffffffffff021916908373ffffffffffffffffffffffffffffffffffffffff1602179055506003820160149054906101000a900460ff168160030160146101000a81548160ff02191690831515021790555050508473ffffffffffffffffffffffffffffffffffffffff167fc200a1f31dd659e356e0f112c82558e25f49f7b0f84438691cd96f5cb355882385604051610bf391906111ab565b60405180910390a25050505050565b5f8211610c44576040517f08c379a0000000000000000000000000000000000000000000000000000000008152600401610c3b906115ff565b60405180910390fd5b428111610c86576040517f08c379a0000000000000000000000000000000000000000000000000000000008152600401610c7d90611667565b60405180910390fd5b8160035f3373ffffffffffffffffffffffffffffffffffffffff1673ffffffffffffffffffffffffffffffffffffffff1681526020019081526020015f20541015610d06576040517f08c379a0000000000000000000000000000000000000000000000000000000008152600401610cfd906116cf565b60405180910390fd5b8160035f3373ffffffffffffffffffffffffffffffffffffffff1673ffffffffffffffffffffffffffffffffffffffff1681526020019081526020015f205f828254610d529190611582565b925050819055508160035f3073ffffffffffffffffffffffffffffffffffffffff1673ffffffffffffffffffffffffffffffffffffffff1681526020019081526020015f205f828254610da591906113e4565b9250508190555060015f3373ffffffffffffffffffffffffffffffffffffffff1673ffffffffffffffffffffffffffffffffffffffff1681526020019081526020015f206040518060a00160405280848152602001600a81526020018381526020013373ffffffffffffffffffffffffffffffffffffffff1681526020015f1515815250908060018154018082558091505060019003905f5260205f2090600402015f909190919091505f820151815f015560208201518160010155604082015181600201556060820151816003015f6101000a81548173ffffffffffffffffffffffffffffffffffffffff021916908373ffffffffffffffffffffffffffffffffffffffff16021790555060808201518160030160146101000a81548160ff02191690831515021790555050503373ffffffffffffffffffffffffffffffffffffffff167f4e7efa62621577e2d2f3ce157441935bee772531de9e2152ced5712245b450d683600a845f604051610f20949392919061172f565b60405180910390a25050565b6002602052815f5260405f208181548110610f45575f80fd5b905f5260205f2090600402015f9150915050805f015490806001015490806002015490806003015f9054906101000a900473ffffffffffffffffffffffffffffffffffffffff16908060030160149054906101000a900460ff16905085565b5f80fd5b5f73ffffffffffffffffffffffffffffffffffffffff82169050919050565b5f610fd182610fa8565b9050919050565b610fe181610fc7565b8114610feb575f80fd5b50565b5f81359050610ffc81610fd8565b92915050565b5f6020828403121561101757611016610fa4565b5b5f61102484828501610fee565b91505092915050565b5f81519050919050565b5f82825260208201905092915050565b5f819050602082019050919050565b5f819050919050565b61106881611056565b82525050565b61107781610fc7565b82525050565b5f8115159050919050565b6110918161107d565b82525050565b60a082015f8201516110ab5f85018261105f565b5060208201516110be602085018261105f565b5060408201516110d1604085018261105f565b5060608201516110e4606085018261106e565b5060808201516110f76080850182611088565b50505050565b5f6111088383611097565b60a08301905092915050565b5f602082019050919050565b5f61112a8261102d565b6111348185611037565b935061113f83611047565b805f5b8381101561116f57815161115688826110fd565b975061116183611114565b925050600181019050611142565b5085935050505092915050565b5f6020820190508181035f8301526111948184611120565b905092915050565b6111a581611056565b82525050565b5f6020820190506111be5f83018461119c565b92915050565b6111cd81611056565b81146111d7575f80fd5b50565b5f813590506111e8816111c4565b92915050565b5f806040838503121561120457611203610fa4565b5b5f61121185828601610fee565b9250506020611222858286016111da565b9150509250929050565b61123581610fc7565b82525050565b6112448161107d565b82525050565b5f60a08201905061125d5f83018861119c565b61126a602083018761119c565b611277604083018661119c565b611284606083018561122c565b611291608083018461123b565b9695505050505050565b5f80604083850312156112b1576112b0610fa4565b5b5f6112be858286016111da565b92505060206112cf858286016111da565b9150509250929050565b5f6112e382610fa8565b9050919050565b6112f3816112d9565b82525050565b5f60208201905061130c5f8301846112ea565b92915050565b5f82825260208201905092915050565b7f4c6f616e20646f6573206e6f74206578697374000000000000000000000000005f82015250565b5f611356601383611312565b915061136182611322565b602082019050919050565b5f6020820190508181035f8301526113838161134a565b9050919050565b7f4e487b71000000000000000000000000000000000000000000000000000000005f52603260045260245ffd5b7f4e487b71000000000000000000000000000000000000000000000000000000005f52601160045260245ffd5b5f6113ee82611056565b91506113f983611056565b9250828201905080821115611411576114106113b7565b5b92915050565b61142081611056565b82525050565b5f6040820190506114395f830185611417565b6114466020830184611417565b9392505050565b5f8151905061145b816111c4565b92915050565b5f6020828403121561147657611475610fa4565b5b5f6114838482850161144d565b91505092915050565b7f4e6f7420656e6f7567682066756e647320746f207265706179206c6f616e00005f82015250565b5f6114c0601e83611312565b91506114cb8261148c565b602082019050919050565b5f6020820190508181035f8301526114ed816114b4565b9050919050565b7f496e73756666696369656e742062616c616e636520666f722072657061796d655f8201527f6e742e0000000000000000000000000000000000000000000000000000000000602082015250565b5f61154e602383611312565b9150611559826114f4565b604082019050919050565b5f6020820190508181035f83015261157b81611542565b9050919050565b5f61158c82611056565b915061159783611056565b92508282039050818111156115af576115ae6113b7565b5b92915050565b7f416d6f756e74206d7573742062652067726561746572207468616e20300000005f82015250565b5f6115e9601d83611312565b91506115f4826115b5565b602082019050919050565b5f6020820190508181035f830152611616816115dd565b9050919050565b7f4475652064617465206d75737420626520696e207468652066757475726500005f82015250565b5f611651601e83611312565b915061165c8261161d565b602082019050919050565b5f6020820190508181035f83015261167e81611645565b9050919050565b7f496e73756666696369656e742062616c616e636520666f72206c6f616e2e00005f82015250565b5f6116b9601e83611312565b91506116c482611685565b602082019050919050565b5f6020820190508181035f8301526116e6816116ad565b9050919050565b5f819050919050565b5f819050919050565b5f61171961171461170f846116ed565b6116f6565b611056565b9050919050565b611729816116ff565b82525050565b5f6080820190506117425f83018761119c565b61174f6020830186611720565b61175c604083018561119c565b611769606083018461123b565b9594505050505056fea2646970667358221220a7877fd6aae93afeb58f7b1ba94c531dfd754fedebd636b7954da8396d41e8a364736f6c63430008140033",
  "immutableReferences": {},
  "source": "// SPDX-License-Identifier: MIT\r\npragma solidity ^0.8.0;\r\nimport \"./LoanLibrary.sol\";\r\nimport \"./DeFiLoan.sol\";\r\n\r\n\r\ncontract CustomDeFiLoan is DeFiLoan {\r\n\r\n    constructor() DeFiLoan() {}\r\n\r\n    // Funcie suplimentar pentru prelungirea unui mprumut\r\n    function extendLoan(uint _loanIndex, uint _extraTime) public {\r\n        require(_loanIndex < activeLoans[msg.sender].length, \"Loan does not exist\");\r\n        Loan storage loan = activeLoans[msg.sender][_loanIndex];\r\n        loan.dueDate += _extraTime;\r\n    }\r\n}\r\n",
  "sourcePath": "C:\\Users\\sumur\\Desktop\\An3\\Sistem-de-Imprumuturi-DeFi\\contracts\\CustomDeFiLoan.sol",
  "compiler": {
    "name": "solc",
    "version": "0.8.20+commit.a1b79de6.Emscripten.clang"
  },
  "schemaVersion": "3.4.16",
  "updatedAt": "2025-02-06T04:47:00.823Z",
  "devdoc": {
    "kind": "dev",
    "methods": {},
    "version": 1
  },
  "userdoc": {
    "kind": "user",
    "methods": {},
    "version": 1
  }
}