{
  "contractName": "DeFiLoan",
  "abi": [
    {
      "inputs": [],
      "payable": false,
      "stateMutability": "nonpayable",
      "type": "constructor"
    },
    {
      "anonymous": false,
      "inputs": [
        {
          "indexed": true,
          "internalType": "address",
          "name": "borrower",
          "type": "address"
        },
        {
          "indexed": false,
          "internalType": "uint256",
          "name": "amount",
          "type": "uint256"
        },
        {
          "indexed": false,
          "internalType": "uint256",
          "name": "interest",
          "type": "uint256"
        },
        {
          "indexed": false,
          "internalType": "uint256",
          "name": "dueDate",
          "type": "uint256"
        }
      ],
      "name": "LoanCreated",
      "type": "event"
    },
    {
      "anonymous": false,
      "inputs": [
        {
          "indexed": true,
          "internalType": "address",
          "name": "borrower",
          "type": "address"
        },
        {
          "indexed": false,
          "internalType": "uint256",
          "name": "loanIndex",
          "type": "uint256"
        }
      ],
      "name": "LoanRepaid",
      "type": "event"
    },
    {
      "anonymous": false,
      "inputs": [
        {
          "indexed": false,
          "internalType": "address",
          "name": "owner",
          "type": "address"
        }
      ],
      "name": "OwnerAddress",
      "type": "event"
    },
    {
      "constant": true,
      "inputs": [
        {
          "internalType": "address",
          "name": "",
          "type": "address"
        },
        {
          "internalType": "uint256",
          "name": "",
          "type": "uint256"
        }
      ],
      "name": "activeLoans",
      "outputs": [
        {
          "internalType": "uint256",
          "name": "amount",
          "type": "uint256"
        },
        {
          "internalType": "uint256",
          "name": "interest",
          "type": "uint256"
        },
        {
          "internalType": "uint256",
          "name": "dueDate",
          "type": "uint256"
        },
        {
          "internalType": "address",
          "name": "borrower",
          "type": "address"
        },
        {
          "internalType": "bool",
          "name": "isRepaid",
          "type": "bool"
        }
      ],
      "payable": false,
      "stateMutability": "view",
      "type": "function"
    },
    {
      "constant": true,
      "inputs": [],
      "name": "owner",
      "outputs": [
        {
          "internalType": "address",
          "name": "",
          "type": "address"
        }
      ],
      "payable": false,
      "stateMutability": "view",
      "type": "function"
    },
    {
      "constant": true,
      "inputs": [
        {
          "internalType": "address",
          "name": "",
          "type": "address"
        },
        {
          "internalType": "uint256",
          "name": "",
          "type": "uint256"
        }
      ],
      "name": "paidLoans",
      "outputs": [
        {
          "internalType": "uint256",
          "name": "amount",
          "type": "uint256"
        },
        {
          "internalType": "uint256",
          "name": "interest",
          "type": "uint256"
        },
        {
          "internalType": "uint256",
          "name": "dueDate",
          "type": "uint256"
        },
        {
          "internalType": "address",
          "name": "borrower",
          "type": "address"
        },
        {
          "internalType": "bool",
          "name": "isRepaid",
          "type": "bool"
        }
      ],
      "payable": false,
      "stateMutability": "view",
      "type": "function"
    },
    {
      "constant": false,
      "inputs": [
        {
          "internalType": "uint256",
          "name": "_amount",
          "type": "uint256"
        },
        {
          "internalType": "uint256",
          "name": "_interest",
          "type": "uint256"
        },
        {
          "internalType": "uint256",
          "name": "_dueDate",
          "type": "uint256"
        }
      ],
      "name": "createLoan",
      "outputs": [],
      "payable": false,
      "stateMutability": "nonpayable",
      "type": "function"
    },
    {
      "constant": true,
      "inputs": [
        {
          "internalType": "address",
          "name": "_borrower",
          "type": "address"
        }
      ],
      "name": "getLoans",
      "outputs": [
        {
          "components": [
            {
              "internalType": "uint256",
              "name": "amount",
              "type": "uint256"
            },
            {
              "internalType": "uint256",
              "name": "interest",
              "type": "uint256"
            },
            {
              "internalType": "uint256",
              "name": "dueDate",
              "type": "uint256"
            },
            {
              "internalType": "address",
              "name": "borrower",
              "type": "address"
            },
            {
              "internalType": "bool",
              "name": "isRepaid",
              "type": "bool"
            }
          ],
          "internalType": "struct DeFiLoan.Loan[]",
          "name": "",
          "type": "tuple[]"
        }
      ],
      "payable": false,
      "stateMutability": "view",
      "type": "function"
    },
    {
      "constant": false,
      "inputs": [
        {
          "internalType": "address",
          "name": "borrower",
          "type": "address"
        },
        {
          "internalType": "uint256",
          "name": "index",
          "type": "uint256"
        }
      ],
      "name": "repayLoan",
      "outputs": [],
      "payable": true,
      "stateMutability": "payable",
      "type": "function"
    }
  ],
  "bytecode": "0x60806040523480156200001157600080fd5b50336000806101000a81548173ffffffffffffffffffffffffffffffffffffffff021916908373ffffffffffffffffffffffffffffffffffffffff1602179055507fc3c459f585122b8115ae62dec419cce9035dcdc5d1e953a3a6f12bb3656074136000809054906101000a900473ffffffffffffffffffffffffffffffffffffffff16604051620000a49190620002b7565b60405180910390a1620000c260056009601b620000c860201b60201c565b6200034f565b600160008060009054906101000a900473ffffffffffffffffffffffffffffffffffffffff1673ffffffffffffffffffffffffffffffffffffffff1673ffffffffffffffffffffffffffffffffffffffff1681526020019081526020016000206040518060a001604052808581526020018481526020018381526020016000809054906101000a900473ffffffffffffffffffffffffffffffffffffffff1673ffffffffffffffffffffffffffffffffffffffff168152602001600015158152509080600181540180825580915050906001820390600052602060002090600402016000909192909190915060008201518160000155602082015181600101556040820151816002015560608201518160030160006101000a81548173ffffffffffffffffffffffffffffffffffffffff021916908373ffffffffffffffffffffffffffffffffffffffff16021790555060808201518160030160146101000a81548160ff0219169083151502179055505050503373ffffffffffffffffffffffffffffffffffffffff167f1804eb76dc9809be7ef188388aa1aeb765881fd848377be891234e5c584345fe8484846040516200028893929190620002d4565b60405180910390a2505050565b620002a08162000311565b82525050565b620002b18162000345565b82525050565b6000602082019050620002ce600083018462000295565b92915050565b6000606082019050620002eb6000830186620002a6565b620002fa6020830185620002a6565b620003096040830184620002a6565b949350505050565b60006200031e8262000325565b9050919050565b600073ffffffffffffffffffffffffffffffffffffffff82169050919050565b6000819050919050565b610bbb806200035f6000396000f3fe6080604052600436106100555760003560e01c8063211110631461005a5780638da5cb5b1461009b578063904b513b146100c657806393a595f5146100ef57806399635d5c1461010b578063d988ef201461014c575b600080fd5b34801561006657600080fd5b50610081600480360361007c919081019061083f565b610189565b604051610092959493929190610a76565b60405180910390f35b3480156100a757600080fd5b506100b0610206565b6040516100bd9190610a02565b60405180910390f35b3480156100d257600080fd5b506100ed60048036036100e8919081019061087b565b61022b565b005b6101096004803603610104919081019061083f565b6103f6565b005b34801561011757600080fd5b50610132600480360361012d919081019061083f565b610642565b604051610143959493929190610a76565b60405180910390f35b34801561015857600080fd5b50610173600480360361016e9190810190610816565b6106bf565b6040516101809190610a1d565b60405180910390f35b600160205281600052604060002081815481106101a257fe5b9060005260206000209060040201600091509150508060000154908060010154908060020154908060030160009054906101000a900473ffffffffffffffffffffffffffffffffffffffff16908060030160149054906101000a900460ff16905085565b6000809054906101000a900473ffffffffffffffffffffffffffffffffffffffff1681565b600160008060009054906101000a900473ffffffffffffffffffffffffffffffffffffffff1673ffffffffffffffffffffffffffffffffffffffff1673ffffffffffffffffffffffffffffffffffffffff1681526020019081526020016000206040518060a001604052808581526020018481526020018381526020016000809054906101000a900473ffffffffffffffffffffffffffffffffffffffff1673ffffffffffffffffffffffffffffffffffffffff168152602001600015158152509080600181540180825580915050906001820390600052602060002090600402016000909192909190915060008201518160000155602082015181600101556040820151816002015560608201518160030160006101000a81548173ffffffffffffffffffffffffffffffffffffffff021916908373ffffffffffffffffffffffffffffffffffffffff16021790555060808201518160030160146101000a81548160ff0219169083151502179055505050503373ffffffffffffffffffffffffffffffffffffffff167f1804eb76dc9809be7ef188388aa1aeb765881fd848377be891234e5c584345fe8484846040516103e993929190610a3f565b60405180910390a2505050565b6000600160008473ffffffffffffffffffffffffffffffffffffffff1673ffffffffffffffffffffffffffffffffffffffff168152602001908152602001600020828154811061044257fe5b9060005260206000209060040201905060018160030160146101000a81548160ff021916908315150217905550600260008473ffffffffffffffffffffffffffffffffffffffff1673ffffffffffffffffffffffffffffffffffffffff16815260200190815260200160002081908060018154018082558091505090600182039060005260206000209060040201600090919290919091506000820154816000015560018201548160010155600282015481600201556003820160009054906101000a900473ffffffffffffffffffffffffffffffffffffffff168160030160006101000a81548173ffffffffffffffffffffffffffffffffffffffff021916908373ffffffffffffffffffffffffffffffffffffffff1602179055506003820160149054906101000a900460ff168160030160146101000a81548160ff021916908315150217905550505050600160008473ffffffffffffffffffffffffffffffffffffffff1673ffffffffffffffffffffffffffffffffffffffff16815260200190815260200160002082815481106105d957fe5b9060005260206000209060040201600080820160009055600182016000905560028201600090556003820160006101000a81549073ffffffffffffffffffffffffffffffffffffffff02191690556003820160146101000a81549060ff02191690555050505050565b6002602052816000526040600020818154811061065b57fe5b9060005260206000209060040201600091509150508060000154908060010154908060020154908060030160009054906101000a900473ffffffffffffffffffffffffffffffffffffffff16908060030160149054906101000a900460ff16905085565b6060600160008373ffffffffffffffffffffffffffffffffffffffff1673ffffffffffffffffffffffffffffffffffffffff168152602001908152602001600020805480602002602001604051908101604052809291908181526020016000905b828210156107e157838290600052602060002090600402016040518060a00160405290816000820154815260200160018201548152602001600282015481526020016003820160009054906101000a900473ffffffffffffffffffffffffffffffffffffffff1673ffffffffffffffffffffffffffffffffffffffff1673ffffffffffffffffffffffffffffffffffffffff1681526020016003820160149054906101000a900460ff16151515158152505081526020019060010190610720565b505050509050919050565b6000813590506107fb81610b4a565b92915050565b60008135905061081081610b61565b92915050565b60006020828403121561082857600080fd5b6000610836848285016107ec565b91505092915050565b6000806040838503121561085257600080fd5b6000610860858286016107ec565b925050602061087185828601610801565b9150509250929050565b60008060006060848603121561089057600080fd5b600061089e86828701610801565b93505060206108af86828701610801565b92505060406108c086828701610801565b9150509250925092565b60006108d6838361097c565b60a08301905092915050565b6108eb81610b02565b82525050565b6108fa81610b02565b82525050565b600061090b82610ad9565b6109158185610af1565b935061092083610ac9565b8060005b8381101561095157815161093888826108ca565b975061094383610ae4565b925050600181019050610924565b5085935050505092915050565b61096781610b14565b82525050565b61097681610b14565b82525050565b60a08201600082015161099260008501826109e4565b5060208201516109a560208501826109e4565b5060408201516109b860408501826109e4565b5060608201516109cb60608501826108e2565b5060808201516109de608085018261095e565b50505050565b6109ed81610b40565b82525050565b6109fc81610b40565b82525050565b6000602082019050610a1760008301846108f1565b92915050565b60006020820190508181036000830152610a378184610900565b905092915050565b6000606082019050610a5460008301866109f3565b610a6160208301856109f3565b610a6e60408301846109f3565b949350505050565b600060a082019050610a8b60008301886109f3565b610a9860208301876109f3565b610aa560408301866109f3565b610ab260608301856108f1565b610abf608083018461096d565b9695505050505050565b6000819050602082019050919050565b600081519050919050565b6000602082019050919050565b600082825260208201905092915050565b6000610b0d82610b20565b9050919050565b60008115159050919050565b600073ffffffffffffffffffffffffffffffffffffffff82169050919050565b6000819050919050565b610b5381610b02565b8114610b5e57600080fd5b50565b610b6a81610b40565b8114610b7557600080fd5b5056fea365627a7a7231582023a1a3588f605c6fc85bfd15b8c2ea5acfb1c334dd6008aee773e4d907fda4d56c6578706572696d656e74616cf564736f6c63430005100040",
  "source": "pragma solidity ^0.5.0;\r\npragma experimental ABIEncoderV2;\r\n\r\ncontract DeFiLoan {\r\n\r\n    struct Loan {\r\n        uint amount;\r\n        uint interest; //dobanda\r\n        uint dueDate;\r\n        address borrower;\r\n        bool isRepaid; // imprumutul a fosr returnat complet, adica tot cu dobanda\r\n    }\r\n\r\n    address public owner;\r\n    mapping(address => Loan[]) public activeLoans;\r\n    mapping(address => Loan[]) public paidLoans;\r\n\r\n    event LoanCreated(address indexed borrower, uint amount, uint interest, uint dueDate);\r\n    event LoanRepaid(address indexed borrower, uint loanIndex);\r\n    event OwnerAddress(address owner);\r\n\r\n    modifier onlyOwner() {\r\n        require(msg.sender == owner, \"Not the owner\");\r\n        _;\r\n    }\r\n\r\n    constructor() public {\r\n        owner = msg.sender; //adresa celui care a creat contractul\r\n        emit OwnerAddress(owner);\r\n        createLoan(5, 9, 27);\r\n    }\r\n\r\n    //adauga un nou imprumut in lista unui utilizator\r\n    function createLoan(uint _amount, uint _interest, uint _dueDate) public {\r\n        ///require(_amount > 0, \"Amount must be greater than 0\");\r\n        ///require(_dueDate > block.timestamp, \"Due date must be in the future\");\r\n\r\n        activeLoans[owner].push(Loan({\r\n            amount: _amount,\r\n            interest: _interest,\r\n            dueDate: _dueDate,\r\n            borrower: owner,\r\n            isRepaid: false\r\n        }));\r\n\r\n        emit LoanCreated(msg.sender, _amount, _interest, _dueDate);\r\n    }\r\n\r\n    //afiseaza toate imprumuturile unui utilizator\r\n    function getLoans(address _borrower) external view returns (Loan[] memory) {\r\n        return activeLoans[_borrower];\r\n    }\r\n\r\n    //permite rambursarea unui anumit imprumut\r\n    function repayLoan(address borrower, uint256 index) public payable {\r\n        //require(index < activeLoans[borrower].length, \"Loan does not exist\");\r\n    \r\n        Loan storage loan = activeLoans[borrower][index];\r\n        //uint256 totalAmount = loan.amount + loan.interest;\r\n    \r\n        //require(msg.value >= totalAmount, \"Not enough funds to repay loan\");\r\n    \r\n        // Marcare ca rambursat\r\n        loan.isRepaid = true;\r\n    \r\n        // Mută împrumutul în lista de împrumuturi plătite\r\n        paidLoans[borrower].push(loan);\r\n\r\n        // Șterge împrumutul din activeLoans\r\n        delete activeLoans[borrower][index];\r\n    }\r\n\r\n    /*\r\n    function withdrawFunds() public onlyOwner {\r\n        // Transfer ETH către proprietar\r\n    }\r\n\r\n    function calculateInterest(uint _amount, uint _rate) public pure returns (uint) {\r\n        return (_amount * _rate) / 100;\r\n    }\r\n    */\r\n}",
  "sourcePath": "C:\\Users\\teodo\\OneDrive - unibuc.ro\\Desktop\\Blockchain\\Sistem-de-Imprumuturi-DeFi\\contracts\\DeFiLoan.sol",
  "compiler": {
    "name": "solc",
    "version": "0.5.16+commit.9c3226ce.Emscripten.clang"
  },
  "schemaVersion": "3.4.16",
  "updatedAt": "2025-02-04T09:19:39.613Z",
  "networkType": "ethereum",
  "devdoc": {
    "methods": {}
  },
  "userdoc": {
    "methods": {}
  }
}