{
  "contractName": "DeFiLoan",
  "abi": [
    {
      "inputs": [],
      "stateMutability": "nonpayable",
      "type": "constructor"
    },
    {
      "anonymous": false,
      "inputs": [
        {
          "indexed": true,
          "internalType": "address",
          "name": "borrower",
          "type": "address"
        },
        {
          "indexed": false,
          "internalType": "uint256",
          "name": "amount",
          "type": "uint256"
        },
        {
          "indexed": false,
          "internalType": "uint256",
          "name": "interest",
          "type": "uint256"
        },
        {
          "indexed": false,
          "internalType": "uint256",
          "name": "dueDate",
          "type": "uint256"
        },
        {
          "indexed": false,
          "internalType": "bool",
          "name": "isRepaid",
          "type": "bool"
        }
      ],
      "name": "LoanCreated",
      "type": "event"
    },
    {
      "anonymous": false,
      "inputs": [
        {
          "indexed": true,
          "internalType": "address",
          "name": "borrower",
          "type": "address"
        },
        {
          "indexed": false,
          "internalType": "uint256",
          "name": "loanIndex",
          "type": "uint256"
        }
      ],
      "name": "LoanRepaid",
      "type": "event"
    },
    {
      "anonymous": false,
      "inputs": [
        {
          "indexed": false,
          "internalType": "address",
          "name": "owner",
          "type": "address"
        }
      ],
      "name": "OwnerAddress",
      "type": "event"
    },
    {
      "inputs": [
        {
          "internalType": "address",
          "name": "",
          "type": "address"
        },
        {
          "internalType": "uint256",
          "name": "",
          "type": "uint256"
        }
      ],
      "name": "activeLoans",
      "outputs": [
        {
          "internalType": "uint256",
          "name": "amount",
          "type": "uint256"
        },
        {
          "internalType": "uint256",
          "name": "interest",
          "type": "uint256"
        },
        {
          "internalType": "uint256",
          "name": "dueDate",
          "type": "uint256"
        },
        {
          "internalType": "address",
          "name": "borrower",
          "type": "address"
        },
        {
          "internalType": "bool",
          "name": "isRepaid",
          "type": "bool"
        }
      ],
      "stateMutability": "view",
      "type": "function",
      "constant": true
    },
    {
      "inputs": [
        {
          "internalType": "address",
          "name": "",
          "type": "address"
        }
      ],
      "name": "balances",
      "outputs": [
        {
          "internalType": "uint256",
          "name": "",
          "type": "uint256"
        }
      ],
      "stateMutability": "view",
      "type": "function",
      "constant": true
    },
    {
      "inputs": [],
      "name": "owner",
      "outputs": [
        {
          "internalType": "address payable",
          "name": "",
          "type": "address"
        }
      ],
      "stateMutability": "view",
      "type": "function",
      "constant": true
    },
    {
      "inputs": [
        {
          "internalType": "address",
          "name": "",
          "type": "address"
        },
        {
          "internalType": "uint256",
          "name": "",
          "type": "uint256"
        }
      ],
      "name": "paidLoans",
      "outputs": [
        {
          "internalType": "uint256",
          "name": "amount",
          "type": "uint256"
        },
        {
          "internalType": "uint256",
          "name": "interest",
          "type": "uint256"
        },
        {
          "internalType": "uint256",
          "name": "dueDate",
          "type": "uint256"
        },
        {
          "internalType": "address",
          "name": "borrower",
          "type": "address"
        },
        {
          "internalType": "bool",
          "name": "isRepaid",
          "type": "bool"
        }
      ],
      "stateMutability": "view",
      "type": "function",
      "constant": true
    },
    {
      "inputs": [],
      "name": "getBalance",
      "outputs": [
        {
          "internalType": "uint256",
          "name": "value",
          "type": "uint256"
        }
      ],
      "stateMutability": "view",
      "type": "function",
      "constant": true
    },
    {
      "inputs": [
        {
          "internalType": "uint256",
          "name": "_amount",
          "type": "uint256"
        },
        {
          "internalType": "uint256",
          "name": "_dueDate",
          "type": "uint256"
        }
      ],
      "name": "createLoan",
      "outputs": [],
      "stateMutability": "nonpayable",
      "type": "function"
    },
    {
      "inputs": [
        {
          "internalType": "address",
          "name": "_borrower",
          "type": "address"
        }
      ],
      "name": "getActiveLoans",
      "outputs": [
        {
          "components": [
            {
              "internalType": "uint256",
              "name": "amount",
              "type": "uint256"
            },
            {
              "internalType": "uint256",
              "name": "interest",
              "type": "uint256"
            },
            {
              "internalType": "uint256",
              "name": "dueDate",
              "type": "uint256"
            },
            {
              "internalType": "address",
              "name": "borrower",
              "type": "address"
            },
            {
              "internalType": "bool",
              "name": "isRepaid",
              "type": "bool"
            }
          ],
          "internalType": "struct ILoan.Loan[]",
          "name": "",
          "type": "tuple[]"
        }
      ],
      "stateMutability": "view",
      "type": "function",
      "constant": true
    },
    {
      "inputs": [
        {
          "internalType": "address",
          "name": "_borrower",
          "type": "address"
        }
      ],
      "name": "getPaidLoans",
      "outputs": [
        {
          "components": [
            {
              "internalType": "uint256",
              "name": "amount",
              "type": "uint256"
            },
            {
              "internalType": "uint256",
              "name": "interest",
              "type": "uint256"
            },
            {
              "internalType": "uint256",
              "name": "dueDate",
              "type": "uint256"
            },
            {
              "internalType": "address",
              "name": "borrower",
              "type": "address"
            },
            {
              "internalType": "bool",
              "name": "isRepaid",
              "type": "bool"
            }
          ],
          "internalType": "struct ILoan.Loan[]",
          "name": "",
          "type": "tuple[]"
        }
      ],
      "stateMutability": "view",
      "type": "function",
      "constant": true
    },
    {
      "inputs": [
        {
          "internalType": "address",
          "name": "_borrower",
          "type": "address"
        },
        {
          "internalType": "uint256",
          "name": "_index",
          "type": "uint256"
        }
      ],
      "name": "repayLoan",
      "outputs": [],
      "stateMutability": "payable",
      "type": "function",
      "payable": true
    }
  ],
  "bytecode": "0x60806040523480156200001157600080fd5b50336000806101000a81548173ffffffffffffffffffffffffffffffffffffffff021916908373ffffffffffffffffffffffffffffffffffffffff1602179055507fc3c459f585122b8115ae62dec419cce9035dcdc5d1e953a3a6f12bb36560741360008054906101000a900473ffffffffffffffffffffffffffffffffffffffff16604051620000a391906200013c565b60405180910390a162000159565b600073ffffffffffffffffffffffffffffffffffffffff82169050919050565b6000819050919050565b6000620000fc620000f6620000f084620000b1565b620000d1565b620000b1565b9050919050565b60006200011082620000db565b9050919050565b6000620001248262000103565b9050919050565b620001368162000117565b82525050565b60006020820190506200015360008301846200012b565b92915050565b61132080620001696000396000f3fe6080604052600436106100865760003560e01c8063661ca03711610059578063661ca037146101715780638da5cb5b146101ae57806393a595f5146101d957806398cd90b5146101f557806399635d5c1461021e57610086565b806303d1a1a11461008b57806312065fe0146100c857806321111063146100f357806327e235e314610134575b600080fd5b34801561009757600080fd5b506100b260048036038101906100ad9190610c67565b61025f565b6040516100bf9190610dee565b60405180910390f35b3480156100d457600080fd5b506100dd61038c565b6040516100ea9190610e1f565b60405180910390f35b3480156100ff57600080fd5b5061011a60048036038101906101159190610e66565b6103d3565b60405161012b959493929190610ec4565b60405180910390f35b34801561014057600080fd5b5061015b60048036038101906101569190610c67565b610453565b6040516101689190610e1f565b60405180910390f35b34801561017d57600080fd5b5061019860048036038101906101939190610c67565b61046b565b6040516101a59190610dee565b60405180910390f35b3480156101ba57600080fd5b506101c3610598565b6040516101d09190610f38565b60405180910390f35b6101f360048036038101906101ee9190610e66565b6105bc565b005b34801561020157600080fd5b5061021c60048036038101906102179190610f53565b610975565b005b34801561022a57600080fd5b5061024560048036038101906102409190610e66565b610b84565b604051610256959493929190610ec4565b60405180910390f35b6060600160008373ffffffffffffffffffffffffffffffffffffffff1673ffffffffffffffffffffffffffffffffffffffff168152602001908152602001600020805480602002602001604051908101604052809291908181526020016000905b8282101561038157838290600052602060002090600402016040518060a00160405290816000820154815260200160018201548152602001600282015481526020016003820160009054906101000a900473ffffffffffffffffffffffffffffffffffffffff1673ffffffffffffffffffffffffffffffffffffffff1673ffffffffffffffffffffffffffffffffffffffff1681526020016003820160149054906101000a900460ff161515151581525050815260200190600101906102c0565b505050509050919050565b6000600360003373ffffffffffffffffffffffffffffffffffffffff1673ffffffffffffffffffffffffffffffffffffffff16815260200190815260200160002054905090565b600160205281600052604060002081815481106103ef57600080fd5b9060005260206000209060040201600091509150508060000154908060010154908060020154908060030160009054906101000a900473ffffffffffffffffffffffffffffffffffffffff16908060030160149054906101000a900460ff16905085565b60036020528060005260406000206000915090505481565b6060600260008373ffffffffffffffffffffffffffffffffffffffff1673ffffffffffffffffffffffffffffffffffffffff168152602001908152602001600020805480602002602001604051908101604052809291908181526020016000905b8282101561058d57838290600052602060002090600402016040518060a00160405290816000820154815260200160018201548152602001600282015481526020016003820160009054906101000a900473ffffffffffffffffffffffffffffffffffffffff1673ffffffffffffffffffffffffffffffffffffffff1673ffffffffffffffffffffffffffffffffffffffff1681526020016003820160149054906101000a900460ff161515151581525050815260200190600101906104cc565b505050509050919050565b60008054906101000a900473ffffffffffffffffffffffffffffffffffffffff1681565b600160008373ffffffffffffffffffffffffffffffffffffffff1673ffffffffffffffffffffffffffffffffffffffff168152602001908152602001600020805490508110610640576040517f08c379a000000000000000000000000000000000000000000000000000000000815260040161063790610ff0565b60405180910390fd5b6000600160008473ffffffffffffffffffffffffffffffffffffffff1673ffffffffffffffffffffffffffffffffffffffff168152602001908152602001600020828154811061069357610692611010565b5b90600052602060002090600402019050600073__LoanLibrary___________________________63efdd7c07836000015484600101546040518363ffffffff1660e01b81526004016106e692919061104e565b602060405180830381865af4158015610703573d6000803e3d6000fd5b505050506040513d601f19601f82011682018060405250810190610727919061108c565b9050600081836000015461073b91906110e8565b905080341461077f576040517f08c379a000000000000000000000000000000000000000000000000000000000815260040161077690611168565b60405180910390fd5b60018360030160146101000a81548160ff02191690831515021790555060008054906101000a900473ffffffffffffffffffffffffffffffffffffffff1673ffffffffffffffffffffffffffffffffffffffff166108fc839081150290604051600060405180830381858888f19350505050158015610802573d6000803e3d6000fd5b50600260008673ffffffffffffffffffffffffffffffffffffffff1673ffffffffffffffffffffffffffffffffffffffff1681526020019081526020016000208390806001815401808255809150506001900390600052602060002090600402016000909190919091506000820154816000015560018201548160010155600282015481600201556003820160009054906101000a900473ffffffffffffffffffffffffffffffffffffffff168160030160006101000a81548173ffffffffffffffffffffffffffffffffffffffff021916908373ffffffffffffffffffffffffffffffffffffffff1602179055506003820160149054906101000a900460ff168160030160146101000a81548160ff02191690831515021790555050508473ffffffffffffffffffffffffffffffffffffffff167fc200a1f31dd659e356e0f112c82558e25f49f7b0f84438691cd96f5cb3558823856040516109669190610e1f565b60405180910390a25050505050565b600082116109b8576040517f08c379a00000000000000000000000000000000000000000000000000000000081526004016109af906111d4565b60405180910390fd5b4281116109fa576040517f08c379a00000000000000000000000000000000000000000000000000000000081526004016109f190611240565b60405180910390fd5b600160003373ffffffffffffffffffffffffffffffffffffffff1673ffffffffffffffffffffffffffffffffffffffff1681526020019081526020016000206040518060a00160405280848152602001600a81526020018381526020013373ffffffffffffffffffffffffffffffffffffffff16815260200160001515815250908060018154018082558091505060019003906000526020600020906004020160009091909190915060008201518160000155602082015181600101556040820151816002015560608201518160030160006101000a81548173ffffffffffffffffffffffffffffffffffffffff021916908373ffffffffffffffffffffffffffffffffffffffff16021790555060808201518160030160146101000a81548160ff02191690831515021790555050503373ffffffffffffffffffffffffffffffffffffffff167f4e7efa62621577e2d2f3ce157441935bee772531de9e2152ced5712245b450d683600a846000604051610b7894939291906112a5565b60405180910390a25050565b60026020528160005260406000208181548110610ba057600080fd5b9060005260206000209060040201600091509150508060000154908060010154908060020154908060030160009054906101000a900473ffffffffffffffffffffffffffffffffffffffff16908060030160149054906101000a900460ff16905085565b600080fd5b600073ffffffffffffffffffffffffffffffffffffffff82169050919050565b6000610c3482610c09565b9050919050565b610c4481610c29565b8114610c4f57600080fd5b50565b600081359050610c6181610c3b565b92915050565b600060208284031215610c7d57610c7c610c04565b5b6000610c8b84828501610c52565b91505092915050565b600081519050919050565b600082825260208201905092915050565b6000819050602082019050919050565b6000819050919050565b610cd381610cc0565b82525050565b610ce281610c29565b82525050565b60008115159050919050565b610cfd81610ce8565b82525050565b60a082016000820151610d196000850182610cca565b506020820151610d2c6020850182610cca565b506040820151610d3f6040850182610cca565b506060820151610d526060850182610cd9565b506080820151610d656080850182610cf4565b50505050565b6000610d778383610d03565b60a08301905092915050565b6000602082019050919050565b6000610d9b82610c94565b610da58185610c9f565b9350610db083610cb0565b8060005b83811015610de1578151610dc88882610d6b565b9750610dd383610d83565b925050600181019050610db4565b5085935050505092915050565b60006020820190508181036000830152610e088184610d90565b905092915050565b610e1981610cc0565b82525050565b6000602082019050610e346000830184610e10565b92915050565b610e4381610cc0565b8114610e4e57600080fd5b50565b600081359050610e6081610e3a565b92915050565b60008060408385031215610e7d57610e7c610c04565b5b6000610e8b85828601610c52565b9250506020610e9c85828601610e51565b9150509250929050565b610eaf81610c29565b82525050565b610ebe81610ce8565b82525050565b600060a082019050610ed96000830188610e10565b610ee66020830187610e10565b610ef36040830186610e10565b610f006060830185610ea6565b610f0d6080830184610eb5565b9695505050505050565b6000610f2282610c09565b9050919050565b610f3281610f17565b82525050565b6000602082019050610f4d6000830184610f29565b92915050565b60008060408385031215610f6a57610f69610c04565b5b6000610f7885828601610e51565b9250506020610f8985828601610e51565b9150509250929050565b600082825260208201905092915050565b7f4c6f616e20646f6573206e6f7420657869737400000000000000000000000000600082015250565b6000610fda601383610f93565b9150610fe582610fa4565b602082019050919050565b6000602082019050818103600083015261100981610fcd565b9050919050565b7f4e487b7100000000000000000000000000000000000000000000000000000000600052603260045260246000fd5b61104881610cc0565b82525050565b6000604082019050611063600083018561103f565b611070602083018461103f565b9392505050565b60008151905061108681610e3a565b92915050565b6000602082840312156110a2576110a1610c04565b5b60006110b084828501611077565b91505092915050565b7f4e487b7100000000000000000000000000000000000000000000000000000000600052601160045260246000fd5b60006110f382610cc0565b91506110fe83610cc0565b9250828201905080821115611116576111156110b9565b5b92915050565b7f4e6f7420656e6f7567682066756e647320746f207265706179206c6f616e0000600082015250565b6000611152601e83610f93565b915061115d8261111c565b602082019050919050565b6000602082019050818103600083015261118181611145565b9050919050565b7f416d6f756e74206d7573742062652067726561746572207468616e2030000000600082015250565b60006111be601d83610f93565b91506111c982611188565b602082019050919050565b600060208201905081810360008301526111ed816111b1565b9050919050565b7f4475652064617465206d75737420626520696e20746865206675747572650000600082015250565b600061122a601e83610f93565b9150611235826111f4565b602082019050919050565b600060208201905081810360008301526112598161121d565b9050919050565b6000819050919050565b6000819050919050565b600061128f61128a61128584611260565b61126a565b610cc0565b9050919050565b61129f81611274565b82525050565b60006080820190506112ba6000830187610e10565b6112c76020830186611296565b6112d46040830185610e10565b6112e16060830184610eb5565b9594505050505056fea26469706673582212205252ed8db47eba9475b5bcbf9db936476202edac318034cad7e384336d67f74564736f6c63430008110033",
  "immutableReferences": {},
  "source": "// SPDX-License-Identifier: MIT\r\npragma solidity ^0.8.0;\r\nimport \"./ILoan.sol\";\r\nimport \"./LoanLibrary.sol\";\r\n\r\ncontract DeFiLoan is ILoan {\r\n    address payable public owner;\r\n    mapping(address => Loan[]) public activeLoans;\r\n    mapping(address => Loan[]) public paidLoans;\r\n    mapping(address => uint) public balances; \r\n\r\n    event LoanCreated(\r\n        address indexed borrower,\r\n        uint amount,\r\n        uint interest,\r\n        uint dueDate,\r\n        bool isRepaid\r\n    );\r\n    event LoanRepaid(address indexed borrower, uint loanIndex);\r\n    event OwnerAddress(address owner);\r\n\r\n\r\n    modifier onlyOwner() {\r\n        require(msg.sender == owner, \"Not the owner\");\r\n        _;\r\n    }\r\n\r\n    constructor() {\r\n        owner = payable(msg.sender); \r\n        emit OwnerAddress(owner);\r\n    }\r\n\r\n    function getBalance() public view returns (uint value){\r\n        return balances[msg.sender];\r\n    }\r\n\r\n   \r\n    function createLoan(uint _amount, uint _dueDate) public override {\r\n       \r\n    require(_amount > 0, \"Amount must be greater than 0\");\r\n    require(_dueDate > block.timestamp, \"Due date must be in the future\");\r\n\r\n   \r\n  \r\n\r\n        activeLoans[msg.sender].push(\r\n            Loan({\r\n                amount: _amount,\r\n                interest: 10,\r\n                dueDate: _dueDate,\r\n                borrower: msg.sender,\r\n                isRepaid: false\r\n            })\r\n        );\r\n        \r\n\r\n        emit LoanCreated(msg.sender, _amount, 10, _dueDate, false);\r\n    }\r\n\r\n   \r\n    function getActiveLoans(\r\n        address _borrower\r\n    ) external view override returns (Loan[] memory) {\r\n        return activeLoans[_borrower];\r\n    }\r\n\r\n    function getPaidLoans(\r\n        address _borrower\r\n    ) external view returns (Loan[] memory) {\r\n        return paidLoans[_borrower];\r\n    }\r\n\r\n    function repayLoan(address _borrower, uint256 _index) public payable override {\r\n        require(_index < activeLoans[_borrower].length, \"Loan does not exist\");\r\n\r\n        Loan storage loan = activeLoans[_borrower][_index];\r\n        uint256 interestAmount = LoanLibrary.calculateInterest(loan.amount, loan.interest);\r\n        uint total = loan.amount + interestAmount;\r\n\r\n        require(msg.value == total, \"Not enough funds to repay loan\");\r\n\r\n        \r\n        loan.isRepaid = true;\r\n\r\n        \r\n        payable(owner).transfer(interestAmount);\r\n\r\n        paidLoans[_borrower].push(loan);\r\n\r\n        emit LoanRepaid(_borrower, _index);\r\n    }\r\n\r\n\r\n    \r\n}\r\n   \r\n\r\n",
  "sourcePath": "C:\\Users\\sumur\\Desktop\\An3\\Sistem-de-Imprumuturi-DeFi\\contracts\\DeFiLoan.sol",
  "compiler": {
    "name": "solc",
    "version": "0.8.17+commit.8df45f5f.Emscripten.clang"
  },
  "schemaVersion": "3.4.16",
  "updatedAt": "2025-02-19T15:49:48.830Z",
  "networkType": "ethereum",
  "devdoc": {
    "kind": "dev",
    "methods": {},
    "version": 1
  },
  "userdoc": {
    "kind": "user",
    "methods": {},
    "version": 1
  }
}