{
  "contractName": "DeFiLoan",
  "abi": [
    {
      "constant": true,
      "inputs": [],
      "name": "taskCount",
      "outputs": [
        {
          "name": "",
          "type": "uint256"
        }
      ],
      "payable": false,
      "stateMutability": "view",
      "type": "function",
      "signature": "0xb6cb58a5"
    }
  ],
  "bytecode": "0x608060405260008055348015601357600080fd5b50609e806100226000396000f3fe608060405260043610603f576000357c0100000000000000000000000000000000000000000000000000000000900463ffffffff168063b6cb58a5146044575b600080fd5b348015604f57600080fd5b506056606c565b6040518082815260200191505060405180910390f35b6000548156fea165627a7a72305820edb6dd54977292b4dd5579ed7b8b9b7d898cccc7e6713d786e36e31d85e8d82d0029",
  "source": "pragma solidity ^0.5.0;\r\n\r\ncontract DeFiLoan {\r\n    uint public taskCount = 0;\r\n}",
  "sourcePath": "C:/Users/teodo/OneDrive - unibuc.ro/Desktop/Blockchain/Sistem-de-Imprumuturi-DeFi/contracts/DeFiLoan.sol",
  "compiler": {
    "name": "solc",
    "version": "0.5.0+commit.1d4f565a.Emscripten.clang"
  },
  "schemaVersion": "3.0.1",
  "updatedAt": "2025-01-25T20:53:39.813Z",
  "devdoc": {
    "methods": {}
  },
  "userdoc": {
    "methods": {}
  }
}