{
  "contractName": "DeFiLoan",
  "abi": [
    {
      "inputs": [],
      "payable": false,
      "stateMutability": "nonpayable",
      "type": "constructor"
    },
    {
      "anonymous": false,
      "inputs": [
        {
          "indexed": true,
          "internalType": "address",
          "name": "borrower",
          "type": "address"
        },
        {
          "indexed": false,
          "internalType": "uint256",
          "name": "amount",
          "type": "uint256"
        },
        {
          "indexed": false,
          "internalType": "uint256",
          "name": "interest",
          "type": "uint256"
        },
        {
          "indexed": false,
          "internalType": "uint256",
          "name": "dueDate",
          "type": "uint256"
        }
      ],
      "name": "LoanCreated",
      "type": "event"
    },
    {
      "anonymous": false,
      "inputs": [
        {
          "indexed": true,
          "internalType": "address",
          "name": "borrower",
          "type": "address"
        },
        {
          "indexed": false,
          "internalType": "uint256",
          "name": "loanIndex",
          "type": "uint256"
        }
      ],
      "name": "LoanRepaid",
      "type": "event"
    },
    {
      "anonymous": false,
      "inputs": [
        {
          "indexed": false,
          "internalType": "address",
          "name": "owner",
          "type": "address"
        }
      ],
      "name": "OwnerAddress",
      "type": "event"
    },
    {
      "constant": true,
      "inputs": [
        {
          "internalType": "address",
          "name": "",
          "type": "address"
        },
        {
          "internalType": "uint256",
          "name": "",
          "type": "uint256"
        }
      ],
      "name": "activeLoans",
      "outputs": [
        {
          "internalType": "uint256",
          "name": "amount",
          "type": "uint256"
        },
        {
          "internalType": "uint256",
          "name": "interest",
          "type": "uint256"
        },
        {
          "internalType": "uint256",
          "name": "dueDate",
          "type": "uint256"
        },
        {
          "internalType": "address",
          "name": "borrower",
          "type": "address"
        },
        {
          "internalType": "bool",
          "name": "isRepaid",
          "type": "bool"
        }
      ],
      "payable": false,
      "stateMutability": "view",
      "type": "function"
    },
    {
      "constant": true,
      "inputs": [],
      "name": "owner",
      "outputs": [
        {
          "internalType": "address",
          "name": "",
          "type": "address"
        }
      ],
      "payable": false,
      "stateMutability": "view",
      "type": "function"
    },
    {
      "constant": true,
      "inputs": [
        {
          "internalType": "address",
          "name": "",
          "type": "address"
        },
        {
          "internalType": "uint256",
          "name": "",
          "type": "uint256"
        }
      ],
      "name": "paidLoans",
      "outputs": [
        {
          "internalType": "uint256",
          "name": "amount",
          "type": "uint256"
        },
        {
          "internalType": "uint256",
          "name": "interest",
          "type": "uint256"
        },
        {
          "internalType": "uint256",
          "name": "dueDate",
          "type": "uint256"
        },
        {
          "internalType": "address",
          "name": "borrower",
          "type": "address"
        },
        {
          "internalType": "bool",
          "name": "isRepaid",
          "type": "bool"
        }
      ],
      "payable": false,
      "stateMutability": "view",
      "type": "function"
    },
    {
      "constant": false,
      "inputs": [
        {
          "internalType": "uint256",
          "name": "_amount",
          "type": "uint256"
        },
        {
          "internalType": "uint256",
          "name": "_interest",
          "type": "uint256"
        },
        {
          "internalType": "uint256",
          "name": "_dueDate",
          "type": "uint256"
        }
      ],
      "name": "createLoan",
      "outputs": [],
      "payable": false,
      "stateMutability": "nonpayable",
      "type": "function"
    },
    {
      "constant": true,
      "inputs": [
        {
          "internalType": "address",
          "name": "_borrower",
          "type": "address"
        }
      ],
      "name": "getActiveLoans",
      "outputs": [
        {
          "components": [
            {
              "internalType": "uint256",
              "name": "amount",
              "type": "uint256"
            },
            {
              "internalType": "uint256",
              "name": "interest",
              "type": "uint256"
            },
            {
              "internalType": "uint256",
              "name": "dueDate",
              "type": "uint256"
            },
            {
              "internalType": "address",
              "name": "borrower",
              "type": "address"
            },
            {
              "internalType": "bool",
              "name": "isRepaid",
              "type": "bool"
            }
          ],
          "internalType": "struct DeFiLoan.Loan[]",
          "name": "",
          "type": "tuple[]"
        }
      ],
      "payable": false,
      "stateMutability": "view",
      "type": "function"
    },
    {
      "constant": true,
      "inputs": [
        {
          "internalType": "address",
          "name": "_borrower",
          "type": "address"
        }
      ],
      "name": "getPaidLoans",
      "outputs": [
        {
          "components": [
            {
              "internalType": "uint256",
              "name": "amount",
              "type": "uint256"
            },
            {
              "internalType": "uint256",
              "name": "interest",
              "type": "uint256"
            },
            {
              "internalType": "uint256",
              "name": "dueDate",
              "type": "uint256"
            },
            {
              "internalType": "address",
              "name": "borrower",
              "type": "address"
            },
            {
              "internalType": "bool",
              "name": "isRepaid",
              "type": "bool"
            }
          ],
          "internalType": "struct DeFiLoan.Loan[]",
          "name": "",
          "type": "tuple[]"
        }
      ],
      "payable": false,
      "stateMutability": "view",
      "type": "function"
    },
    {
      "constant": false,
      "inputs": [
        {
          "internalType": "address",
          "name": "borrower",
          "type": "address"
        },
        {
          "internalType": "uint256",
          "name": "index",
          "type": "uint256"
        }
      ],
      "name": "repayLoan",
      "outputs": [],
      "payable": true,
      "stateMutability": "payable",
      "type": "function"
    }
  ],
  "bytecode": "0x60806040523480156200001157600080fd5b50336000806101000a81548173ffffffffffffffffffffffffffffffffffffffff021916908373ffffffffffffffffffffffffffffffffffffffff1602179055507fc3c459f585122b8115ae62dec419cce9035dcdc5d1e953a3a6f12bb3656074136000809054906101000a900473ffffffffffffffffffffffffffffffffffffffff16604051620000a49190620002cd565b60405180910390a1620000c260056009601b620000de60201b60201c565b620000d860056003601b620000de60201b60201c565b62000365565b600160008060009054906101000a900473ffffffffffffffffffffffffffffffffffffffff1673ffffffffffffffffffffffffffffffffffffffff1673ffffffffffffffffffffffffffffffffffffffff1681526020019081526020016000206040518060a001604052808581526020018481526020018381526020016000809054906101000a900473ffffffffffffffffffffffffffffffffffffffff1673ffffffffffffffffffffffffffffffffffffffff168152602001600015158152509080600181540180825580915050906001820390600052602060002090600402016000909192909190915060008201518160000155602082015181600101556040820151816002015560608201518160030160006101000a81548173ffffffffffffffffffffffffffffffffffffffff021916908373ffffffffffffffffffffffffffffffffffffffff16021790555060808201518160030160146101000a81548160ff0219169083151502179055505050503373ffffffffffffffffffffffffffffffffffffffff167f1804eb76dc9809be7ef188388aa1aeb765881fd848377be891234e5c584345fe8484846040516200029e93929190620002ea565b60405180910390a2505050565b620002b68162000327565b82525050565b620002c7816200035b565b82525050565b6000602082019050620002e46000830184620002ab565b92915050565b6000606082019050620003016000830186620002bc565b620003106020830185620002bc565b6200031f6040830184620002bc565b949350505050565b600062000334826200033b565b9050919050565b600073ffffffffffffffffffffffffffffffffffffffff82169050919050565b6000819050919050565b610d4080620003756000396000f3fe6080604052600436106100705760003560e01c80638da5cb5b1161004e5780638da5cb5b14610130578063904b513b1461015b57806393a595f51461018457806399635d5c146101a057610070565b806303d1a1a11461007557806321111063146100b2578063661ca037146100f3575b600080fd5b34801561008157600080fd5b5061009c6004803603610097919081019061099b565b6101e1565b6040516100a99190610ba2565b60405180910390f35b3480156100be57600080fd5b506100d960048036036100d491908101906109c4565b61030e565b6040516100ea959493929190610bfb565b60405180910390f35b3480156100ff57600080fd5b5061011a6004803603610115919081019061099b565b61038b565b6040516101279190610ba2565b60405180910390f35b34801561013c57600080fd5b506101456104b8565b6040516101529190610b87565b60405180910390f35b34801561016757600080fd5b50610182600480360361017d9190810190610a00565b6104dd565b005b61019e600480360361019991908101906109c4565b6106a8565b005b3480156101ac57600080fd5b506101c760048036036101c291908101906109c4565b6108f4565b6040516101d8959493929190610bfb565b60405180910390f35b6060600160008373ffffffffffffffffffffffffffffffffffffffff1673ffffffffffffffffffffffffffffffffffffffff168152602001908152602001600020805480602002602001604051908101604052809291908181526020016000905b8282101561030357838290600052602060002090600402016040518060a00160405290816000820154815260200160018201548152602001600282015481526020016003820160009054906101000a900473ffffffffffffffffffffffffffffffffffffffff1673ffffffffffffffffffffffffffffffffffffffff1673ffffffffffffffffffffffffffffffffffffffff1681526020016003820160149054906101000a900460ff16151515158152505081526020019060010190610242565b505050509050919050565b6001602052816000526040600020818154811061032757fe5b9060005260206000209060040201600091509150508060000154908060010154908060020154908060030160009054906101000a900473ffffffffffffffffffffffffffffffffffffffff16908060030160149054906101000a900460ff16905085565b6060600260008373ffffffffffffffffffffffffffffffffffffffff1673ffffffffffffffffffffffffffffffffffffffff168152602001908152602001600020805480602002602001604051908101604052809291908181526020016000905b828210156104ad57838290600052602060002090600402016040518060a00160405290816000820154815260200160018201548152602001600282015481526020016003820160009054906101000a900473ffffffffffffffffffffffffffffffffffffffff1673ffffffffffffffffffffffffffffffffffffffff1673ffffffffffffffffffffffffffffffffffffffff1681526020016003820160149054906101000a900460ff161515151581525050815260200190600101906103ec565b505050509050919050565b6000809054906101000a900473ffffffffffffffffffffffffffffffffffffffff1681565b600160008060009054906101000a900473ffffffffffffffffffffffffffffffffffffffff1673ffffffffffffffffffffffffffffffffffffffff1673ffffffffffffffffffffffffffffffffffffffff1681526020019081526020016000206040518060a001604052808581526020018481526020018381526020016000809054906101000a900473ffffffffffffffffffffffffffffffffffffffff1673ffffffffffffffffffffffffffffffffffffffff168152602001600015158152509080600181540180825580915050906001820390600052602060002090600402016000909192909190915060008201518160000155602082015181600101556040820151816002015560608201518160030160006101000a81548173ffffffffffffffffffffffffffffffffffffffff021916908373ffffffffffffffffffffffffffffffffffffffff16021790555060808201518160030160146101000a81548160ff0219169083151502179055505050503373ffffffffffffffffffffffffffffffffffffffff167f1804eb76dc9809be7ef188388aa1aeb765881fd848377be891234e5c584345fe84848460405161069b93929190610bc4565b60405180910390a2505050565b6000600160008473ffffffffffffffffffffffffffffffffffffffff1673ffffffffffffffffffffffffffffffffffffffff16815260200190815260200160002082815481106106f457fe5b9060005260206000209060040201905060018160030160146101000a81548160ff021916908315150217905550600260008473ffffffffffffffffffffffffffffffffffffffff1673ffffffffffffffffffffffffffffffffffffffff16815260200190815260200160002081908060018154018082558091505090600182039060005260206000209060040201600090919290919091506000820154816000015560018201548160010155600282015481600201556003820160009054906101000a900473ffffffffffffffffffffffffffffffffffffffff168160030160006101000a81548173ffffffffffffffffffffffffffffffffffffffff021916908373ffffffffffffffffffffffffffffffffffffffff1602179055506003820160149054906101000a900460ff168160030160146101000a81548160ff021916908315150217905550505050600160008473ffffffffffffffffffffffffffffffffffffffff1673ffffffffffffffffffffffffffffffffffffffff168152602001908152602001600020828154811061088b57fe5b9060005260206000209060040201600080820160009055600182016000905560028201600090556003820160006101000a81549073ffffffffffffffffffffffffffffffffffffffff02191690556003820160146101000a81549060ff02191690555050505050565b6002602052816000526040600020818154811061090d57fe5b9060005260206000209060040201600091509150508060000154908060010154908060020154908060030160009054906101000a900473ffffffffffffffffffffffffffffffffffffffff16908060030160149054906101000a900460ff16905085565b60008135905061098081610ccf565b92915050565b60008135905061099581610ce6565b92915050565b6000602082840312156109ad57600080fd5b60006109bb84828501610971565b91505092915050565b600080604083850312156109d757600080fd5b60006109e585828601610971565b92505060206109f685828601610986565b9150509250929050565b600080600060608486031215610a1557600080fd5b6000610a2386828701610986565b9350506020610a3486828701610986565b9250506040610a4586828701610986565b9150509250925092565b6000610a5b8383610b01565b60a08301905092915050565b610a7081610c87565b82525050565b610a7f81610c87565b82525050565b6000610a9082610c5e565b610a9a8185610c76565b9350610aa583610c4e565b8060005b83811015610ad6578151610abd8882610a4f565b9750610ac883610c69565b925050600181019050610aa9565b5085935050505092915050565b610aec81610c99565b82525050565b610afb81610c99565b82525050565b60a082016000820151610b176000850182610b69565b506020820151610b2a6020850182610b69565b506040820151610b3d6040850182610b69565b506060820151610b506060850182610a67565b506080820151610b636080850182610ae3565b50505050565b610b7281610cc5565b82525050565b610b8181610cc5565b82525050565b6000602082019050610b9c6000830184610a76565b92915050565b60006020820190508181036000830152610bbc8184610a85565b905092915050565b6000606082019050610bd96000830186610b78565b610be66020830185610b78565b610bf36040830184610b78565b949350505050565b600060a082019050610c106000830188610b78565b610c1d6020830187610b78565b610c2a6040830186610b78565b610c376060830185610a76565b610c446080830184610af2565b9695505050505050565b6000819050602082019050919050565b600081519050919050565b6000602082019050919050565b600082825260208201905092915050565b6000610c9282610ca5565b9050919050565b60008115159050919050565b600073ffffffffffffffffffffffffffffffffffffffff82169050919050565b6000819050919050565b610cd881610c87565b8114610ce357600080fd5b50565b610cef81610cc5565b8114610cfa57600080fd5b5056fea365627a7a72315820e2cb25165568917e6cb75acb86329972aa248a5c2042b1d47779f9f7f18cf5db6c6578706572696d656e74616cf564736f6c63430005100040",
  "source": "pragma solidity ^0.5.0;\r\npragma experimental ABIEncoderV2;\r\n\r\ncontract DeFiLoan {\r\n\r\n    struct Loan {\r\n        uint amount;\r\n        uint interest; //dobanda\r\n        uint dueDate;\r\n        address borrower;\r\n        bool isRepaid; // imprumutul a fosr returnat complet, adica tot cu dobanda\r\n    }\r\n\r\n    address public owner;\r\n    mapping(address => Loan[]) public activeLoans;\r\n    mapping(address => Loan[]) public paidLoans;\r\n\r\n    event LoanCreated(address indexed borrower, uint amount, uint interest, uint dueDate);\r\n    event LoanRepaid(address indexed borrower, uint loanIndex);\r\n    event OwnerAddress(address owner);\r\n\r\n    modifier onlyOwner() {\r\n        require(msg.sender == owner, \"Not the owner\");\r\n        _;\r\n    }\r\n\r\n    constructor() public {\r\n        owner = msg.sender; //adresa celui care a creat contractul\r\n        emit OwnerAddress(owner);\r\n        createLoan(5, 9, 27);\r\n        createLoan(5, 3, 27);\r\n    }\r\n\r\n    //adauga un nou imprumut in lista unui utilizator\r\n    function createLoan(uint _amount, uint _interest, uint _dueDate) public {\r\n        ///require(_amount > 0, \"Amount must be greater than 0\");\r\n        ///require(_dueDate > block.timestamp, \"Due date must be in the future\");\r\n\r\n        activeLoans[owner].push(Loan({\r\n            amount: _amount,\r\n            interest: _interest,\r\n            dueDate: _dueDate,\r\n            borrower: owner,\r\n            isRepaid: false\r\n        }));\r\n\r\n        emit LoanCreated(msg.sender, _amount, _interest, _dueDate);\r\n    }\r\n\r\n    //afiseaza toate imprumuturile unui utilizator\r\n    function getActiveLoans(address _borrower) external view returns (Loan[] memory) {\r\n        return activeLoans[_borrower];\r\n    }\r\n\r\n    function getPaidLoans(address _borrower) external view returns (Loan[] memory) {\r\n        return paidLoans[_borrower];\r\n    }\r\n\r\n    //permite rambursarea unui anumit imprumut\r\n    function repayLoan(address borrower, uint256 index) public payable {\r\n        //require(index < activeLoans[borrower].length, \"Loan does not exist\");\r\n    \r\n        Loan storage loan = activeLoans[borrower][index];\r\n        //uint256 totalAmount = loan.amount + loan.interest;\r\n    \r\n        //require(msg.value >= totalAmount, \"Not enough funds to repay loan\");\r\n    \r\n        // Marcare ca rambursat\r\n        loan.isRepaid = true;\r\n    \r\n        // Mută împrumutul în lista de împrumuturi plătite\r\n        paidLoans[borrower].push(loan);\r\n\r\n        // Șterge împrumutul din activeLoans\r\n        delete activeLoans[borrower][index];\r\n    }\r\n\r\n    /*\r\n    function withdrawFunds() public onlyOwner {\r\n        // Transfer ETH către proprietar\r\n    }\r\n\r\n    function calculateInterest(uint _amount, uint _rate) public pure returns (uint) {\r\n        return (_amount * _rate) / 100;\r\n    }\r\n    */\r\n}",
  "sourcePath": "C:\\Users\\teodo\\OneDrive - unibuc.ro\\Desktop\\Blockchain\\Sistem-de-Imprumuturi-DeFi\\contracts\\DeFiLoan.sol",
  "compiler": {
    "name": "solc",
    "version": "0.5.16+commit.9c3226ce.Emscripten.clang"
  },
  "schemaVersion": "3.4.16",
  "updatedAt": "2025-02-04T10:05:32.132Z",
  "networkType": "ethereum",
  "devdoc": {
    "methods": {}
  },
  "userdoc": {
    "methods": {}
  }
}