{
  "contractName": "DeFiLoan",
  "abi": [
    {
      "inputs": [],
      "stateMutability": "nonpayable",
      "type": "constructor"
    },
    {
      "anonymous": false,
      "inputs": [
        {
          "indexed": true,
          "internalType": "address",
          "name": "borrower",
          "type": "address"
        },
        {
          "indexed": false,
          "internalType": "uint256",
          "name": "amount",
          "type": "uint256"
        },
        {
          "indexed": false,
          "internalType": "uint256",
          "name": "interest",
          "type": "uint256"
        },
        {
          "indexed": false,
          "internalType": "uint256",
          "name": "dueDate",
          "type": "uint256"
        },
        {
          "indexed": false,
          "internalType": "bool",
          "name": "isRepaid",
          "type": "bool"
        }
      ],
      "name": "LoanCreated",
      "type": "event"
    },
    {
      "anonymous": false,
      "inputs": [
        {
          "indexed": true,
          "internalType": "address",
          "name": "borrower",
          "type": "address"
        },
        {
          "indexed": false,
          "internalType": "uint256",
          "name": "loanIndex",
          "type": "uint256"
        }
      ],
      "name": "LoanRepaid",
      "type": "event"
    },
    {
      "anonymous": false,
      "inputs": [
        {
          "indexed": false,
          "internalType": "address",
          "name": "owner",
          "type": "address"
        }
      ],
      "name": "OwnerAddress",
      "type": "event"
    },
    {
      "inputs": [
        {
          "internalType": "address",
          "name": "",
          "type": "address"
        },
        {
          "internalType": "uint256",
          "name": "",
          "type": "uint256"
        }
      ],
      "name": "activeLoans",
      "outputs": [
        {
          "internalType": "uint256",
          "name": "amount",
          "type": "uint256"
        },
        {
          "internalType": "uint256",
          "name": "interest",
          "type": "uint256"
        },
        {
          "internalType": "uint256",
          "name": "dueDate",
          "type": "uint256"
        },
        {
          "internalType": "address",
          "name": "borrower",
          "type": "address"
        },
        {
          "internalType": "bool",
          "name": "isRepaid",
          "type": "bool"
        }
      ],
      "stateMutability": "view",
      "type": "function"
    },
    {
      "inputs": [
        {
          "internalType": "address",
          "name": "",
          "type": "address"
        }
      ],
      "name": "balances",
      "outputs": [
        {
          "internalType": "uint256",
          "name": "",
          "type": "uint256"
        }
      ],
      "stateMutability": "view",
      "type": "function"
    },
    {
      "inputs": [],
      "name": "owner",
      "outputs": [
        {
          "internalType": "address payable",
          "name": "",
          "type": "address"
        }
      ],
      "stateMutability": "view",
      "type": "function"
    },
    {
      "inputs": [
        {
          "internalType": "address",
          "name": "",
          "type": "address"
        },
        {
          "internalType": "uint256",
          "name": "",
          "type": "uint256"
        }
      ],
      "name": "paidLoans",
      "outputs": [
        {
          "internalType": "uint256",
          "name": "amount",
          "type": "uint256"
        },
        {
          "internalType": "uint256",
          "name": "interest",
          "type": "uint256"
        },
        {
          "internalType": "uint256",
          "name": "dueDate",
          "type": "uint256"
        },
        {
          "internalType": "address",
          "name": "borrower",
          "type": "address"
        },
        {
          "internalType": "bool",
          "name": "isRepaid",
          "type": "bool"
        }
      ],
      "stateMutability": "view",
      "type": "function"
    },
    {
      "inputs": [],
      "name": "getBalance",
      "outputs": [
        {
          "internalType": "uint256",
          "name": "value",
          "type": "uint256"
        }
      ],
      "stateMutability": "view",
      "type": "function"
    },
    {
      "inputs": [
        {
          "internalType": "uint256",
          "name": "_amount",
          "type": "uint256"
        },
        {
          "internalType": "uint256",
          "name": "_dueDate",
          "type": "uint256"
        }
      ],
      "name": "createLoan",
      "outputs": [],
      "stateMutability": "nonpayable",
      "type": "function"
    },
    {
      "inputs": [
        {
          "internalType": "address",
          "name": "_borrower",
          "type": "address"
        }
      ],
      "name": "getActiveLoans",
      "outputs": [
        {
          "components": [
            {
              "internalType": "uint256",
              "name": "amount",
              "type": "uint256"
            },
            {
              "internalType": "uint256",
              "name": "interest",
              "type": "uint256"
            },
            {
              "internalType": "uint256",
              "name": "dueDate",
              "type": "uint256"
            },
            {
              "internalType": "address",
              "name": "borrower",
              "type": "address"
            },
            {
              "internalType": "bool",
              "name": "isRepaid",
              "type": "bool"
            }
          ],
          "internalType": "struct ILoan.Loan[]",
          "name": "",
          "type": "tuple[]"
        }
      ],
      "stateMutability": "view",
      "type": "function"
    },
    {
      "inputs": [
        {
          "internalType": "address",
          "name": "_borrower",
          "type": "address"
        }
      ],
      "name": "getPaidLoans",
      "outputs": [
        {
          "components": [
            {
              "internalType": "uint256",
              "name": "amount",
              "type": "uint256"
            },
            {
              "internalType": "uint256",
              "name": "interest",
              "type": "uint256"
            },
            {
              "internalType": "uint256",
              "name": "dueDate",
              "type": "uint256"
            },
            {
              "internalType": "address",
              "name": "borrower",
              "type": "address"
            },
            {
              "internalType": "bool",
              "name": "isRepaid",
              "type": "bool"
            }
          ],
          "internalType": "struct ILoan.Loan[]",
          "name": "",
          "type": "tuple[]"
        }
      ],
      "stateMutability": "view",
      "type": "function"
    },
    {
      "inputs": [
        {
          "internalType": "address",
          "name": "_borrower",
          "type": "address"
        },
        {
          "internalType": "uint256",
          "name": "_index",
          "type": "uint256"
        }
      ],
      "name": "repayLoan",
      "outputs": [],
      "stateMutability": "payable",
      "type": "function"
    }
  ],
  "bytecode": "0x608060405234801562000010575f80fd5b50335f806101000a81548173ffffffffffffffffffffffffffffffffffffffff021916908373ffffffffffffffffffffffffffffffffffffffff1602179055507fc3c459f585122b8115ae62dec419cce9035dcdc5d1e953a3a6f12bb3656074135f8054906101000a900473ffffffffffffffffffffffffffffffffffffffff16604051620000a0919062000134565b60405180910390a16200014f565b5f73ffffffffffffffffffffffffffffffffffffffff82169050919050565b5f819050919050565b5f620000f6620000f0620000ea84620000ae565b620000cd565b620000ae565b9050919050565b5f6200010982620000d6565b9050919050565b5f6200011c82620000fd565b9050919050565b6200012e8162000110565b82525050565b5f602082019050620001495f83018462000123565b92915050565b611676806200015d5f395ff3fe608060405260043610610085575f3560e01c8063661ca03711610058578063661ca0371461016b5780638da5cb5b146101a757806393a595f5146101d157806398cd90b5146101ed57806399635d5c1461021557610085565b806303d1a1a11461008957806312065fe0146100c557806321111063146100ef57806327e235e31461012f575b5f80fd5b348015610094575f80fd5b506100af60048036038101906100aa9190610ed0565b610255565b6040516100bc919061104a565b60405180910390f35b3480156100d0575f80fd5b506100d961037b565b6040516100e69190611079565b60405180910390f35b3480156100fa575f80fd5b50610115600480360381019061011091906110bc565b6103bf565b604051610126959493929190611118565b60405180910390f35b34801561013a575f80fd5b5061015560048036038101906101509190610ed0565b610437565b6040516101629190611079565b60405180910390f35b348015610176575f80fd5b50610191600480360381019061018c9190610ed0565b61044c565b60405161019e919061104a565b60405180910390f35b3480156101b2575f80fd5b506101bb610572565b6040516101c89190611189565b60405180910390f35b6101eb60048036038101906101e691906110bc565b610595565b005b3480156101f8575f80fd5b50610213600480360381019061020e91906111a2565b610ad0565b005b348015610220575f80fd5b5061023b600480360381019061023691906110bc565b610dfa565b60405161024c959493929190611118565b60405180910390f35b606060015f8373ffffffffffffffffffffffffffffffffffffffff1673ffffffffffffffffffffffffffffffffffffffff1681526020019081526020015f20805480602002602001604051908101604052809291908181526020015f905b82821015610370578382905f5260205f2090600402016040518060a00160405290815f82015481526020016001820154815260200160028201548152602001600382015f9054906101000a900473ffffffffffffffffffffffffffffffffffffffff1673ffffffffffffffffffffffffffffffffffffffff1673ffffffffffffffffffffffffffffffffffffffff1681526020016003820160149054906101000a900460ff161515151581525050815260200190600101906102b3565b505050509050919050565b5f60035f3373ffffffffffffffffffffffffffffffffffffffff1673ffffffffffffffffffffffffffffffffffffffff1681526020019081526020015f2054905090565b6001602052815f5260405f2081815481106103d8575f80fd5b905f5260205f2090600402015f9150915050805f015490806001015490806002015490806003015f9054906101000a900473ffffffffffffffffffffffffffffffffffffffff16908060030160149054906101000a900460ff16905085565b6003602052805f5260405f205f915090505481565b606060025f8373ffffffffffffffffffffffffffffffffffffffff1673ffffffffffffffffffffffffffffffffffffffff1681526020019081526020015f20805480602002602001604051908101604052809291908181526020015f905b82821015610567578382905f5260205f2090600402016040518060a00160405290815f82015481526020016001820154815260200160028201548152602001600382015f9054906101000a900473ffffffffffffffffffffffffffffffffffffffff1673ffffffffffffffffffffffffffffffffffffffff1673ffffffffffffffffffffffffffffffffffffffff1681526020016003820160149054906101000a900460ff161515151581525050815260200190600101906104aa565b505050509050919050565b5f8054906101000a900473ffffffffffffffffffffffffffffffffffffffff1681565b60015f8373ffffffffffffffffffffffffffffffffffffffff1673ffffffffffffffffffffffffffffffffffffffff1681526020019081526020015f20805490508110610617576040517f08c379a000000000000000000000000000000000000000000000000000000000815260040161060e9061123a565b60405180910390fd5b5f60015f8473ffffffffffffffffffffffffffffffffffffffff1673ffffffffffffffffffffffffffffffffffffffff1681526020019081526020015f20828154811061066757610666611258565b5b905f5260205f20906004020190505f73__LoanLibrary___________________________63efdd7c07835f015484600101546040518363ffffffff1660e01b81526004016106b6929190611294565b602060405180830381865af41580156106d1573d5f803e3d5ffd5b505050506040513d601f19601f820116820180604052508101906106f591906112cf565b90505f81835f01546107079190611327565b905080341461074b576040517f08c379a0000000000000000000000000000000000000000000000000000000008152600401610742906113a4565b60405180910390fd5b8060035f3373ffffffffffffffffffffffffffffffffffffffff1673ffffffffffffffffffffffffffffffffffffffff1681526020019081526020015f205410156107cb576040517f08c379a00000000000000000000000000000000000000000000000000000000081526004016107c290611432565b60405180910390fd5b8060035f3373ffffffffffffffffffffffffffffffffffffffff1673ffffffffffffffffffffffffffffffffffffffff1681526020019081526020015f205f8282546108179190611450565b925050819055508160035f805f9054906101000a900473ffffffffffffffffffffffffffffffffffffffff1673ffffffffffffffffffffffffffffffffffffffff1673ffffffffffffffffffffffffffffffffffffffff1681526020019081526020015f205f82825461088a9190611327565b92505081905550825f015460035f8773ffffffffffffffffffffffffffffffffffffffff1673ffffffffffffffffffffffffffffffffffffffff1681526020019081526020015f205f8282546108e09190611327565b9250508190555060018360030160146101000a81548160ff0219169083151502179055505f8054906101000a900473ffffffffffffffffffffffffffffffffffffffff1673ffffffffffffffffffffffffffffffffffffffff166108fc8390811502906040515f60405180830381858888f19350505050158015610966573d5f803e3d5ffd5b5060025f8673ffffffffffffffffffffffffffffffffffffffff1673ffffffffffffffffffffffffffffffffffffffff1681526020019081526020015f2083908060018154018082558091505060019003905f5260205f2090600402015f909190919091505f820154815f01556001820154816001015560028201548160020155600382015f9054906101000a900473ffffffffffffffffffffffffffffffffffffffff16816003015f6101000a81548173ffffffffffffffffffffffffffffffffffffffff021916908373ffffffffffffffffffffffffffffffffffffffff1602179055506003820160149054906101000a900460ff168160030160146101000a81548160ff02191690831515021790555050508473ffffffffffffffffffffffffffffffffffffffff167fc200a1f31dd659e356e0f112c82558e25f49f7b0f84438691cd96f5cb355882385604051610ac19190611079565b60405180910390a25050505050565b5f8211610b12576040517f08c379a0000000000000000000000000000000000000000000000000000000008152600401610b09906114cd565b60405180910390fd5b428111610b54576040517f08c379a0000000000000000000000000000000000000000000000000000000008152600401610b4b90611535565b60405180910390fd5b8160035f3373ffffffffffffffffffffffffffffffffffffffff1673ffffffffffffffffffffffffffffffffffffffff1681526020019081526020015f20541015610bd4576040517f08c379a0000000000000000000000000000000000000000000000000000000008152600401610bcb9061159d565b60405180910390fd5b8160035f3373ffffffffffffffffffffffffffffffffffffffff1673ffffffffffffffffffffffffffffffffffffffff1681526020019081526020015f205f828254610c209190611450565b925050819055508160035f3073ffffffffffffffffffffffffffffffffffffffff1673ffffffffffffffffffffffffffffffffffffffff1681526020019081526020015f205f828254610c739190611327565b9250508190555060015f3373ffffffffffffffffffffffffffffffffffffffff1673ffffffffffffffffffffffffffffffffffffffff1681526020019081526020015f206040518060a00160405280848152602001600a81526020018381526020013373ffffffffffffffffffffffffffffffffffffffff1681526020015f1515815250908060018154018082558091505060019003905f5260205f2090600402015f909190919091505f820151815f015560208201518160010155604082015181600201556060820151816003015f6101000a81548173ffffffffffffffffffffffffffffffffffffffff021916908373ffffffffffffffffffffffffffffffffffffffff16021790555060808201518160030160146101000a81548160ff02191690831515021790555050503373ffffffffffffffffffffffffffffffffffffffff167f4e7efa62621577e2d2f3ce157441935bee772531de9e2152ced5712245b450d683600a845f604051610dee94939291906115fd565b60405180910390a25050565b6002602052815f5260405f208181548110610e13575f80fd5b905f5260205f2090600402015f9150915050805f015490806001015490806002015490806003015f9054906101000a900473ffffffffffffffffffffffffffffffffffffffff16908060030160149054906101000a900460ff16905085565b5f80fd5b5f73ffffffffffffffffffffffffffffffffffffffff82169050919050565b5f610e9f82610e76565b9050919050565b610eaf81610e95565b8114610eb9575f80fd5b50565b5f81359050610eca81610ea6565b92915050565b5f60208284031215610ee557610ee4610e72565b5b5f610ef284828501610ebc565b91505092915050565b5f81519050919050565b5f82825260208201905092915050565b5f819050602082019050919050565b5f819050919050565b610f3681610f24565b82525050565b610f4581610e95565b82525050565b5f8115159050919050565b610f5f81610f4b565b82525050565b60a082015f820151610f795f850182610f2d565b506020820151610f8c6020850182610f2d565b506040820151610f9f6040850182610f2d565b506060820151610fb26060850182610f3c565b506080820151610fc56080850182610f56565b50505050565b5f610fd68383610f65565b60a08301905092915050565b5f602082019050919050565b5f610ff882610efb565b6110028185610f05565b935061100d83610f15565b805f5b8381101561103d5781516110248882610fcb565b975061102f83610fe2565b925050600181019050611010565b5085935050505092915050565b5f6020820190508181035f8301526110628184610fee565b905092915050565b61107381610f24565b82525050565b5f60208201905061108c5f83018461106a565b92915050565b61109b81610f24565b81146110a5575f80fd5b50565b5f813590506110b681611092565b92915050565b5f80604083850312156110d2576110d1610e72565b5b5f6110df85828601610ebc565b92505060206110f0858286016110a8565b9150509250929050565b61110381610e95565b82525050565b61111281610f4b565b82525050565b5f60a08201905061112b5f83018861106a565b611138602083018761106a565b611145604083018661106a565b61115260608301856110fa565b61115f6080830184611109565b9695505050505050565b5f61117382610e76565b9050919050565b61118381611169565b82525050565b5f60208201905061119c5f83018461117a565b92915050565b5f80604083850312156111b8576111b7610e72565b5b5f6111c5858286016110a8565b92505060206111d6858286016110a8565b9150509250929050565b5f82825260208201905092915050565b7f4c6f616e20646f6573206e6f74206578697374000000000000000000000000005f82015250565b5f6112246013836111e0565b915061122f826111f0565b602082019050919050565b5f6020820190508181035f83015261125181611218565b9050919050565b7f4e487b71000000000000000000000000000000000000000000000000000000005f52603260045260245ffd5b61128e81610f24565b82525050565b5f6040820190506112a75f830185611285565b6112b46020830184611285565b9392505050565b5f815190506112c981611092565b92915050565b5f602082840312156112e4576112e3610e72565b5b5f6112f1848285016112bb565b91505092915050565b7f4e487b71000000000000000000000000000000000000000000000000000000005f52601160045260245ffd5b5f61133182610f24565b915061133c83610f24565b9250828201905080821115611354576113536112fa565b5b92915050565b7f4e6f7420656e6f7567682066756e647320746f207265706179206c6f616e00005f82015250565b5f61138e601e836111e0565b91506113998261135a565b602082019050919050565b5f6020820190508181035f8301526113bb81611382565b9050919050565b7f496e73756666696369656e742062616c616e636520666f722072657061796d655f8201527f6e742e0000000000000000000000000000000000000000000000000000000000602082015250565b5f61141c6023836111e0565b9150611427826113c2565b604082019050919050565b5f6020820190508181035f83015261144981611410565b9050919050565b5f61145a82610f24565b915061146583610f24565b925082820390508181111561147d5761147c6112fa565b5b92915050565b7f416d6f756e74206d7573742062652067726561746572207468616e20300000005f82015250565b5f6114b7601d836111e0565b91506114c282611483565b602082019050919050565b5f6020820190508181035f8301526114e4816114ab565b9050919050565b7f4475652064617465206d75737420626520696e207468652066757475726500005f82015250565b5f61151f601e836111e0565b915061152a826114eb565b602082019050919050565b5f6020820190508181035f83015261154c81611513565b9050919050565b7f496e73756666696369656e742062616c616e636520666f72206c6f616e2e00005f82015250565b5f611587601e836111e0565b915061159282611553565b602082019050919050565b5f6020820190508181035f8301526115b48161157b565b9050919050565b5f819050919050565b5f819050919050565b5f6115e76115e26115dd846115bb565b6115c4565b610f24565b9050919050565b6115f7816115cd565b82525050565b5f6080820190506116105f83018761106a565b61161d60208301866115ee565b61162a604083018561106a565b6116376060830184611109565b9594505050505056fea2646970667358221220f68a1eb3d8cad2f1da810f567bffce09b5a6d61bf24f38a37affb62c93936fa564736f6c63430008140033",
  "immutableReferences": {},
  "source": "// SPDX-License-Identifier: MIT\r\npragma solidity ^0.8.0;\r\nimport \"./ILoan.sol\";\r\nimport \"./LoanLibrary.sol\";\r\n\r\ncontract DeFiLoan is ILoan {\r\n    address payable public owner;\r\n    mapping(address => Loan[]) public activeLoans;\r\n    mapping(address => Loan[]) public paidLoans;\r\n    mapping(address => uint) public balances; \r\n\r\n    event LoanCreated(\r\n        address indexed borrower,\r\n        uint amount,\r\n        uint interest,\r\n        uint dueDate,\r\n        bool isRepaid\r\n    );\r\n    event LoanRepaid(address indexed borrower, uint loanIndex);\r\n    event OwnerAddress(address owner);\r\n\r\n\r\n    modifier onlyOwner() {\r\n        require(msg.sender == owner, \"Not the owner\");\r\n        _;\r\n    }\r\n\r\n    constructor() {\r\n        owner = payable(msg.sender); //adresa celui care a creat contractul\r\n        emit OwnerAddress(owner);\r\n    }\r\n\r\n    function getBalance() public view returns (uint value){\r\n        return balances[msg.sender];\r\n    }\r\n\r\n    // Adaug un nou mprumut\r\n    function createLoan(uint _amount, uint _dueDate) public override {\r\n       \r\n    require(_amount > 0, \"Amount must be greater than 0\");\r\n    require(_dueDate > block.timestamp, \"Due date must be in the future\");\r\n\r\n    require(balances[msg.sender] >= _amount, \"Insufficient balance for loan.\"); // Verific balana\r\n    balances[msg.sender] -= _amount;\r\n    balances[address(this)] += _amount; // Contractul primete fondurile\r\n\r\n  \r\n\r\n        activeLoans[msg.sender].push(\r\n            Loan({\r\n                amount: _amount,\r\n                interest: 10,\r\n                dueDate: _dueDate,\r\n                borrower: msg.sender,\r\n                isRepaid: false\r\n            })\r\n        );\r\n        \r\n\r\n        emit LoanCreated(msg.sender, _amount, 10, _dueDate, false);\r\n    }\r\n\r\n    // Obine mprumuturile active ale unui utilizator\r\n    function getActiveLoans(\r\n        address _borrower\r\n    ) external view override returns (Loan[] memory) {\r\n        return activeLoans[_borrower];\r\n    }\r\n\r\n    function getPaidLoans(\r\n        address _borrower\r\n    ) external view returns (Loan[] memory) {\r\n        return paidLoans[_borrower];\r\n    }\r\n\r\n    function repayLoan(address _borrower, uint256 _index) public payable override {\r\n        require(_index < activeLoans[_borrower].length, \"Loan does not exist\");\r\n\r\n        Loan storage loan = activeLoans[_borrower][_index];\r\n        uint256 interestAmount = LoanLibrary.calculateInterest(loan.amount, loan.interest);\r\n        uint total = loan.amount + interestAmount;\r\n\r\n        require(msg.value == total, \"Not enough funds to repay loan\");\r\n        require(balances[msg.sender] >= total, \"Insufficient balance for repayment.\");\r\n        balances[msg.sender] -= total;\r\n\r\n        balances[owner] += interestAmount; // Plata dobnzii ctre owner\r\n        balances[_borrower] += loan.amount; // Returnarea sumei mprumutate\r\n\r\n        // Marcare ca rambursat\r\n        loan.isRepaid = true;\r\n\r\n        // Transfer ctre owner\r\n        payable(owner).transfer(interestAmount);\r\n\r\n        paidLoans[_borrower].push(loan);\r\n\r\n        emit LoanRepaid(_borrower, _index);\r\n    }\r\n\r\n\r\n    \r\n}\r\n   \r\n\r\n",
  "sourcePath": "C:\\Users\\sumur\\Desktop\\An3\\Sistem-de-Imprumuturi-DeFi\\contracts\\DeFiLoan.sol",
  "compiler": {
    "name": "solc",
    "version": "0.8.20+commit.a1b79de6.Emscripten.clang"
  },
  "schemaVersion": "3.4.16",
  "updatedAt": "2025-02-06T04:47:00.833Z",
  "devdoc": {
    "kind": "dev",
    "methods": {},
    "version": 1
  },
  "userdoc": {
    "kind": "user",
    "methods": {},
    "version": 1
  }
}