{
  "contractName": "DeFiLoan",
  "abi": [
    {
      "inputs": [],
      "payable": false,
      "stateMutability": "nonpayable",
      "type": "constructor"
    },
    {
      "anonymous": false,
      "inputs": [
        {
          "indexed": true,
          "internalType": "address",
          "name": "borrower",
          "type": "address"
        },
        {
          "indexed": false,
          "internalType": "uint256",
          "name": "amount",
          "type": "uint256"
        },
        {
          "indexed": false,
          "internalType": "uint256",
          "name": "interest",
          "type": "uint256"
        },
        {
          "indexed": false,
          "internalType": "uint256",
          "name": "dueDate",
          "type": "uint256"
        }
      ],
      "name": "LoanCreated",
      "type": "event"
    },
    {
      "anonymous": false,
      "inputs": [
        {
          "indexed": true,
          "internalType": "address",
          "name": "borrower",
          "type": "address"
        },
        {
          "indexed": false,
          "internalType": "uint256",
          "name": "loanIndex",
          "type": "uint256"
        }
      ],
      "name": "LoanRepaid",
      "type": "event"
    },
    {
      "anonymous": false,
      "inputs": [
        {
          "indexed": false,
          "internalType": "address",
          "name": "owner",
          "type": "address"
        }
      ],
      "name": "OwnerAddress",
      "type": "event"
    },
    {
      "constant": true,
      "inputs": [
        {
          "internalType": "address",
          "name": "",
          "type": "address"
        },
        {
          "internalType": "uint256",
          "name": "",
          "type": "uint256"
        }
      ],
      "name": "activeLoans",
      "outputs": [
        {
          "internalType": "uint256",
          "name": "amount",
          "type": "uint256"
        },
        {
          "internalType": "uint256",
          "name": "interest",
          "type": "uint256"
        },
        {
          "internalType": "uint256",
          "name": "dueDate",
          "type": "uint256"
        },
        {
          "internalType": "address",
          "name": "borrower",
          "type": "address"
        },
        {
          "internalType": "bool",
          "name": "isRepaid",
          "type": "bool"
        }
      ],
      "payable": false,
      "stateMutability": "view",
      "type": "function"
    },
    {
      "constant": true,
      "inputs": [],
      "name": "owner",
      "outputs": [
        {
          "internalType": "address",
          "name": "",
          "type": "address"
        }
      ],
      "payable": false,
      "stateMutability": "view",
      "type": "function"
    },
    {
      "constant": true,
      "inputs": [
        {
          "internalType": "address",
          "name": "",
          "type": "address"
        },
        {
          "internalType": "uint256",
          "name": "",
          "type": "uint256"
        }
      ],
      "name": "paidLoans",
      "outputs": [
        {
          "internalType": "uint256",
          "name": "amount",
          "type": "uint256"
        },
        {
          "internalType": "uint256",
          "name": "interest",
          "type": "uint256"
        },
        {
          "internalType": "uint256",
          "name": "dueDate",
          "type": "uint256"
        },
        {
          "internalType": "address",
          "name": "borrower",
          "type": "address"
        },
        {
          "internalType": "bool",
          "name": "isRepaid",
          "type": "bool"
        }
      ],
      "payable": false,
      "stateMutability": "view",
      "type": "function"
    },
    {
      "constant": false,
      "inputs": [
        {
          "internalType": "uint256",
          "name": "_amount",
          "type": "uint256"
        },
        {
          "internalType": "uint256",
          "name": "_dueDate",
          "type": "uint256"
        }
      ],
      "name": "createLoan",
      "outputs": [],
      "payable": false,
      "stateMutability": "nonpayable",
      "type": "function"
    },
    {
      "constant": true,
      "inputs": [
        {
          "internalType": "address",
          "name": "_borrower",
          "type": "address"
        }
      ],
      "name": "getActiveLoans",
      "outputs": [
        {
          "components": [
            {
              "internalType": "uint256",
              "name": "amount",
              "type": "uint256"
            },
            {
              "internalType": "uint256",
              "name": "interest",
              "type": "uint256"
            },
            {
              "internalType": "uint256",
              "name": "dueDate",
              "type": "uint256"
            },
            {
              "internalType": "address",
              "name": "borrower",
              "type": "address"
            },
            {
              "internalType": "bool",
              "name": "isRepaid",
              "type": "bool"
            }
          ],
          "internalType": "struct DeFiLoan.Loan[]",
          "name": "",
          "type": "tuple[]"
        }
      ],
      "payable": false,
      "stateMutability": "view",
      "type": "function"
    },
    {
      "constant": true,
      "inputs": [
        {
          "internalType": "address",
          "name": "_borrower",
          "type": "address"
        }
      ],
      "name": "getPaidLoans",
      "outputs": [
        {
          "components": [
            {
              "internalType": "uint256",
              "name": "amount",
              "type": "uint256"
            },
            {
              "internalType": "uint256",
              "name": "interest",
              "type": "uint256"
            },
            {
              "internalType": "uint256",
              "name": "dueDate",
              "type": "uint256"
            },
            {
              "internalType": "address",
              "name": "borrower",
              "type": "address"
            },
            {
              "internalType": "bool",
              "name": "isRepaid",
              "type": "bool"
            }
          ],
          "internalType": "struct DeFiLoan.Loan[]",
          "name": "",
          "type": "tuple[]"
        }
      ],
      "payable": false,
      "stateMutability": "view",
      "type": "function"
    },
    {
      "constant": false,
      "inputs": [
        {
          "internalType": "address",
          "name": "borrower",
          "type": "address"
        },
        {
          "internalType": "uint256",
          "name": "index",
          "type": "uint256"
        }
      ],
      "name": "repayLoan",
      "outputs": [],
      "payable": true,
      "stateMutability": "payable",
      "type": "function"
    }
  ],
  "bytecode": "0x60806040523480156200001157600080fd5b50336000806101000a81548173ffffffffffffffffffffffffffffffffffffffff021916908373ffffffffffffffffffffffffffffffffffffffff1602179055507fc3c459f585122b8115ae62dec419cce9035dcdc5d1e953a3a6f12bb3656074136000809054906101000a900473ffffffffffffffffffffffffffffffffffffffff16604051620000a49190620003f3565b60405180910390a1600062278d0042019050620000c9600582620000e360201b60201c565b620000dc600582620000e360201b60201c565b50620004f4565b6000821162000129576040517f08c379a0000000000000000000000000000000000000000000000000000000008152600401620001209062000432565b60405180910390fd5b4281116200016e576040517f08c379a0000000000000000000000000000000000000000000000000000000008152600401620001659062000410565b60405180910390fd5b600160008060009054906101000a900473ffffffffffffffffffffffffffffffffffffffff1673ffffffffffffffffffffffffffffffffffffffff1673ffffffffffffffffffffffffffffffffffffffff1681526020019081526020016000206040518060a00160405280848152602001600a81526020018381526020016000809054906101000a900473ffffffffffffffffffffffffffffffffffffffff1673ffffffffffffffffffffffffffffffffffffffff168152602001600015158152509080600181540180825580915050906001820390600052602060002090600402016000909192909190915060008201518160000155602082015181600101556040820151816002015560608201518160030160006101000a81548173ffffffffffffffffffffffffffffffffffffffff021916908373ffffffffffffffffffffffffffffffffffffffff16021790555060808201518160030160146101000a81548160ff0219169083151502179055505050503373ffffffffffffffffffffffffffffffffffffffff167f1804eb76dc9809be7ef188388aa1aeb765881fd848377be891234e5c584345fe83600a84604051620003309392919062000454565b60405180910390a25050565b6200034781620004a2565b82525050565b6200035881620004e0565b82525050565b60006200036d601e8362000491565b91507f4475652064617465206d75737420626520696e207468652066757475726500006000830152602082019050919050565b6000620003af601d8362000491565b91507f416d6f756e74206d7573742062652067726561746572207468616e20300000006000830152602082019050919050565b620003ed81620004d6565b82525050565b60006020820190506200040a60008301846200033c565b92915050565b600060208201905081810360008301526200042b816200035e565b9050919050565b600060208201905081810360008301526200044d81620003a0565b9050919050565b60006060820190506200046b6000830186620003e2565b6200047a60208301856200034d565b620004896040830184620003e2565b949350505050565b600082825260208201905092915050565b6000620004af82620004b6565b9050919050565b600073ffffffffffffffffffffffffffffffffffffffff82169050919050565b6000819050919050565b6000620004ed82620004d6565b9050919050565b610ea580620005046000396000f3fe6080604052600436106100705760003560e01c80638da5cb5b1161004e5780638da5cb5b1461013057806393a595f51461015b57806398cd90b51461017757806399635d5c146101a057610070565b806303d1a1a11461007557806321111063146100b2578063661ca037146100f3575b600080fd5b34801561008157600080fd5b5061009c60048036036100979190810190610a21565b6101e1565b6040516100a99190610ca4565b60405180910390f35b3480156100be57600080fd5b506100d960048036036100d49190810190610a4a565b61030e565b6040516100ea959493929190610d3d565b60405180910390f35b3480156100ff57600080fd5b5061011a60048036036101159190810190610a21565b61038b565b6040516101279190610ca4565b60405180910390f35b34801561013c57600080fd5b506101456104b8565b6040516101529190610c89565b60405180910390f35b61017560048036036101709190810190610a4a565b6104dd565b005b34801561018357600080fd5b5061019e60048036036101999190810190610a86565b610729565b005b3480156101ac57600080fd5b506101c760048036036101c29190810190610a4a565b61097a565b6040516101d8959493929190610d3d565b60405180910390f35b6060600160008373ffffffffffffffffffffffffffffffffffffffff1673ffffffffffffffffffffffffffffffffffffffff168152602001908152602001600020805480602002602001604051908101604052809291908181526020016000905b8282101561030357838290600052602060002090600402016040518060a00160405290816000820154815260200160018201548152602001600282015481526020016003820160009054906101000a900473ffffffffffffffffffffffffffffffffffffffff1673ffffffffffffffffffffffffffffffffffffffff1673ffffffffffffffffffffffffffffffffffffffff1681526020016003820160149054906101000a900460ff16151515158152505081526020019060010190610242565b505050509050919050565b6001602052816000526040600020818154811061032757fe5b9060005260206000209060040201600091509150508060000154908060010154908060020154908060030160009054906101000a900473ffffffffffffffffffffffffffffffffffffffff16908060030160149054906101000a900460ff16905085565b6060600260008373ffffffffffffffffffffffffffffffffffffffff1673ffffffffffffffffffffffffffffffffffffffff168152602001908152602001600020805480602002602001604051908101604052809291908181526020016000905b828210156104ad57838290600052602060002090600402016040518060a00160405290816000820154815260200160018201548152602001600282015481526020016003820160009054906101000a900473ffffffffffffffffffffffffffffffffffffffff1673ffffffffffffffffffffffffffffffffffffffff1673ffffffffffffffffffffffffffffffffffffffff1681526020016003820160149054906101000a900460ff161515151581525050815260200190600101906103ec565b505050509050919050565b6000809054906101000a900473ffffffffffffffffffffffffffffffffffffffff1681565b6000600160008473ffffffffffffffffffffffffffffffffffffffff1673ffffffffffffffffffffffffffffffffffffffff168152602001908152602001600020828154811061052957fe5b9060005260206000209060040201905060018160030160146101000a81548160ff021916908315150217905550600260008473ffffffffffffffffffffffffffffffffffffffff1673ffffffffffffffffffffffffffffffffffffffff16815260200190815260200160002081908060018154018082558091505090600182039060005260206000209060040201600090919290919091506000820154816000015560018201548160010155600282015481600201556003820160009054906101000a900473ffffffffffffffffffffffffffffffffffffffff168160030160006101000a81548173ffffffffffffffffffffffffffffffffffffffff021916908373ffffffffffffffffffffffffffffffffffffffff1602179055506003820160149054906101000a900460ff168160030160146101000a81548160ff021916908315150217905550505050600160008473ffffffffffffffffffffffffffffffffffffffff1673ffffffffffffffffffffffffffffffffffffffff16815260200190815260200160002082815481106106c057fe5b9060005260206000209060040201600080820160009055600182016000905560028201600090556003820160006101000a81549073ffffffffffffffffffffffffffffffffffffffff02191690556003820160146101000a81549060ff02191690555050505050565b6000821161076c576040517f08c379a000000000000000000000000000000000000000000000000000000000815260040161076390610ce6565b60405180910390fd5b4281116107ae576040517f08c379a00000000000000000000000000000000000000000000000000000000081526004016107a590610cc6565b60405180910390fd5b600160008060009054906101000a900473ffffffffffffffffffffffffffffffffffffffff1673ffffffffffffffffffffffffffffffffffffffff1673ffffffffffffffffffffffffffffffffffffffff1681526020019081526020016000206040518060a00160405280848152602001600a81526020018381526020016000809054906101000a900473ffffffffffffffffffffffffffffffffffffffff1673ffffffffffffffffffffffffffffffffffffffff168152602001600015158152509080600181540180825580915050906001820390600052602060002090600402016000909192909190915060008201518160000155602082015181600101556040820151816002015560608201518160030160006101000a81548173ffffffffffffffffffffffffffffffffffffffff021916908373ffffffffffffffffffffffffffffffffffffffff16021790555060808201518160030160146101000a81548160ff0219169083151502179055505050503373ffffffffffffffffffffffffffffffffffffffff167f1804eb76dc9809be7ef188388aa1aeb765881fd848377be891234e5c584345fe83600a8460405161096e93929190610d06565b60405180910390a25050565b6002602052816000526040600020818154811061099357fe5b9060005260206000209060040201600091509150508060000154908060010154908060020154908060030160009054906101000a900473ffffffffffffffffffffffffffffffffffffffff16908060030160149054906101000a900460ff16905085565b600081359050610a0681610e34565b92915050565b600081359050610a1b81610e4b565b92915050565b600060208284031215610a3357600080fd5b6000610a41848285016109f7565b91505092915050565b60008060408385031215610a5d57600080fd5b6000610a6b858286016109f7565b9250506020610a7c85828601610a0c565b9150509250929050565b60008060408385031215610a9957600080fd5b6000610aa785828601610a0c565b9250506020610ab885828601610a0c565b9150509250929050565b6000610ace8383610c03565b60a08301905092915050565b610ae381610dda565b82525050565b610af281610dda565b82525050565b6000610b0382610da0565b610b0d8185610db8565b9350610b1883610d90565b8060005b83811015610b49578151610b308882610ac2565b9750610b3b83610dab565b925050600181019050610b1c565b5085935050505092915050565b610b5f81610dec565b82525050565b610b6e81610dec565b82525050565b610b7d81610e22565b82525050565b6000610b90601e83610dc9565b91507f4475652064617465206d75737420626520696e207468652066757475726500006000830152602082019050919050565b6000610bd0601d83610dc9565b91507f416d6f756e74206d7573742062652067726561746572207468616e20300000006000830152602082019050919050565b60a082016000820151610c196000850182610c6b565b506020820151610c2c6020850182610c6b565b506040820151610c3f6040850182610c6b565b506060820151610c526060850182610ada565b506080820151610c656080850182610b56565b50505050565b610c7481610e18565b82525050565b610c8381610e18565b82525050565b6000602082019050610c9e6000830184610ae9565b92915050565b60006020820190508181036000830152610cbe8184610af8565b905092915050565b60006020820190508181036000830152610cdf81610b83565b9050919050565b60006020820190508181036000830152610cff81610bc3565b9050919050565b6000606082019050610d1b6000830186610c7a565b610d286020830185610b74565b610d356040830184610c7a565b949350505050565b600060a082019050610d526000830188610c7a565b610d5f6020830187610c7a565b610d6c6040830186610c7a565b610d796060830185610ae9565b610d866080830184610b65565b9695505050505050565b6000819050602082019050919050565b600081519050919050565b6000602082019050919050565b600082825260208201905092915050565b600082825260208201905092915050565b6000610de582610df8565b9050919050565b60008115159050919050565b600073ffffffffffffffffffffffffffffffffffffffff82169050919050565b6000819050919050565b6000610e2d82610e18565b9050919050565b610e3d81610dda565b8114610e4857600080fd5b50565b610e5481610e18565b8114610e5f57600080fd5b5056fea365627a7a72315820893d084f39eda4ffd67df65c077a0270d5c1eac4dde273f74decce47781129db6c6578706572696d656e74616cf564736f6c63430005100040",
  "source": "pragma solidity ^0.5.0;\r\npragma experimental ABIEncoderV2;\r\n\r\ncontract DeFiLoan {\r\n\r\n    struct Loan {\r\n        uint amount;\r\n        uint interest; //dobanda\r\n        uint dueDate;\r\n        address borrower;\r\n        bool isRepaid; // imprumutul a fosr returnat complet, adica tot cu dobanda\r\n    }\r\n\r\n    address public owner;\r\n    mapping(address => Loan[]) public activeLoans;\r\n    mapping(address => Loan[]) public paidLoans;\r\n\r\n    event LoanCreated(address indexed borrower, uint amount, uint interest, uint dueDate);\r\n    event LoanRepaid(address indexed borrower, uint loanIndex);\r\n    event OwnerAddress(address owner);\r\n\r\n    modifier onlyOwner() {\r\n        require(msg.sender == owner, \"Not the owner\");\r\n        _;\r\n    }\r\n\r\n    constructor() public {\r\n        owner = msg.sender; //adresa celui care a creat contractul\r\n        emit OwnerAddress(owner);\r\n       // Creează un împrumut cu data de scadență în viitor (30 de zile de la timestamp-ul curent)\r\n        uint dueDate = block.timestamp + (30 * 1 days); // 30 zile\r\n        createLoan(5, dueDate);\r\n        createLoan(5, dueDate);\r\n    }\r\n\r\n    //adauga un nou imprumut in lista unui utilizator\r\n    function createLoan(uint _amount, uint _dueDate) public {\r\n        require(_amount > 0, \"Amount must be greater than 0\");\r\n        require(_dueDate > block.timestamp, \"Due date must be in the future\");\r\n\r\n        activeLoans[owner].push(Loan({\r\n            amount: _amount,\r\n            interest: 10,\r\n            dueDate: _dueDate,\r\n            borrower: owner,\r\n            isRepaid: false\r\n        }));\r\n\r\n        emit LoanCreated(msg.sender, _amount, 10, _dueDate);\r\n    }\r\n\r\n    //afiseaza toate imprumuturile unui utilizator\r\n    function getActiveLoans(address _borrower) external view returns (Loan[] memory) {\r\n        return activeLoans[_borrower];\r\n    }\r\n\r\n    function getPaidLoans(address _borrower) external view returns (Loan[] memory) {\r\n        return paidLoans[_borrower];\r\n    }\r\n\r\n    //permite rambursarea unui anumit imprumut\r\n    function repayLoan(address borrower, uint256 index) public payable {\r\n        //require(index < activeLoans[borrower].length, \"Loan does not exist\");\r\n    \r\n        Loan storage loan = activeLoans[borrower][index];\r\n        //uint256 totalAmount = loan.amount + loan.interest;\r\n    \r\n        //require(msg.value >= totalAmount, \"Not enough funds to repay loan\");\r\n    \r\n        // Marcare ca rambursat\r\n        loan.isRepaid = true;\r\n    \r\n        // Mută împrumutul în lista de împrumuturi plătite\r\n        paidLoans[borrower].push(loan);\r\n\r\n        // Șterge împrumutul din activeLoans\r\n        delete activeLoans[borrower][index];\r\n    }\r\n\r\n    /*\r\n    function withdrawFunds() public onlyOwner {\r\n        // Transfer ETH către proprietar\r\n    }\r\n\r\n    function calculateInterest(uint _amount, uint _rate) public pure returns (uint) {\r\n        return (_amount * _rate) / 100;\r\n    }\r\n    */\r\n}",
  "sourcePath": "C:\\Users\\teodo\\OneDrive - unibuc.ro\\Desktop\\Blockchain\\Sistem-de-Imprumuturi-DeFi\\contracts\\DeFiLoan.sol",
  "compiler": {
    "name": "solc",
    "version": "0.5.16+commit.9c3226ce.Emscripten.clang"
  },
  "schemaVersion": "3.4.16",
  "updatedAt": "2025-02-04T10:49:31.370Z",
  "devdoc": {
    "methods": {}
  },
  "userdoc": {
    "methods": {}
  }
}