{
  "contractName": "DeFiLoan",
  "abi": [
    {
      "constant": true,
      "inputs": [],
      "name": "owner",
      "outputs": [
        {
          "name": "",
          "type": "address"
        }
      ],
      "payable": false,
      "stateMutability": "view",
      "type": "function",
      "signature": "0x8da5cb5b"
    },
    {
      "constant": true,
      "inputs": [
        {
          "name": "",
          "type": "address"
        },
        {
          "name": "",
          "type": "uint256"
        }
      ],
      "name": "loans",
      "outputs": [
        {
          "name": "amount",
          "type": "uint256"
        },
        {
          "name": "interest",
          "type": "uint256"
        },
        {
          "name": "dueDate",
          "type": "uint256"
        },
        {
          "name": "borrower",
          "type": "address"
        },
        {
          "name": "isRepaid",
          "type": "bool"
        }
      ],
      "payable": false,
      "stateMutability": "view",
      "type": "function",
      "signature": "0x98c61c37"
    },
    {
      "inputs": [],
      "payable": false,
      "stateMutability": "nonpayable",
      "type": "constructor",
      "signature": "constructor"
    },
    {
      "anonymous": false,
      "inputs": [
        {
          "indexed": true,
          "name": "borrower",
          "type": "address"
        },
        {
          "indexed": false,
          "name": "amount",
          "type": "uint256"
        },
        {
          "indexed": false,
          "name": "interest",
          "type": "uint256"
        },
        {
          "indexed": false,
          "name": "dueDate",
          "type": "uint256"
        }
      ],
      "name": "LoanCreated",
      "type": "event",
      "signature": "0x1804eb76dc9809be7ef188388aa1aeb765881fd848377be891234e5c584345fe"
    },
    {
      "anonymous": false,
      "inputs": [
        {
          "indexed": true,
          "name": "borrower",
          "type": "address"
        },
        {
          "indexed": false,
          "name": "loanIndex",
          "type": "uint256"
        }
      ],
      "name": "LoanRepaid",
      "type": "event",
      "signature": "0xc200a1f31dd659e356e0f112c82558e25f49f7b0f84438691cd96f5cb3558823"
    },
    {
      "anonymous": false,
      "inputs": [
        {
          "indexed": false,
          "name": "owner",
          "type": "address"
        }
      ],
      "name": "OwnerAddress",
      "type": "event",
      "signature": "0xc3c459f585122b8115ae62dec419cce9035dcdc5d1e953a3a6f12bb365607413"
    },
    {
      "constant": false,
      "inputs": [
        {
          "name": "_amount",
          "type": "uint256"
        },
        {
          "name": "_interest",
          "type": "uint256"
        },
        {
          "name": "_dueDate",
          "type": "uint256"
        }
      ],
      "name": "createLoan",
      "outputs": [],
      "payable": false,
      "stateMutability": "nonpayable",
      "type": "function",
      "signature": "0x904b513b"
    }
  ],
  "bytecode": "0x608060405234801561001057600080fd5b50336000806101000a81548173ffffffffffffffffffffffffffffffffffffffff021916908373ffffffffffffffffffffffffffffffffffffffff1602179055507fc3c459f585122b8115ae62dec419cce9035dcdc5d1e953a3a6f12bb3656074136000809054906101000a900473ffffffffffffffffffffffffffffffffffffffff16604051808273ffffffffffffffffffffffffffffffffffffffff1673ffffffffffffffffffffffffffffffffffffffff16815260200191505060405180910390a16100f260056003601b6100f7640100000000026401000000009004565b610271565b600160008060009054906101000a900473ffffffffffffffffffffffffffffffffffffffff1673ffffffffffffffffffffffffffffffffffffffff1673ffffffffffffffffffffffffffffffffffffffff16815260200190815260200160002060a0604051908101604052808581526020018481526020018381526020016000809054906101000a900473ffffffffffffffffffffffffffffffffffffffff1673ffffffffffffffffffffffffffffffffffffffff168152602001600015158152509080600181540180825580915050906001820390600052602060002090600402016000909192909190915060008201518160000155602082015181600101556040820151816002015560608201518160030160006101000a81548173ffffffffffffffffffffffffffffffffffffffff021916908373ffffffffffffffffffffffffffffffffffffffff16021790555060808201518160030160146101000a81548160ff021916908315150217905550505050505050565b610407806102806000396000f3fe608060405260043610610057576000357c0100000000000000000000000000000000000000000000000000000000900463ffffffff1680638da5cb5b1461005c578063904b513b146100b357806398c61c3714610102575b600080fd5b34801561006857600080fd5b506100716101bd565b604051808273ffffffffffffffffffffffffffffffffffffffff1673ffffffffffffffffffffffffffffffffffffffff16815260200191505060405180910390f35b3480156100bf57600080fd5b50610100600480360360608110156100d657600080fd5b810190808035906020019092919080359060200190929190803590602001909291905050506101e2565b005b34801561010e57600080fd5b5061015b6004803603604081101561012557600080fd5b81019080803573ffffffffffffffffffffffffffffffffffffffff1690602001909291908035906020019092919050505061035c565b604051808681526020018581526020018481526020018373ffffffffffffffffffffffffffffffffffffffff1673ffffffffffffffffffffffffffffffffffffffff168152602001821515151581526020019550505050505060405180910390f35b6000809054906101000a900473ffffffffffffffffffffffffffffffffffffffff1681565b600160008060009054906101000a900473ffffffffffffffffffffffffffffffffffffffff1673ffffffffffffffffffffffffffffffffffffffff1673ffffffffffffffffffffffffffffffffffffffff16815260200190815260200160002060a0604051908101604052808581526020018481526020018381526020016000809054906101000a900473ffffffffffffffffffffffffffffffffffffffff1673ffffffffffffffffffffffffffffffffffffffff168152602001600015158152509080600181540180825580915050906001820390600052602060002090600402016000909192909190915060008201518160000155602082015181600101556040820151816002015560608201518160030160006101000a81548173ffffffffffffffffffffffffffffffffffffffff021916908373ffffffffffffffffffffffffffffffffffffffff16021790555060808201518160030160146101000a81548160ff021916908315150217905550505050505050565b60016020528160005260406000208181548110151561037757fe5b9060005260206000209060040201600091509150508060000154908060010154908060020154908060030160009054906101000a900473ffffffffffffffffffffffffffffffffffffffff16908060030160149054906101000a900460ff1690508556fea165627a7a7230582076adb9afefcf4ae86f139af750d78679dced4c248e620fa756ea8d4423626bee0029",
  "source": "pragma solidity ^0.5.0;\r\n\r\ncontract DeFiLoan {\r\n\r\n    struct Loan {\r\n        uint amount;\r\n        uint interest;\r\n        uint dueDate;\r\n        address borrower;\r\n        bool isRepaid;\r\n    }\r\n\r\n    address public owner;\r\n    mapping(address => Loan[]) public loans;\r\n\r\n    event LoanCreated(address indexed borrower, uint amount, uint interest, uint dueDate);\r\n    event LoanRepaid(address indexed borrower, uint loanIndex);\r\n    event OwnerAddress(address owner);\r\n\r\n    modifier onlyOwner() {\r\n        require(msg.sender == owner, \"Not the owner\");\r\n        _;\r\n    }\r\n\r\n    constructor() public {\r\n        owner = msg.sender; //adresa celui care a creat contractul\r\n        emit OwnerAddress(owner);\r\n        createLoan(5, 3, 27);\r\n    }\r\n\r\n    //adauga un nou imprumut in lista unui utilizator\r\n    function createLoan(uint _amount, uint _interest, uint _dueDate) public {\r\n        loans[owner].push(Loan({\r\n            amount: _amount,\r\n            interest: _interest,\r\n            dueDate: _dueDate,\r\n            borrower: owner,\r\n            isRepaid: false\r\n        }));\r\n    }\r\n\r\n    /*\r\n    //afiseaza toate imprumuturile unui utilizator\r\n    function getLoans(address _borrower) external view returns (Loan[] memory) {\r\n        return loans[_borrower];\r\n    }\r\n    \r\n    //permite rambursarea unui anumit imprumut\r\n    function repayLoan(uint _loanIndex) external payable {\r\n        // Logica de rambursare\r\n    }\r\n\r\n    function withdrawFunds() public onlyOwner {\r\n        // Transfer ETH către proprietar\r\n    }\r\n\r\n    function calculateInterest(uint _amount, uint _rate) public pure returns (uint) {\r\n        return (_amount * _rate) / 100;\r\n    }\r\n    */\r\n}",
  "sourcePath": "C:/Users/teodo/OneDrive - unibuc.ro/Desktop/Blockchain/Sistem-de-Imprumuturi-DeFi/contracts/DeFiLoan.sol",
  "compiler": {
    "name": "solc",
    "version": "0.5.0+commit.1d4f565a.Emscripten.clang"
  },
  "schemaVersion": "3.0.1",
  "updatedAt": "2025-01-26T10:38:54.591Z",
  "devdoc": {
    "methods": {}
  },
  "userdoc": {
    "methods": {}
  }
}