{
  "contractName": "DeFiLoan",
  "abi": [
    {
      "inputs": [],
      "payable": false,
      "stateMutability": "nonpayable",
      "type": "constructor"
    },
    {
      "anonymous": false,
      "inputs": [
        {
          "indexed": true,
          "internalType": "address",
          "name": "borrower",
          "type": "address"
        },
        {
          "indexed": false,
          "internalType": "uint256",
          "name": "amount",
          "type": "uint256"
        },
        {
          "indexed": false,
          "internalType": "uint256",
          "name": "interest",
          "type": "uint256"
        },
        {
          "indexed": false,
          "internalType": "uint256",
          "name": "dueDate",
          "type": "uint256"
        }
      ],
      "name": "LoanCreated",
      "type": "event"
    },
    {
      "anonymous": false,
      "inputs": [
        {
          "indexed": true,
          "internalType": "address",
          "name": "borrower",
          "type": "address"
        },
        {
          "indexed": false,
          "internalType": "uint256",
          "name": "loanIndex",
          "type": "uint256"
        }
      ],
      "name": "LoanRepaid",
      "type": "event"
    },
    {
      "anonymous": false,
      "inputs": [
        {
          "indexed": false,
          "internalType": "address",
          "name": "owner",
          "type": "address"
        }
      ],
      "name": "OwnerAddress",
      "type": "event"
    },
    {
      "constant": true,
      "inputs": [
        {
          "internalType": "address",
          "name": "",
          "type": "address"
        },
        {
          "internalType": "uint256",
          "name": "",
          "type": "uint256"
        }
      ],
      "name": "loans",
      "outputs": [
        {
          "internalType": "uint256",
          "name": "amount",
          "type": "uint256"
        },
        {
          "internalType": "uint256",
          "name": "interest",
          "type": "uint256"
        },
        {
          "internalType": "uint256",
          "name": "dueDate",
          "type": "uint256"
        },
        {
          "internalType": "address",
          "name": "borrower",
          "type": "address"
        },
        {
          "internalType": "bool",
          "name": "isRepaid",
          "type": "bool"
        }
      ],
      "payable": false,
      "stateMutability": "view",
      "type": "function"
    },
    {
      "constant": true,
      "inputs": [],
      "name": "owner",
      "outputs": [
        {
          "internalType": "address",
          "name": "",
          "type": "address"
        }
      ],
      "payable": false,
      "stateMutability": "view",
      "type": "function"
    },
    {
      "constant": false,
      "inputs": [
        {
          "internalType": "uint256",
          "name": "_amount",
          "type": "uint256"
        },
        {
          "internalType": "uint256",
          "name": "_interest",
          "type": "uint256"
        },
        {
          "internalType": "uint256",
          "name": "_dueDate",
          "type": "uint256"
        }
      ],
      "name": "createLoan",
      "outputs": [],
      "payable": false,
      "stateMutability": "nonpayable",
      "type": "function"
    },
    {
      "constant": true,
      "inputs": [
        {
          "internalType": "address",
          "name": "_borrower",
          "type": "address"
        }
      ],
      "name": "getLoans",
      "outputs": [
        {
          "components": [
            {
              "internalType": "uint256",
              "name": "amount",
              "type": "uint256"
            },
            {
              "internalType": "uint256",
              "name": "interest",
              "type": "uint256"
            },
            {
              "internalType": "uint256",
              "name": "dueDate",
              "type": "uint256"
            },
            {
              "internalType": "address",
              "name": "borrower",
              "type": "address"
            },
            {
              "internalType": "bool",
              "name": "isRepaid",
              "type": "bool"
            }
          ],
          "internalType": "struct DeFiLoan.Loan[]",
          "name": "",
          "type": "tuple[]"
        }
      ],
      "payable": false,
      "stateMutability": "view",
      "type": "function"
    }
  ],
  "bytecode": "0x608060405234801561001057600080fd5b50336000806101000a81548173ffffffffffffffffffffffffffffffffffffffff021916908373ffffffffffffffffffffffffffffffffffffffff1602179055507fc3c459f585122b8115ae62dec419cce9035dcdc5d1e953a3a6f12bb3656074136000809054906101000a900473ffffffffffffffffffffffffffffffffffffffff166040516100a191906102ab565b60405180910390a16100bd60056003601b6100c260201b60201c565b610339565b600160008060009054906101000a900473ffffffffffffffffffffffffffffffffffffffff1673ffffffffffffffffffffffffffffffffffffffff1673ffffffffffffffffffffffffffffffffffffffff1681526020019081526020016000206040518060a001604052808581526020018481526020018381526020016000809054906101000a900473ffffffffffffffffffffffffffffffffffffffff1673ffffffffffffffffffffffffffffffffffffffff168152602001600015158152509080600181540180825580915050906001820390600052602060002090600402016000909192909190915060008201518160000155602082015181600101556040820151816002015560608201518160030160006101000a81548173ffffffffffffffffffffffffffffffffffffffff021916908373ffffffffffffffffffffffffffffffffffffffff16021790555060808201518160030160146101000a81548160ff0219169083151502179055505050503373ffffffffffffffffffffffffffffffffffffffff167f1804eb76dc9809be7ef188388aa1aeb765881fd848377be891234e5c584345fe848484604051610280939291906102c6565b60405180910390a2505050565b610296816102fd565b82525050565b6102a58161032f565b82525050565b60006020820190506102c0600083018461028d565b92915050565b60006060820190506102db600083018661029c565b6102e8602083018561029c565b6102f5604083018461029c565b949350505050565b60006103088261030f565b9050919050565b600073ffffffffffffffffffffffffffffffffffffffff82169050919050565b6000819050919050565b610858806103486000396000f3fe608060405234801561001057600080fd5b506004361061004c5760003560e01c80638da5cb5b14610051578063904b513b1461006f57806398c61c371461008b578063d988ef20146100bf575b600080fd5b6100596100ef565b604051610066919061069f565b60405180910390f35b61008960048036036100849190810190610518565b610114565b005b6100a560048036036100a091908101906104dc565b6102df565b6040516100b6959493929190610713565b60405180910390f35b6100d960048036036100d491908101906104b3565b61035c565b6040516100e691906106ba565b60405180910390f35b6000809054906101000a900473ffffffffffffffffffffffffffffffffffffffff1681565b600160008060009054906101000a900473ffffffffffffffffffffffffffffffffffffffff1673ffffffffffffffffffffffffffffffffffffffff1673ffffffffffffffffffffffffffffffffffffffff1681526020019081526020016000206040518060a001604052808581526020018481526020018381526020016000809054906101000a900473ffffffffffffffffffffffffffffffffffffffff1673ffffffffffffffffffffffffffffffffffffffff168152602001600015158152509080600181540180825580915050906001820390600052602060002090600402016000909192909190915060008201518160000155602082015181600101556040820151816002015560608201518160030160006101000a81548173ffffffffffffffffffffffffffffffffffffffff021916908373ffffffffffffffffffffffffffffffffffffffff16021790555060808201518160030160146101000a81548160ff0219169083151502179055505050503373ffffffffffffffffffffffffffffffffffffffff167f1804eb76dc9809be7ef188388aa1aeb765881fd848377be891234e5c584345fe8484846040516102d2939291906106dc565b60405180910390a2505050565b600160205281600052604060002081815481106102f857fe5b9060005260206000209060040201600091509150508060000154908060010154908060020154908060030160009054906101000a900473ffffffffffffffffffffffffffffffffffffffff16908060030160149054906101000a900460ff16905085565b6060600160008373ffffffffffffffffffffffffffffffffffffffff1673ffffffffffffffffffffffffffffffffffffffff168152602001908152602001600020805480602002602001604051908101604052809291908181526020016000905b8282101561047e57838290600052602060002090600402016040518060a00160405290816000820154815260200160018201548152602001600282015481526020016003820160009054906101000a900473ffffffffffffffffffffffffffffffffffffffff1673ffffffffffffffffffffffffffffffffffffffff1673ffffffffffffffffffffffffffffffffffffffff1681526020016003820160149054906101000a900460ff161515151581525050815260200190600101906103bd565b505050509050919050565b600081359050610498816107e7565b92915050565b6000813590506104ad816107fe565b92915050565b6000602082840312156104c557600080fd5b60006104d384828501610489565b91505092915050565b600080604083850312156104ef57600080fd5b60006104fd85828601610489565b925050602061050e8582860161049e565b9150509250929050565b60008060006060848603121561052d57600080fd5b600061053b8682870161049e565b935050602061054c8682870161049e565b925050604061055d8682870161049e565b9150509250925092565b60006105738383610619565b60a08301905092915050565b6105888161079f565b82525050565b6105978161079f565b82525050565b60006105a882610776565b6105b2818561078e565b93506105bd83610766565b8060005b838110156105ee5781516105d58882610567565b97506105e083610781565b9250506001810190506105c1565b5085935050505092915050565b610604816107b1565b82525050565b610613816107b1565b82525050565b60a08201600082015161062f6000850182610681565b5060208201516106426020850182610681565b5060408201516106556040850182610681565b506060820151610668606085018261057f565b50608082015161067b60808501826105fb565b50505050565b61068a816107dd565b82525050565b610699816107dd565b82525050565b60006020820190506106b4600083018461058e565b92915050565b600060208201905081810360008301526106d4818461059d565b905092915050565b60006060820190506106f16000830186610690565b6106fe6020830185610690565b61070b6040830184610690565b949350505050565b600060a0820190506107286000830188610690565b6107356020830187610690565b6107426040830186610690565b61074f606083018561058e565b61075c608083018461060a565b9695505050505050565b6000819050602082019050919050565b600081519050919050565b6000602082019050919050565b600082825260208201905092915050565b60006107aa826107bd565b9050919050565b60008115159050919050565b600073ffffffffffffffffffffffffffffffffffffffff82169050919050565b6000819050919050565b6107f08161079f565b81146107fb57600080fd5b50565b610807816107dd565b811461081257600080fd5b5056fea365627a7a723158204de462277870f05e96905254baa83bc5d1abca02c0f864d7ba800910034363606c6578706572696d656e74616cf564736f6c63430005100040",
  "source": "pragma solidity ^0.5.0;\r\npragma experimental ABIEncoderV2;\r\n\r\ncontract DeFiLoan {\r\n\r\n    struct Loan {\r\n        uint amount;\r\n        uint interest;\r\n        uint dueDate;\r\n        address borrower;\r\n        bool isRepaid;\r\n    }\r\n\r\n    address public owner;\r\n    mapping(address => Loan[]) public loans;\r\n\r\n    event LoanCreated(address indexed borrower, uint amount, uint interest, uint dueDate);\r\n    event LoanRepaid(address indexed borrower, uint loanIndex);\r\n    event OwnerAddress(address owner);\r\n\r\n    modifier onlyOwner() {\r\n        ///require(msg.sender == owner, \"Not the owner\");\r\n        _;\r\n    }\r\n\r\n    constructor() public {\r\n        owner = msg.sender; //adresa celui care a creat contractul\r\n        emit OwnerAddress(owner);\r\n        createLoan(5, 3, 27);\r\n    }\r\n\r\n    //adauga un nou imprumut in lista unui utilizator\r\n    function createLoan(uint _amount, uint _interest, uint _dueDate) public {\r\n        ///require(_amount > 0, \"Amount must be greater than 0\");\r\n        ///require(_dueDate > block.timestamp, \"Due date must be in the future\");\r\n\r\n        loans[owner].push(Loan({\r\n            amount: _amount,\r\n            interest: _interest,\r\n            dueDate: _dueDate,\r\n            borrower: owner,\r\n            isRepaid: false\r\n        }));\r\n\r\n        emit LoanCreated(msg.sender, _amount, _interest, _dueDate);\r\n    }\r\n\r\n    //afiseaza toate imprumuturile unui utilizator\r\n    function getLoans(address _borrower) external view returns (Loan[] memory) {\r\n        return loans[_borrower];\r\n    }\r\n\r\n    /*\r\n    //permite rambursarea unui anumit imprumut\r\n    function repayLoan(uint _loanIndex) external payable {\r\n        // Logica de rambursare\r\n    }\r\n\r\n    function withdrawFunds() public onlyOwner {\r\n        // Transfer ETH către proprietar\r\n    }\r\n\r\n    function calculateInterest(uint _amount, uint _rate) public pure returns (uint) {\r\n        return (_amount * _rate) / 100;\r\n    }\r\n    */\r\n}",
  "sourcePath": "C:\\Users\\teodo\\OneDrive - unibuc.ro\\Desktop\\Blockchain\\Sistem-de-Imprumuturi-DeFi\\contracts\\DeFiLoan.sol",
  "compiler": {
    "name": "solc",
    "version": "0.5.16+commit.9c3226ce.Emscripten.clang"
  },
  "schemaVersion": "3.4.16",
  "updatedAt": "2025-01-31T21:56:01.582Z",
  "devdoc": {
    "methods": {}
  },
  "userdoc": {
    "methods": {}
  }
}