{
  "contractName": "DeFiLoan",
  "abi": [
    {
      "inputs": [],
      "stateMutability": "nonpayable",
      "type": "constructor"
    },
    {
      "anonymous": false,
      "inputs": [
        {
          "indexed": true,
          "internalType": "address",
          "name": "borrower",
          "type": "address"
        },
        {
          "indexed": false,
          "internalType": "uint256",
          "name": "amount",
          "type": "uint256"
        },
        {
          "indexed": false,
          "internalType": "uint256",
          "name": "interest",
          "type": "uint256"
        },
        {
          "indexed": false,
          "internalType": "uint256",
          "name": "dueDate",
          "type": "uint256"
        },
        {
          "indexed": false,
          "internalType": "bool",
          "name": "isRepaid",
          "type": "bool"
        }
      ],
      "name": "LoanCreated",
      "type": "event"
    },
    {
      "anonymous": false,
      "inputs": [
        {
          "indexed": true,
          "internalType": "address",
          "name": "borrower",
          "type": "address"
        },
        {
          "indexed": false,
          "internalType": "uint256",
          "name": "loanIndex",
          "type": "uint256"
        }
      ],
      "name": "LoanRepaid",
      "type": "event"
    },
    {
      "anonymous": false,
      "inputs": [
        {
          "indexed": false,
          "internalType": "address",
          "name": "owner",
          "type": "address"
        }
      ],
      "name": "OwnerAddress",
      "type": "event"
    },
    {
      "inputs": [
        {
          "internalType": "address",
          "name": "",
          "type": "address"
        },
        {
          "internalType": "uint256",
          "name": "",
          "type": "uint256"
        }
      ],
      "name": "activeLoans",
      "outputs": [
        {
          "internalType": "uint256",
          "name": "amount",
          "type": "uint256"
        },
        {
          "internalType": "uint256",
          "name": "interest",
          "type": "uint256"
        },
        {
          "internalType": "uint256",
          "name": "dueDate",
          "type": "uint256"
        },
        {
          "internalType": "address",
          "name": "borrower",
          "type": "address"
        },
        {
          "internalType": "bool",
          "name": "isRepaid",
          "type": "bool"
        }
      ],
      "stateMutability": "view",
      "type": "function",
      "constant": true
    },
    {
      "inputs": [],
      "name": "owner",
      "outputs": [
        {
          "internalType": "address payable",
          "name": "",
          "type": "address"
        }
      ],
      "stateMutability": "view",
      "type": "function",
      "constant": true
    },
    {
      "inputs": [
        {
          "internalType": "address",
          "name": "",
          "type": "address"
        },
        {
          "internalType": "uint256",
          "name": "",
          "type": "uint256"
        }
      ],
      "name": "paidLoans",
      "outputs": [
        {
          "internalType": "uint256",
          "name": "amount",
          "type": "uint256"
        },
        {
          "internalType": "uint256",
          "name": "interest",
          "type": "uint256"
        },
        {
          "internalType": "uint256",
          "name": "dueDate",
          "type": "uint256"
        },
        {
          "internalType": "address",
          "name": "borrower",
          "type": "address"
        },
        {
          "internalType": "bool",
          "name": "isRepaid",
          "type": "bool"
        }
      ],
      "stateMutability": "view",
      "type": "function",
      "constant": true
    },
    {
      "inputs": [
        {
          "internalType": "uint256",
          "name": "_amount",
          "type": "uint256"
        },
        {
          "internalType": "uint256",
          "name": "_dueDate",
          "type": "uint256"
        }
      ],
      "name": "createLoan",
      "outputs": [],
      "stateMutability": "nonpayable",
      "type": "function"
    },
    {
      "inputs": [
        {
          "internalType": "address",
          "name": "_borrower",
          "type": "address"
        }
      ],
      "name": "getActiveLoans",
      "outputs": [
        {
          "components": [
            {
              "internalType": "uint256",
              "name": "amount",
              "type": "uint256"
            },
            {
              "internalType": "uint256",
              "name": "interest",
              "type": "uint256"
            },
            {
              "internalType": "uint256",
              "name": "dueDate",
              "type": "uint256"
            },
            {
              "internalType": "address",
              "name": "borrower",
              "type": "address"
            },
            {
              "internalType": "bool",
              "name": "isRepaid",
              "type": "bool"
            }
          ],
          "internalType": "struct ILoan.Loan[]",
          "name": "",
          "type": "tuple[]"
        }
      ],
      "stateMutability": "view",
      "type": "function",
      "constant": true
    },
    {
      "inputs": [
        {
          "internalType": "address",
          "name": "_borrower",
          "type": "address"
        }
      ],
      "name": "getPaidLoans",
      "outputs": [
        {
          "components": [
            {
              "internalType": "uint256",
              "name": "amount",
              "type": "uint256"
            },
            {
              "internalType": "uint256",
              "name": "interest",
              "type": "uint256"
            },
            {
              "internalType": "uint256",
              "name": "dueDate",
              "type": "uint256"
            },
            {
              "internalType": "address",
              "name": "borrower",
              "type": "address"
            },
            {
              "internalType": "bool",
              "name": "isRepaid",
              "type": "bool"
            }
          ],
          "internalType": "struct ILoan.Loan[]",
          "name": "",
          "type": "tuple[]"
        }
      ],
      "stateMutability": "view",
      "type": "function",
      "constant": true
    },
    {
      "inputs": [
        {
          "internalType": "address",
          "name": "_borrower",
          "type": "address"
        },
        {
          "internalType": "uint256",
          "name": "_index",
          "type": "uint256"
        }
      ],
      "name": "repayLoan",
      "outputs": [],
      "stateMutability": "payable",
      "type": "function",
      "payable": true
    }
  ],
  "bytecode": "0x60806040523480156200001157600080fd5b50336000806101000a81548173ffffffffffffffffffffffffffffffffffffffff021916908373ffffffffffffffffffffffffffffffffffffffff1602179055507fc3c459f585122b8115ae62dec419cce9035dcdc5d1e953a3a6f12bb36560741360008054906101000a900473ffffffffffffffffffffffffffffffffffffffff16604051620000a39190620000c2565b60405180910390a16200013b565b620000bc81620000ff565b82525050565b6000602082019050620000d96000830184620000b1565b92915050565b600073ffffffffffffffffffffffffffffffffffffffff82169050919050565b60006200010c8262000113565b9050919050565b6000620001208262000127565b9050919050565b60006200013482620000df565b9050919050565b611227806200014b6000396000f3fe6080604052600436106100705760003560e01c80638da5cb5b1161004e5780638da5cb5b1461013057806393a595f51461015b57806398cd90b51461017757806399635d5c146101a057610070565b806303d1a1a11461007557806321111063146100b2578063661ca037146100f3575b600080fd5b34801561008157600080fd5b5061009c60048036038101906100979190610be2565b6101e1565b6040516100a99190610f2c565b60405180910390f35b3480156100be57600080fd5b506100d960048036038101906100d49190610c0b565b61030e565b6040516100ea959493929190611057565b60405180910390f35b3480156100ff57600080fd5b5061011a60048036038101906101159190610be2565b61038e565b6040516101279190610f2c565b60405180910390f35b34801561013c57600080fd5b506101456104bb565b6040516101529190610f11565b60405180910390f35b61017560048036038101906101709190610c0b565b6104df565b005b34801561018357600080fd5b5061019e60048036038101906101999190610c70565b610914565b005b3480156101ac57600080fd5b506101c760048036038101906101c29190610c0b565b610b23565b6040516101d8959493929190611057565b60405180910390f35b6060600160008373ffffffffffffffffffffffffffffffffffffffff1673ffffffffffffffffffffffffffffffffffffffff168152602001908152602001600020805480602002602001604051908101604052809291908181526020016000905b8282101561030357838290600052602060002090600402016040518060a00160405290816000820154815260200160018201548152602001600282015481526020016003820160009054906101000a900473ffffffffffffffffffffffffffffffffffffffff1673ffffffffffffffffffffffffffffffffffffffff1673ffffffffffffffffffffffffffffffffffffffff1681526020016003820160149054906101000a900460ff16151515158152505081526020019060010190610242565b505050509050919050565b6001602052816000526040600020818154811061032a57600080fd5b9060005260206000209060040201600091509150508060000154908060010154908060020154908060030160009054906101000a900473ffffffffffffffffffffffffffffffffffffffff16908060030160149054906101000a900460ff16905085565b6060600260008373ffffffffffffffffffffffffffffffffffffffff1673ffffffffffffffffffffffffffffffffffffffff168152602001908152602001600020805480602002602001604051908101604052809291908181526020016000905b828210156104b057838290600052602060002090600402016040518060a00160405290816000820154815260200160018201548152602001600282015481526020016003820160009054906101000a900473ffffffffffffffffffffffffffffffffffffffff1673ffffffffffffffffffffffffffffffffffffffff1673ffffffffffffffffffffffffffffffffffffffff1681526020016003820160149054906101000a900460ff161515151581525050815260200190600101906103ef565b505050509050919050565b60008054906101000a900473ffffffffffffffffffffffffffffffffffffffff1681565b600160008373ffffffffffffffffffffffffffffffffffffffff1673ffffffffffffffffffffffffffffffffffffffff168152602001908152602001600020805490508110610563576040517f08c379a000000000000000000000000000000000000000000000000000000000815260040161055a90610fae565b60405180910390fd5b6000600160008473ffffffffffffffffffffffffffffffffffffffff1673ffffffffffffffffffffffffffffffffffffffff16815260200190815260200160002082815481106105dc577f4e487b7100000000000000000000000000000000000000000000000000000000600052603260045260246000fd5b90600052602060002090600402019050600073__LoanLibrary___________________________63efdd7c07836000015484600101546040518363ffffffff1660e01b815260040161062f92919061102e565b60206040518083038186803b15801561064757600080fd5b505af415801561065b573d6000803e3d6000fd5b505050506040513d601f19601f8201168201806040525081019061067f9190610c47565b9050803410156106c4576040517f08c379a00000000000000000000000000000000000000000000000000000000081526004016106bb90610f8e565b60405180910390fd5b60018260030160146101000a81548160ff02191690831515021790555060008054906101000a900473ffffffffffffffffffffffffffffffffffffffff1673ffffffffffffffffffffffffffffffffffffffff166108fc829081150290604051600060405180830381858888f19350505050158015610747573d6000803e3d6000fd5b50803411156107a3573373ffffffffffffffffffffffffffffffffffffffff166108fc823461077691906110f4565b9081150290604051600060405180830381858888f193505050501580156107a1573d6000803e3d6000fd5b505b600260008573ffffffffffffffffffffffffffffffffffffffff1673ffffffffffffffffffffffffffffffffffffffff1681526020019081526020016000208290806001815401808255809150506001900390600052602060002090600402016000909190919091506000820154816000015560018201548160010155600282015481600201556003820160009054906101000a900473ffffffffffffffffffffffffffffffffffffffff168160030160006101000a81548173ffffffffffffffffffffffffffffffffffffffff021916908373ffffffffffffffffffffffffffffffffffffffff1602179055506003820160149054906101000a900460ff168160030160146101000a81548160ff02191690831515021790555050508373ffffffffffffffffffffffffffffffffffffffff167fc200a1f31dd659e356e0f112c82558e25f49f7b0f84438691cd96f5cb3558823846040516109069190610fce565b60405180910390a250505050565b60008211610957576040517f08c379a000000000000000000000000000000000000000000000000000000000815260040161094e90610f6e565b60405180910390fd5b428111610999576040517f08c379a000000000000000000000000000000000000000000000000000000000815260040161099090610f4e565b60405180910390fd5b600160003373ffffffffffffffffffffffffffffffffffffffff1673ffffffffffffffffffffffffffffffffffffffff1681526020019081526020016000206040518060a00160405280848152602001600a81526020018381526020013373ffffffffffffffffffffffffffffffffffffffff16815260200160001515815250908060018154018082558091505060019003906000526020600020906004020160009091909190915060008201518160000155602082015181600101556040820151816002015560608201518160030160006101000a81548173ffffffffffffffffffffffffffffffffffffffff021916908373ffffffffffffffffffffffffffffffffffffffff16021790555060808201518160030160146101000a81548160ff02191690831515021790555050503373ffffffffffffffffffffffffffffffffffffffff167f4e7efa62621577e2d2f3ce157441935bee772531de9e2152ced5712245b450d683600a846000604051610b179493929190610fe9565b60405180910390a25050565b60026020528160005260406000208181548110610b3f57600080fd5b9060005260206000209060040201600091509150508060000154908060010154908060020154908060030160009054906101000a900473ffffffffffffffffffffffffffffffffffffffff16908060030160149054906101000a900460ff16905085565b600081359050610bb2816111c3565b92915050565b600081359050610bc7816111da565b92915050565b600081519050610bdc816111da565b92915050565b600060208284031215610bf457600080fd5b6000610c0284828501610ba3565b91505092915050565b60008060408385031215610c1e57600080fd5b6000610c2c85828601610ba3565b9250506020610c3d85828601610bb8565b9150509250929050565b600060208284031215610c5957600080fd5b6000610c6784828501610bcd565b91505092915050565b60008060408385031215610c8357600080fd5b6000610c9185828601610bb8565b9250506020610ca285828601610bb8565b9150509250929050565b6000610cb88383610e7c565b60a08301905092915050565b610ccd8161113a565b82525050565b610cdc81611128565b82525050565b610ceb81611128565b82525050565b6000610cfc826110ba565b610d0681856110d2565b9350610d11836110aa565b8060005b83811015610d42578151610d298882610cac565b9750610d34836110c5565b925050600181019050610d15565b5085935050505092915050565b610d588161114c565b82525050565b610d678161114c565b82525050565b610d7681611182565b82525050565b6000610d89601e836110e3565b91507f4475652064617465206d75737420626520696e207468652066757475726500006000830152602082019050919050565b6000610dc9601d836110e3565b91507f416d6f756e74206d7573742062652067726561746572207468616e20300000006000830152602082019050919050565b6000610e09601e836110e3565b91507f4e6f7420656e6f7567682066756e647320746f207265706179206c6f616e00006000830152602082019050919050565b6000610e496013836110e3565b91507f4c6f616e20646f6573206e6f74206578697374000000000000000000000000006000830152602082019050919050565b60a082016000820151610e926000850182610ee4565b506020820151610ea56020850182610ee4565b506040820151610eb86040850182610ee4565b506060820151610ecb6060850182610cd3565b506080820151610ede6080850182610d4f565b50505050565b610eed81611178565b82525050565b610efc81611178565b82525050565b610f0b81611178565b82525050565b6000602082019050610f266000830184610cc4565b92915050565b60006020820190508181036000830152610f468184610cf1565b905092915050565b60006020820190508181036000830152610f6781610d7c565b9050919050565b60006020820190508181036000830152610f8781610dbc565b9050919050565b60006020820190508181036000830152610fa781610dfc565b9050919050565b60006020820190508181036000830152610fc781610e3c565b9050919050565b6000602082019050610fe36000830184610ef3565b92915050565b6000608082019050610ffe6000830187610ef3565b61100b6020830186610d6d565b6110186040830185610ef3565b6110256060830184610d5e565b95945050505050565b60006040820190506110436000830185610f02565b6110506020830184610f02565b9392505050565b600060a08201905061106c6000830188610ef3565b6110796020830187610ef3565b6110866040830186610ef3565b6110936060830185610ce2565b6110a06080830184610d5e565b9695505050505050565b6000819050602082019050919050565b600081519050919050565b6000602082019050919050565b600082825260208201905092915050565b600082825260208201905092915050565b60006110ff82611178565b915061110a83611178565b92508282101561111d5761111c611194565b5b828203905092915050565b600061113382611158565b9050919050565b600061114582611158565b9050919050565b60008115159050919050565b600073ffffffffffffffffffffffffffffffffffffffff82169050919050565b6000819050919050565b600061118d82611178565b9050919050565b7f4e487b7100000000000000000000000000000000000000000000000000000000600052601160045260246000fd5b6111cc81611128565b81146111d757600080fd5b50565b6111e381611178565b81146111ee57600080fd5b5056fea26469706673582212204031f209d1152d0cca41f582dbb1633e80b62721b0d62c6b10dd83a38abb141564736f6c63430008000033",
  "immutableReferences": {},
  "source": "// SPDX-License-Identifier: MIT\r\npragma solidity ^0.8.0;\r\nimport \"./ILoan.sol\";\r\nimport \"./LoanLibrary.sol\";\r\n\r\ncontract DeFiLoan is ILoan {\r\n    address payable public owner;\r\n    mapping(address => Loan[]) public activeLoans;\r\n    mapping(address => Loan[]) public paidLoans;\r\n\r\n    event LoanCreated(address indexed borrower, uint amount, uint interest, uint dueDate, bool isRepaid);\r\n    event LoanRepaid(address indexed borrower, uint loanIndex);\r\n    event OwnerAddress(address owner);\r\n\r\n    modifier onlyOwner() {\r\n        require(msg.sender == owner, \"Not the owner\");\r\n        _;\r\n    }\r\n\r\n    constructor() {\r\n        owner = payable(msg.sender); //adresa celui care a creat contractul\r\n        emit OwnerAddress(owner);\r\n    }\r\n\r\n    // Adaug un nou mprumut\r\n    function createLoan(uint _amount, uint _dueDate) public override {\r\n        require(_amount > 0, \"Amount must be greater than 0\");\r\n        require(_dueDate > block.timestamp, \"Due date must be in the future\");\r\n\r\n        activeLoans[msg.sender].push(Loan({\r\n            amount: _amount,\r\n            interest: 10,\r\n            dueDate: _dueDate,\r\n            borrower: msg.sender,\r\n            isRepaid: false\r\n        }));\r\n\r\n        emit LoanCreated(msg.sender, _amount, 10, _dueDate, false);\r\n    }\r\n\r\n    // Obine mprumuturile active ale unui utilizator\r\n    function getActiveLoans(address _borrower) external view override returns (Loan[] memory) {\r\n        return activeLoans[_borrower];\r\n    }\r\n\r\n    function getPaidLoans(address _borrower) external view returns (Loan[] memory) {\r\n        return paidLoans[_borrower];\r\n    }\r\n\r\n    // Permite rambursarea unui mprumut\r\n    function repayLoan(address _borrower, uint256 _index) public payable override {\r\n        require(_index < activeLoans[_borrower].length, \"Loan does not exist\");\r\n\r\n        Loan storage loan = activeLoans[_borrower][_index];\r\n        uint256 interestAmount = LoanLibrary.calculateInterest(loan.amount, loan.interest);\r\n\r\n        require(msg.value >= interestAmount, \"Not enough funds to repay loan\");\r\n\r\n        // Marcare ca rambursat\r\n        loan.isRepaid = true;\r\n\r\n        // Transfer ctre owner\r\n        payable(owner).transfer(interestAmount);\r\n\r\n        // Returneaz surplusul utilizatorului\r\n        if (msg.value > interestAmount) {\r\n            payable(msg.sender).transfer(msg.value - interestAmount);\r\n        }\r\n\r\n        paidLoans[_borrower].push(loan);\r\n\r\n        emit LoanRepaid(_borrower, _index);\r\n    }\r\n}\r\n",
  "sourcePath": "C:\\Users\\teodo\\OneDrive - unibuc.ro\\Desktop\\Blockchain\\Sistem-de-Imprumuturi-DeFi\\contracts\\DeFiLoan.sol",
  "compiler": {
    "name": "solc",
    "version": "0.8.0+commit.c7dfd78e.Emscripten.clang"
  },
  "schemaVersion": "3.4.16",
  "updatedAt": "2025-02-05T17:48:00.186Z",
  "networkType": "ethereum",
  "devdoc": {
    "kind": "dev",
    "methods": {},
    "version": 1
  },
  "userdoc": {
    "kind": "user",
    "methods": {},
    "version": 1
  }
}