{
  "contractName": "LoanProxy",
  "abi": [
    {
      "inputs": [
        {
          "internalType": "address",
          "name": "_loanLogic",
          "type": "address"
        }
      ],
      "stateMutability": "nonpayable",
      "type": "constructor"
    },
    {
      "stateMutability": "payable",
      "type": "fallback",
      "payable": true
    },
    {
      "inputs": [],
      "name": "loanLogic",
      "outputs": [
        {
          "internalType": "address",
          "name": "",
          "type": "address"
        }
      ],
      "stateMutability": "view",
      "type": "function",
      "constant": true
    },
    {
      "inputs": [],
      "name": "owner",
      "outputs": [
        {
          "internalType": "address",
          "name": "",
          "type": "address"
        }
      ],
      "stateMutability": "view",
      "type": "function",
      "constant": true
    },
    {
      "stateMutability": "payable",
      "type": "receive",
      "payable": true
    },
    {
      "inputs": [
        {
          "internalType": "address",
          "name": "_newLogic",
          "type": "address"
        }
      ],
      "name": "upgrade",
      "outputs": [],
      "stateMutability": "nonpayable",
      "type": "function"
    }
  ],
  "bytecode": "0x608060405234801561001057600080fd5b5060405161060c38038061060c833981810160405281019061003291906100ce565b806000806101000a81548173ffffffffffffffffffffffffffffffffffffffff021916908373ffffffffffffffffffffffffffffffffffffffff16021790555033600160006101000a81548173ffffffffffffffffffffffffffffffffffffffff021916908373ffffffffffffffffffffffffffffffffffffffff16021790555050610140565b6000815190506100c881610129565b92915050565b6000602082840312156100e057600080fd5b60006100ee848285016100b9565b91505092915050565b600061010282610109565b9050919050565b600073ffffffffffffffffffffffffffffffffffffffff82169050919050565b610132816100f7565b811461013d57600080fd5b50565b6104bd8061014f6000396000f3fe6080604052600436106100385760003560e01c80630900f01014610111578063348e27811461013a5780638da5cb5b146101655761003f565b3661003f57005b60008060009054906101000a900473ffffffffffffffffffffffffffffffffffffffff1673ffffffffffffffffffffffffffffffffffffffff1660003660405161008a92919061039f565b600060405180830381855af49150503d80600081146100c5576040519150601f19603f3d011682016040523d82523d6000602084013e6100ca565b606091505b505090508061010e576040517f08c379a0000000000000000000000000000000000000000000000000000000008152600401610105906103f3565b60405180910390fd5b50005b34801561011d57600080fd5b50610138600480360381019061013391906102c2565b610190565b005b34801561014657600080fd5b5061014f610263565b60405161015c91906103b8565b60405180910390f35b34801561017157600080fd5b5061017a610287565b60405161018791906103b8565b60405180910390f35b600160009054906101000a900473ffffffffffffffffffffffffffffffffffffffff1673ffffffffffffffffffffffffffffffffffffffff163373ffffffffffffffffffffffffffffffffffffffff1614610220576040517f08c379a0000000000000000000000000000000000000000000000000000000008152600401610217906103d3565b60405180910390fd5b806000806101000a81548173ffffffffffffffffffffffffffffffffffffffff021916908373ffffffffffffffffffffffffffffffffffffffff16021790555050565b60008054906101000a900473ffffffffffffffffffffffffffffffffffffffff1681565b600160009054906101000a900473ffffffffffffffffffffffffffffffffffffffff1681565b6000813590506102bc81610470565b92915050565b6000602082840312156102d457600080fd5b60006102e2848285016102ad565b91505092915050565b6102f48161042f565b82525050565b60006103068385610413565b9350610313838584610461565b82840190509392505050565b600061032c600d8361041e565b91507f4e6f7420746865206f776e6572000000000000000000000000000000000000006000830152602082019050919050565b600061036c60138361041e565b91507f44656c656761746563616c6c206661696c6564000000000000000000000000006000830152602082019050919050565b60006103ac8284866102fa565b91508190509392505050565b60006020820190506103cd60008301846102eb565b92915050565b600060208201905081810360008301526103ec8161031f565b9050919050565b6000602082019050818103600083015261040c8161035f565b9050919050565b600081905092915050565b600082825260208201905092915050565b600061043a82610441565b9050919050565b600073ffffffffffffffffffffffffffffffffffffffff82169050919050565b82818337600083830152505050565b6104798161042f565b811461048457600080fd5b5056fea26469706673582212201d902d1e0fa079d78b8373d794198b752138190e8a6fecbec934100c07534f5c64736f6c63430008000033",
  "immutableReferences": {},
  "source": "// SPDX-License-Identifier: MIT\r\npragma solidity ^0.8.0;\r\n\r\ncontract LoanProxy {\r\n    address public loanLogic; // Adresa contractului logic (DeFiLoan)\r\n    address public owner;\r\n\r\n    constructor(address _loanLogic) {\r\n        loanLogic = _loanLogic;\r\n        owner = msg.sender;\r\n    }\r\n\r\n    modifier onlyOwner() {\r\n        require(msg.sender == owner, \"Not the owner\");\r\n        _;\r\n    }\r\n\r\n    // Permite upgrade-ul contractului logic\r\n    function upgrade(address _newLogic) public onlyOwner {\r\n        loanLogic = _newLogic;\r\n    }\r\n\r\n    // Funcie receive pentru a accepta ETH fr date\r\n    receive() external payable {}\r\n\r\n    // Funcie fallback care delegheaz apelurile ctre contractul logic\r\n    fallback() external payable {\r\n        (bool success, ) = loanLogic.delegatecall(msg.data);\r\n        require(success, \"Delegatecall failed\");\r\n    }\r\n}\r\n",
  "sourcePath": "C:\\Users\\teodo\\OneDrive - unibuc.ro\\Desktop\\Blockchain\\Sistem-de-Imprumuturi-DeFi\\contracts\\LoanProxy.sol",
  "compiler": {
    "name": "solc",
    "version": "0.8.0+commit.c7dfd78e.Emscripten.clang"
  },
  "schemaVersion": "3.4.16",
  "updatedAt": "2025-02-05T17:48:00.200Z",
  "networkType": "ethereum",
  "devdoc": {
    "kind": "dev",
    "methods": {},
    "version": 1
  },
  "userdoc": {
    "kind": "user",
    "methods": {},
    "version": 1
  }
}