{
  "contractName": "LoanProxy",
  "abi": [
    {
      "inputs": [
        {
          "internalType": "address",
          "name": "_loanLogic",
          "type": "address"
        }
      ],
      "stateMutability": "nonpayable",
      "type": "constructor"
    },
    {
      "stateMutability": "payable",
      "type": "fallback"
    },
    {
      "inputs": [],
      "name": "loanLogic",
      "outputs": [
        {
          "internalType": "address",
          "name": "",
          "type": "address"
        }
      ],
      "stateMutability": "view",
      "type": "function"
    },
    {
      "inputs": [],
      "name": "owner",
      "outputs": [
        {
          "internalType": "address",
          "name": "",
          "type": "address"
        }
      ],
      "stateMutability": "view",
      "type": "function"
    },
    {
      "stateMutability": "payable",
      "type": "receive"
    },
    {
      "inputs": [
        {
          "internalType": "address",
          "name": "_newLogic",
          "type": "address"
        }
      ],
      "name": "upgrade",
      "outputs": [],
      "stateMutability": "nonpayable",
      "type": "function"
    }
  ],
  "bytecode": "0x608060405234801561000f575f80fd5b5060405161060538038061060583398181016040528101906100319190610114565b805f806101000a81548173ffffffffffffffffffffffffffffffffffffffff021916908373ffffffffffffffffffffffffffffffffffffffff1602179055503360015f6101000a81548173ffffffffffffffffffffffffffffffffffffffff021916908373ffffffffffffffffffffffffffffffffffffffff1602179055505061013f565b5f80fd5b5f73ffffffffffffffffffffffffffffffffffffffff82169050919050565b5f6100e3826100ba565b9050919050565b6100f3816100d9565b81146100fd575f80fd5b50565b5f8151905061010e816100ea565b92915050565b5f60208284031215610129576101286100b6565b5b5f61013684828501610100565b91505092915050565b6104b98061014c5f395ff3fe608060405260043610610037575f3560e01c80630900f01014610109578063348e2781146101315780638da5cb5b1461015b5761003e565b3661003e57005b5f805f9054906101000a900473ffffffffffffffffffffffffffffffffffffffff1673ffffffffffffffffffffffffffffffffffffffff165f366040516100869291906102da565b5f60405180830381855af49150503d805f81146100be576040519150601f19603f3d011682016040523d82523d5f602084013e6100c3565b606091505b5050905080610107576040517f08c379a00000000000000000000000000000000000000000000000000000000081526004016100fe9061034c565b60405180910390fd5b005b348015610114575f80fd5b5061012f600480360381019061012a91906103c8565b610185565b005b34801561013c575f80fd5b50610145610256565b6040516101529190610402565b60405180910390f35b348015610166575f80fd5b5061016f610279565b60405161017c9190610402565b60405180910390f35b60015f9054906101000a900473ffffffffffffffffffffffffffffffffffffffff1673ffffffffffffffffffffffffffffffffffffffff163373ffffffffffffffffffffffffffffffffffffffff1614610214576040517f08c379a000000000000000000000000000000000000000000000000000000000815260040161020b90610465565b60405180910390fd5b805f806101000a81548173ffffffffffffffffffffffffffffffffffffffff021916908373ffffffffffffffffffffffffffffffffffffffff16021790555050565b5f8054906101000a900473ffffffffffffffffffffffffffffffffffffffff1681565b60015f9054906101000a900473ffffffffffffffffffffffffffffffffffffffff1681565b5f81905092915050565b828183375f83830152505050565b5f6102c1838561029e565b93506102ce8385846102a8565b82840190509392505050565b5f6102e68284866102b6565b91508190509392505050565b5f82825260208201905092915050565b7f44656c656761746563616c6c206661696c6564000000000000000000000000005f82015250565b5f6103366013836102f2565b915061034182610302565b602082019050919050565b5f6020820190508181035f8301526103638161032a565b9050919050565b5f80fd5b5f73ffffffffffffffffffffffffffffffffffffffff82169050919050565b5f6103978261036e565b9050919050565b6103a78161038d565b81146103b1575f80fd5b50565b5f813590506103c28161039e565b92915050565b5f602082840312156103dd576103dc61036a565b5b5f6103ea848285016103b4565b91505092915050565b6103fc8161038d565b82525050565b5f6020820190506104155f8301846103f3565b92915050565b7f4e6f7420746865206f776e6572000000000000000000000000000000000000005f82015250565b5f61044f600d836102f2565b915061045a8261041b565b602082019050919050565b5f6020820190508181035f83015261047c81610443565b905091905056fea264697066735822122058a408bdf8c5ac742bab74e66fed9185119f1c5a02214f27268afff5141b002d64736f6c63430008140033",
  "immutableReferences": {},
  "source": "// SPDX-License-Identifier: MIT\r\npragma solidity ^0.8.0;\r\n\r\ncontract LoanProxy {\r\n    address public loanLogic; // Adresa contractului logic (DeFiLoan)\r\n    address public owner;\r\n\r\n    constructor(address _loanLogic) {\r\n        loanLogic = _loanLogic;\r\n        owner = msg.sender;\r\n    }\r\n\r\n    modifier onlyOwner() {\r\n        require(msg.sender == owner, \"Not the owner\");\r\n        _;\r\n    }\r\n\r\n    // Permite upgrade-ul contractului logic\r\n    function upgrade(address _newLogic) public onlyOwner {\r\n        loanLogic = _newLogic;\r\n    }\r\n\r\n    // Funcie receive pentru a accepta ETH fr date\r\n    receive() external payable {}\r\n\r\n    // Funcie fallback care delegheaz apelurile ctre contractul logic\r\n    fallback() external payable {\r\n        (bool success, ) = loanLogic.delegatecall(msg.data);\r\n        require(success, \"Delegatecall failed\");\r\n    }\r\n}\r\n",
  "sourcePath": "C:\\Users\\sumur\\Desktop\\An3\\Sistem-de-Imprumuturi-DeFi\\contracts\\LoanProxy.sol",
  "compiler": {
    "name": "solc",
    "version": "0.8.20+commit.a1b79de6.Emscripten.clang"
  },
  "schemaVersion": "3.4.16",
  "updatedAt": "2025-02-06T04:47:00.840Z",
  "devdoc": {
    "kind": "dev",
    "methods": {},
    "version": 1
  },
  "userdoc": {
    "kind": "user",
    "methods": {},
    "version": 1
  }
}