{
  "contractName": "LoanLibrary",
  "abi": [
    {
      "inputs": [
        {
          "internalType": "uint256",
          "name": "amount",
          "type": "uint256"
        },
        {
          "internalType": "uint256",
          "name": "rate",
          "type": "uint256"
        }
      ],
      "name": "calculateInterest",
      "outputs": [
        {
          "internalType": "uint256",
          "name": "",
          "type": "uint256"
        }
      ],
      "stateMutability": "pure",
      "type": "function",
      "constant": true
    }
  ],
  "bytecode": "0x610247610053600b82828239805160001a607314610046577f4e487b7100000000000000000000000000000000000000000000000000000000600052600060045260246000fd5b30600052607381538281f3fe73000000000000000000000000000000000000000030146080604052600436106100355760003560e01c8063efdd7c071461003a575b600080fd5b610054600480360381019061004f91906100a1565b61006a565b60405161006191906100ec565b60405180910390f35b60006064828461007a9190610138565b6100849190610107565b905092915050565b60008135905061009b816101fa565b92915050565b600080604083850312156100b457600080fd5b60006100c28582860161008c565b92505060206100d38582860161008c565b9150509250929050565b6100e681610192565b82525050565b600060208201905061010160008301846100dd565b92915050565b600061011282610192565b915061011d83610192565b92508261012d5761012c6101cb565b5b828204905092915050565b600061014382610192565b915061014e83610192565b9250817fffffffffffffffffffffffffffffffffffffffffffffffffffffffffffffffff04831182151516156101875761018661019c565b5b828202905092915050565b6000819050919050565b7f4e487b7100000000000000000000000000000000000000000000000000000000600052601160045260246000fd5b7f4e487b7100000000000000000000000000000000000000000000000000000000600052601260045260246000fd5b61020381610192565b811461020e57600080fd5b5056fea2646970667358221220d4a36fd7bfde2ddc4fdc12ccf1b8c701ddcfa8c876a79ffcdcdddda31e1fb8b764736f6c63430008000033",
  "immutableReferences": {},
  "source": "// SPDX-License-Identifier: MIT\r\npragma solidity ^0.8.0;\r\n\r\nlibrary LoanLibrary {\r\n    // Calculeaz dobnda pentru un mprumut\r\n    function calculateInterest(uint256 amount, uint256 rate) public pure returns (uint256) {\r\n        return (amount * rate) / 100;\r\n    }\r\n}\r\n",
  "sourcePath": "C:\\Users\\teodo\\OneDrive - unibuc.ro\\Desktop\\Blockchain\\Sistem-de-Imprumuturi-DeFi\\contracts\\LoanLibrary.sol",
  "compiler": {
    "name": "solc",
    "version": "0.8.0+commit.c7dfd78e.Emscripten.clang"
  },
  "schemaVersion": "3.4.16",
  "updatedAt": "2025-02-04T21:55:01.519Z",
  "networkType": "ethereum",
  "devdoc": {
    "kind": "dev",
    "methods": {},
    "version": 1
  },
  "userdoc": {
    "kind": "user",
    "methods": {},
    "version": 1
  }
}