{
  "contractName": "LoanLibrary",
  "abi": [
    {
      "inputs": [
        {
          "internalType": "uint256",
          "name": "amount",
          "type": "uint256"
        },
        {
          "internalType": "uint256",
          "name": "rate",
          "type": "uint256"
        }
      ],
      "name": "calculateInterest",
      "outputs": [
        {
          "internalType": "uint256",
          "name": "",
          "type": "uint256"
        }
      ],
      "stateMutability": "pure",
      "type": "function"
    }
  ],
  "bytecode": "0x61022761004e600b8282823980515f1a607314610042577f4e487b71000000000000000000000000000000000000000000000000000000005f525f60045260245ffd5b305f52607381538281f3fe7300000000000000000000000000000000000000003014608060405260043610610034575f3560e01c8063efdd7c0714610038575b5f80fd5b610052600480360381019061004d91906100c0565b610068565b60405161005f919061010d565b60405180910390f35b5f606482846100779190610153565b61008191906101c1565b905092915050565b5f80fd5b5f819050919050565b61009f8161008d565b81146100a9575f80fd5b50565b5f813590506100ba81610096565b92915050565b5f80604083850312156100d6576100d5610089565b5b5f6100e3858286016100ac565b92505060206100f4858286016100ac565b9150509250929050565b6101078161008d565b82525050565b5f6020820190506101205f8301846100fe565b92915050565b7f4e487b71000000000000000000000000000000000000000000000000000000005f52601160045260245ffd5b5f61015d8261008d565b91506101688361008d565b92508282026101768161008d565b9150828204841483151761018d5761018c610126565b5b5092915050565b7f4e487b71000000000000000000000000000000000000000000000000000000005f52601260045260245ffd5b5f6101cb8261008d565b91506101d68361008d565b9250826101e6576101e5610194565b5b82820490509291505056fea26469706673582212204fcbd3082eef856b9a3934e86caa585a9a2817e3129ffa5857dd7d36957a4ba764736f6c63430008140033",
  "immutableReferences": {},
  "source": "// SPDX-License-Identifier: MIT\r\npragma solidity ^0.8.0;\r\n\r\nlibrary LoanLibrary {\r\n    // Calculeaz dobnda pentru un mprumut\r\n    function calculateInterest(uint256 amount, uint256 rate) public pure returns (uint256) {\r\n        return (amount * rate) / 100;\r\n    }\r\n}\r\n",
  "sourcePath": "C:\\Users\\sumur\\Desktop\\An3\\Sistem-de-Imprumuturi-DeFi\\contracts\\LoanLibrary.sol",
  "compiler": {
    "name": "solc",
    "version": "0.8.20+commit.a1b79de6.Emscripten.clang"
  },
  "schemaVersion": "3.4.16",
  "updatedAt": "2025-02-06T04:47:00.838Z",
  "devdoc": {
    "kind": "dev",
    "methods": {},
    "version": 1
  },
  "userdoc": {
    "kind": "user",
    "methods": {},
    "version": 1
  }
}