{
  "contractName": "Withdrawal",
  "abi": [
    {
      "inputs": [
        {
          "internalType": "address",
          "name": "",
          "type": "address"
        }
      ],
      "name": "balances",
      "outputs": [
        {
          "internalType": "uint256",
          "name": "",
          "type": "uint256"
        }
      ],
      "stateMutability": "view",
      "type": "function"
    },
    {
      "inputs": [],
      "name": "deposit",
      "outputs": [],
      "stateMutability": "payable",
      "type": "function"
    },
    {
      "inputs": [],
      "name": "withdraw",
      "outputs": [],
      "stateMutability": "nonpayable",
      "type": "function"
    }
  ],
  "bytecode": "0x608060405234801561000f575f80fd5b506103cd8061001d5f395ff3fe608060405260043610610033575f3560e01c806327e235e3146100375780633ccfd60b14610073578063d0e30db014610089575b5f80fd5b348015610042575f80fd5b5061005d60048036038101906100589190610263565b610093565b60405161006a91906102a6565b60405180910390f35b34801561007e575f80fd5b506100876100a7565b005b6100916101b1565b005b5f602052805f5260405f205f915090505481565b5f805f3373ffffffffffffffffffffffffffffffffffffffff1673ffffffffffffffffffffffffffffffffffffffff1681526020019081526020015f205490505f8111610129576040517f08c379a000000000000000000000000000000000000000000000000000000000815260040161012090610319565b60405180910390fd5b5f805f3373ffffffffffffffffffffffffffffffffffffffff1673ffffffffffffffffffffffffffffffffffffffff1681526020019081526020015f20819055503373ffffffffffffffffffffffffffffffffffffffff166108fc8290811502906040515f60405180830381858888f193505050501580156101ad573d5f803e3d5ffd5b5050565b345f803373ffffffffffffffffffffffffffffffffffffffff1673ffffffffffffffffffffffffffffffffffffffff1681526020019081526020015f205f8282546101fc9190610364565b92505081905550565b5f80fd5b5f73ffffffffffffffffffffffffffffffffffffffff82169050919050565b5f61023282610209565b9050919050565b61024281610228565b811461024c575f80fd5b50565b5f8135905061025d81610239565b92915050565b5f6020828403121561027857610277610205565b5b5f6102858482850161024f565b91505092915050565b5f819050919050565b6102a08161028e565b82525050565b5f6020820190506102b95f830184610297565b92915050565b5f82825260208201905092915050565b7f496e73756666696369656e742062616c616e63650000000000000000000000005f82015250565b5f6103036014836102bf565b915061030e826102cf565b602082019050919050565b5f6020820190508181035f830152610330816102f7565b9050919050565b7f4e487b71000000000000000000000000000000000000000000000000000000005f52601160045260245ffd5b5f61036e8261028e565b91506103798361028e565b925082820190508082111561039157610390610337565b5b9291505056fea2646970667358221220556e84ee1a4f9f03f3149f78fd0edf08f837ca47d314c484222b6f42d39c75dc64736f6c63430008140033",
  "immutableReferences": {},
  "source": "// SPDX-License-Identifier: MIT\r\npragma solidity ^0.8.0;\r\n\r\ncontract Withdrawal {\r\n    mapping(address => uint256) public balances;\r\n\r\n    // Permite depunerea de fonduri\r\n    function deposit() public payable {\r\n        balances[msg.sender] += msg.value;\r\n    }\r\n\r\n    // Permite retragerea fondurilor\r\n    function withdraw() public {\r\n        uint256 amount = balances[msg.sender];\r\n        require(amount > 0, \"Insufficient balance\");\r\n\r\n        // Seteaz balancele nainte de transfer pentru a preveni atacurile de reentrancy\r\n        balances[msg.sender] = 0;\r\n\r\n        // Transfer fondurile ctre utilizator\r\n        payable(msg.sender).transfer(amount);\r\n    }\r\n}\r\n",
  "sourcePath": "C:\\Users\\sumur\\Desktop\\An3\\Sistem-de-Imprumuturi-DeFi\\contracts\\Withdrawal.sol",
  "compiler": {
    "name": "solc",
    "version": "0.8.20+commit.a1b79de6.Emscripten.clang"
  },
  "schemaVersion": "3.4.16",
  "updatedAt": "2025-02-06T04:47:00.849Z",
  "devdoc": {
    "kind": "dev",
    "methods": {},
    "version": 1
  },
  "userdoc": {
    "kind": "user",
    "methods": {},
    "version": 1
  }
}